{
  "_format": "hh-sol-artifact-1",
  "contractName": "UserRegistry",
  "sourceName": "contracts/UserRegistry.sol",
  "abi": [
    {
      "inputs": [
        {
          "internalType": "address",
          "name": "owner",
          "type": "address"
        }
      ],
      "name": "OwnableInvalidOwner",
      "type": "error"
    },
    {
      "inputs": [
        {
          "internalType": "address",
          "name": "account",
          "type": "address"
        }
      ],
      "name": "OwnableUnauthorizedAccount",
      "type": "error"
    },
    {
      "anonymous": false,
      "inputs": [
        {
          "indexed": true,
          "internalType": "address",
          "name": "previousOwner",
          "type": "address"
        },
        {
          "indexed": true,
          "internalType": "address",
          "name": "newOwner",
          "type": "address"
        }
      ],
      "name": "OwnershipTransferred",
      "type": "event"
    },
    {
      "inputs": [
        {
          "internalType": "address",
          "name": "user",
          "type": "address"
        }
      ],
      "name": "getUserStatus",
      "outputs": [
        {
          "internalType": "enum IUserData.UserType",
          "name": "",
          "type": "uint8"
        }
      ],
      "stateMutability": "view",
      "type": "function"
    },
    {
      "inputs": [
        {
          "internalType": "address",
          "name": "_contractRegistry",
          "type": "address"
        }
      ],
      "name": "initialize",
      "outputs": [],
      "stateMutability": "nonpayable",
      "type": "function"
    },
    {
      "inputs": [],
      "name": "owner",
      "outputs": [
        {
          "internalType": "address",
          "name": "",
          "type": "address"
        }
      ],
      "stateMutability": "view",
      "type": "function"
    },
    {
      "inputs": [],
      "name": "renounceOwnership",
      "outputs": [],
      "stateMutability": "nonpayable",
      "type": "function"
    },
    {
      "inputs": [
        {
          "internalType": "address",
          "name": "user",
          "type": "address"
        },
        {
          "internalType": "enum IUserData.UserType",
          "name": "status",
          "type": "uint8"
        }
      ],
      "name": "setUserStatus",
      "outputs": [],
      "stateMutability": "nonpayable",
      "type": "function"
    },
    {
      "inputs": [
        {
          "internalType": "address",
          "name": "newOwner",
          "type": "address"
        }
      ],
      "name": "transferOwnership",
      "outputs": [],
      "stateMutability": "nonpayable",
      "type": "function"
    }
  ],
  "bytecode": "0x608060405234801561001057600080fd5b50338061003757604051631e4fbdf760e01b81526000600482015260240160405180910390fd5b61004081610046565b50610096565b600080546001600160a01b038381166001600160a01b0319831681178455604051919092169283917f8be0079c531659141344cd1fd0a4f28419497f9722a3daafe3b4186f6b6457e09190a35050565b61032c806100a56000396000f3fe608060405234801561001057600080fd5b50600436106100625760003560e01c8063715018a6146100675780638da5cb5b14610071578063920e3c9614610091578063c4d66de8146100a4578063ea0d5dcd146100b7578063f2fde38b146100f0575b600080fd5b61006f610103565b005b6000546040516001600160a01b0390911681526020015b60405180910390f35b61006f61009f36600461025b565b610117565b61006f6100b2366004610296565b610155565b6100e36100c5366004610296565b6001600160a01b031660009081526002602052604090205460ff1690565b60405161008891906102ce565b61006f6100fe366004610296565b61017f565b61010b6101c2565b61011560006101ef565b565b6001600160a01b0382166000908152600260205260409020805482919060ff1916600183600481111561014c5761014c6102b8565b02179055505050565b61015d6101c2565b600180546001600160a01b0319166001600160a01b0392909216919091179055565b6101876101c2565b6001600160a01b0381166101b657604051631e4fbdf760e01b8152600060048201526024015b60405180910390fd5b6101bf816101ef565b50565b6000546001600160a01b031633146101155760405163118cdaa760e01b81523360048201526024016101ad565b600080546001600160a01b038381166001600160a01b0319831681178455604051919092169283917f8be0079c531659141344cd1fd0a4f28419497f9722a3daafe3b4186f6b6457e09190a35050565b80356001600160a01b038116811461025657600080fd5b919050565b6000806040838503121561026e57600080fd5b6102778361023f565b915060208301356005811061028b57600080fd5b809150509250929050565b6000602082840312156102a857600080fd5b6102b18261023f565b9392505050565b634e487b7160e01b600052602160045260246000fd5b60208101600583106102f057634e487b7160e01b600052602160045260246000fd5b9190529056fea2646970667358221220a8eaad675881386da042e5e86a454dedc7a3b22ab11d3ad33fcbba352244cf2464736f6c63430008140033",
  "linkReferences": {},
  "deployedLinkReferences": {}
}