{
  "_format": "hh-sol-artifact-1",
  "contractName": "PriceConsumerV3",
  "sourceName": "contracts/chainlink/PriceConsumerV3.sol",
  "abi": [
    {
      "inputs": [],
      "stateMutability": "nonpayable",
      "type": "constructor"
    },
    {
      "inputs": [],
      "name": "decimals",
      "outputs": [
        {
          "internalType": "uint256",
          "name": "",
          "type": "uint256"
        }
      ],
      "stateMutability": "view",
      "type": "function"
    },
    {
      "inputs": [],
      "name": "getLatestPrice",
      "outputs": [
        {
          "internalType": "int256",
          "name": "",
          "type": "int256"
        }
      ],
      "stateMutability": "view",
      "type": "function"
    }
  ],
  "bytecode": "0x608060405234801561001057600080fd5b50600080546001600160a01b031916737d7356bf6ee5cdec22b216581e48ecc700d0497a179055610225806100466000396000f3fe608060405234801561001057600080fd5b50600436106100365760003560e01c8063313ce5671461003b5780638e15f47314610055575b600080fd5b61004361005d565b60405190815260200160405180910390f35b6100436100dd565b60008060009054906101000a90046001600160a01b03166001600160a01b031663313ce5676040518163ffffffff1660e01b8152600401602060405180830381865afa1580156100b1573d6000803e3d6000fd5b505050506040513d601f19601f820116820180604052508101906100d59190610156565b60ff16905090565b6000805460408051633fabe5a360e21b8152905183926001600160a01b03169163feaf968c9160048083019260a09291908290030181865afa158015610127573d6000803e3d6000fd5b505050506040513d601f19601f8201168201806040525081019061014b919061019f565b509195945050505050565b60006020828403121561016857600080fd5b815160ff8116811461017957600080fd5b9392505050565b805169ffffffffffffffffffff8116811461019a57600080fd5b919050565b600080600080600060a086880312156101b757600080fd5b6101c086610180565b94506020860151935060408601519250606086015191506101e360808701610180565b9050929550929590935056fea26469706673582212209260b310ea54198bab9d26abd5a40c9fa2f5246f7a4fe5ae61d2bb29117d2fb064736f6c63430008140033",
  "linkReferences": {},
  "deployedLinkReferences": {}
}