{
  "_format": "hh-sol-artifact-1",
  "contractName": "Token",
  "sourceName": "contracts/Token.sol",
  "abi": [
    {
      "inputs": [
        {
          "internalType": "string",
          "name": "name_",
          "type": "string"
        },
        {
          "internalType": "string",
          "name": "symbol_",
          "type": "string"
        },
        {
          "internalType": "address",
          "name": "exchangeProtocol_",
          "type": "address"
        }
      ],
      "stateMutability": "nonpayable",
      "type": "constructor"
    },
    {
      "inputs": [
        {
          "internalType": "address",
          "name": "spender",
          "type": "address"
        },
        {
          "internalType": "uint256",
          "name": "allowance",
          "type": "uint256"
        },
        {
          "internalType": "uint256",
          "name": "needed",
          "type": "uint256"
        }
      ],
      "name": "ERC20InsufficientAllowance",
      "type": "error"
    },
    {
      "inputs": [
        {
          "internalType": "address",
          "name": "sender",
          "type": "address"
        },
        {
          "internalType": "uint256",
          "name": "balance",
          "type": "uint256"
        },
        {
          "internalType": "uint256",
          "name": "needed",
          "type": "uint256"
        }
      ],
      "name": "ERC20InsufficientBalance",
      "type": "error"
    },
    {
      "inputs": [
        {
          "internalType": "address",
          "name": "approver",
          "type": "address"
        }
      ],
      "name": "ERC20InvalidApprover",
      "type": "error"
    },
    {
      "inputs": [
        {
          "internalType": "address",
          "name": "receiver",
          "type": "address"
        }
      ],
      "name": "ERC20InvalidReceiver",
      "type": "error"
    },
    {
      "inputs": [
        {
          "internalType": "address",
          "name": "sender",
          "type": "address"
        }
      ],
      "name": "ERC20InvalidSender",
      "type": "error"
    },
    {
      "inputs": [
        {
          "internalType": "address",
          "name": "spender",
          "type": "address"
        }
      ],
      "name": "ERC20InvalidSpender",
      "type": "error"
    },
    {
      "inputs": [
        {
          "internalType": "address",
          "name": "owner",
          "type": "address"
        }
      ],
      "name": "OwnableInvalidOwner",
      "type": "error"
    },
    {
      "inputs": [
        {
          "internalType": "address",
          "name": "account",
          "type": "address"
        }
      ],
      "name": "OwnableUnauthorizedAccount",
      "type": "error"
    },
    {
      "anonymous": false,
      "inputs": [
        {
          "indexed": true,
          "internalType": "address",
          "name": "owner",
          "type": "address"
        },
        {
          "indexed": true,
          "internalType": "address",
          "name": "spender",
          "type": "address"
        },
        {
          "indexed": false,
          "internalType": "uint256",
          "name": "value",
          "type": "uint256"
        }
      ],
      "name": "Approval",
      "type": "event"
    },
    {
      "anonymous": false,
      "inputs": [
        {
          "indexed": true,
          "internalType": "address",
          "name": "previousOwner",
          "type": "address"
        },
        {
          "indexed": true,
          "internalType": "address",
          "name": "newOwner",
          "type": "address"
        }
      ],
      "name": "OwnershipTransferred",
      "type": "event"
    },
    {
      "anonymous": false,
      "inputs": [
        {
          "indexed": true,
          "internalType": "address",
          "name": "from",
          "type": "address"
        },
        {
          "indexed": true,
          "internalType": "address",
          "name": "to",
          "type": "address"
        },
        {
          "indexed": false,
          "internalType": "uint256",
          "name": "value",
          "type": "uint256"
        }
      ],
      "name": "Transfer",
      "type": "event"
    },
    {
      "inputs": [
        {
          "internalType": "address",
          "name": "owner",
          "type": "address"
        },
        {
          "internalType": "address",
          "name": "spender",
          "type": "address"
        }
      ],
      "name": "allowance",
      "outputs": [
        {
          "internalType": "uint256",
          "name": "",
          "type": "uint256"
        }
      ],
      "stateMutability": "view",
      "type": "function"
    },
    {
      "inputs": [
        {
          "internalType": "address",
          "name": "spender",
          "type": "address"
        },
        {
          "internalType": "uint256",
          "name": "amount",
          "type": "uint256"
        }
      ],
      "name": "approve",
      "outputs": [
        {
          "internalType": "bool",
          "name": "",
          "type": "bool"
        }
      ],
      "stateMutability": "nonpayable",
      "type": "function"
    },
    {
      "inputs": [
        {
          "internalType": "address",
          "name": "account",
          "type": "address"
        }
      ],
      "name": "balanceOf",
      "outputs": [
        {
          "internalType": "uint256",
          "name": "",
          "type": "uint256"
        }
      ],
      "stateMutability": "view",
      "type": "function"
    },
    {
      "inputs": [
        {
          "internalType": "uint256",
          "name": "amount",
          "type": "uint256"
        }
      ],
      "name": "burn",
      "outputs": [],
      "stateMutability": "pure",
      "type": "function"
    },
    {
      "inputs": [
        {
          "internalType": "address",
          "name": "account",
          "type": "address"
        },
        {
          "internalType": "uint256",
          "name": "amount",
          "type": "uint256"
        }
      ],
      "name": "burnFrom",
      "outputs": [],
      "stateMutability": "nonpayable",
      "type": "function"
    },
    {
      "inputs": [],
      "name": "decimals",
      "outputs": [
        {
          "internalType": "uint8",
          "name": "",
          "type": "uint8"
        }
      ],
      "stateMutability": "view",
      "type": "function"
    },
    {
      "inputs": [
        {
          "internalType": "address",
          "name": "spender",
          "type": "address"
        },
        {
          "internalType": "uint256",
          "name": "addedValue",
          "type": "uint256"
        }
      ],
      "name": "increaseAllowance",
      "outputs": [
        {
          "internalType": "bool",
          "name": "",
          "type": "bool"
        }
      ],
      "stateMutability": "pure",
      "type": "function"
    },
    {
      "inputs": [
        {
          "internalType": "address",
          "name": "to",
          "type": "address"
        },
        {
          "internalType": "uint256",
          "name": "amount",
          "type": "uint256"
        }
      ],
      "name": "mint",
      "outputs": [],
      "stateMutability": "nonpayable",
      "type": "function"
    },
    {
      "inputs": [],
      "name": "name",
      "outputs": [
        {
          "internalType": "string",
          "name": "",
          "type": "string"
        }
      ],
      "stateMutability": "view",
      "type": "function"
    },
    {
      "inputs": [],
      "name": "owner",
      "outputs": [
        {
          "internalType": "address",
          "name": "",
          "type": "address"
        }
      ],
      "stateMutability": "view",
      "type": "function"
    },
    {
      "inputs": [],
      "name": "renounceOwnership",
      "outputs": [],
      "stateMutability": "nonpayable",
      "type": "function"
    },
    {
      "inputs": [],
      "name": "symbol",
      "outputs": [
        {
          "internalType": "string",
          "name": "",
          "type": "string"
        }
      ],
      "stateMutability": "view",
      "type": "function"
    },
    {
      "inputs": [],
      "name": "totalSupply",
      "outputs": [
        {
          "internalType": "uint256",
          "name": "",
          "type": "uint256"
        }
      ],
      "stateMutability": "view",
      "type": "function"
    },
    {
      "inputs": [
        {
          "internalType": "address",
          "name": "to",
          "type": "address"
        },
        {
          "internalType": "uint256",
          "name": "amount",
          "type": "uint256"
        }
      ],
      "name": "transfer",
      "outputs": [
        {
          "internalType": "bool",
          "name": "",
          "type": "bool"
        }
      ],
      "stateMutability": "nonpayable",
      "type": "function"
    },
    {
      "inputs": [
        {
          "internalType": "address",
          "name": "from",
          "type": "address"
        },
        {
          "internalType": "address",
          "name": "to",
          "type": "address"
        },
        {
          "internalType": "uint256",
          "name": "amount",
          "type": "uint256"
        }
      ],
      "name": "transferFrom",
      "outputs": [
        {
          "internalType": "bool",
          "name": "",
          "type": "bool"
        }
      ],
      "stateMutability": "nonpayable",
      "type": "function"
    },
    {
      "inputs": [
        {
          "internalType": "address",
          "name": "newOwner",
          "type": "address"
        }
      ],
      "name": "transferOwnership",
      "outputs": [],
      "stateMutability": "nonpayable",
      "type": "function"
    }
  ],
  "bytecode": "0x60806040523480156200001157600080fd5b5060405162000bfb38038062000bfb8339810160408190526200003491620001bd565b3383836003620000458382620002d9565b506004620000548282620002d9565b5050506001600160a01b0381166200008657604051631e4fbdf760e01b81526000600482015260240160405180910390fd5b6200009181620000a6565b506200009d81620000a6565b505050620003a5565b600580546001600160a01b038381166001600160a01b0319831681179093556040519116919082907f8be0079c531659141344cd1fd0a4f28419497f9722a3daafe3b4186f6b6457e090600090a35050565b634e487b7160e01b600052604160045260246000fd5b600082601f8301126200012057600080fd5b81516001600160401b03808211156200013d576200013d620000f8565b604051601f8301601f19908116603f01168101908282118183101715620001685762000168620000f8565b816040528381526020925086838588010111156200018557600080fd5b600091505b83821015620001a957858201830151818301840152908201906200018a565b600093810190920192909252949350505050565b600080600060608486031215620001d357600080fd5b83516001600160401b0380821115620001eb57600080fd5b620001f9878388016200010e565b945060208601519150808211156200021057600080fd5b506200021f868287016200010e565b604086015190935090506001600160a01b03811681146200023f57600080fd5b809150509250925092565b600181811c908216806200025f57607f821691505b6020821081036200028057634e487b7160e01b600052602260045260246000fd5b50919050565b601f821115620002d457600081815260208120601f850160051c81016020861015620002af5750805b601f850160051c820191505b81811015620002d057828155600101620002bb565b5050505b505050565b81516001600160401b03811115620002f557620002f5620000f8565b6200030d816200030684546200024a565b8462000286565b602080601f8311600181146200034557600084156200032c5750858301515b600019600386901b1c1916600185901b178555620002d0565b600085815260208120601f198616915b82811015620003765788860151825594840194600190910190840162000355565b5085821015620003955787850151600019600388901b60f8161c191681555b5050505050600190811b01905550565b61084680620003b56000396000f3fe608060405234801561001057600080fd5b50600436106101005760003560e01c806370a082311161009757806395d89b411161006657806395d89b4114610201578063a9059cbb14610123578063dd62ed3e14610209578063f2fde38b1461021757600080fd5b806370a08231146101a2578063715018a6146101cb57806379cc6790146101d35780638da5cb5b146101e657600080fd5b8063313ce567116100d3578063313ce5671461016b578063395093511461012357806340c10f191461017a57806342966c681461018f57600080fd5b806306fdde0314610105578063095ea7b31461012357806318160ddd1461014657806323b872dd14610158575b600080fd5b61010d61022a565b60405161011a9190610671565b60405180910390f35b6101366101313660046106db565b6102bc565b604051901515815260200161011a565b6002545b60405190815260200161011a565b610136610166366004610705565b61030c565b6040516012815260200161011a565b61018d6101883660046106db565b61032b565b005b61018d61019d366004610741565b610341565b61014a6101b036600461075a565b6001600160a01b031660009081526020819052604090205490565b61018d610389565b61018d6101e13660046106db565b61039d565b6005546040516001600160a01b03909116815260200161011a565b61010d6103af565b61014a61013136600461077c565b61018d61022536600461075a565b6103be565b606060038054610239906107af565b80601f0160208091040260200160405190810160405280929190818152602001828054610265906107af565b80156102b25780601f10610287576101008083540402835291602001916102b2565b820191906000526020600020905b81548152906001019060200180831161029557829003601f168201915b5050505050905090565b60405162461bcd60e51b815260206004820152601c60248201527f546f6b656e3a204f7065726174696f6e206e6f7420616c6c6f7765640000000060448201526000906064015b60405180910390fd5b60006103166103fc565b610321848484610429565b5060019392505050565b6103336103fc565b61033d828261048d565b5050565b60405162461bcd60e51b815260206004820152601c60248201527f546f6b656e3a204f7065726174696f6e206e6f7420616c6c6f776564000000006044820152606401610303565b6103916103fc565b61039b60006104c3565b565b6103a56103fc565b61033d8282610515565b606060048054610239906107af565b6103c66103fc565b6001600160a01b0381166103f057604051631e4fbdf760e01b815260006004820152602401610303565b6103f9816104c3565b50565b6005546001600160a01b0316331461039b5760405163118cdaa760e01b8152336004820152602401610303565b6001600160a01b03831661045357604051634b637e8f60e11b815260006004820152602401610303565b6001600160a01b03821661047d5760405163ec442f0560e01b815260006004820152602401610303565b610488838383610547565b505050565b6001600160a01b0382166104b75760405163ec442f0560e01b815260006004820152602401610303565b61033d60008383610547565b600580546001600160a01b038381166001600160a01b0319831681179093556040519116919082907f8be0079c531659141344cd1fd0a4f28419497f9722a3daafe3b4186f6b6457e090600090a35050565b6001600160a01b03821661053f57604051634b637e8f60e11b815260006004820152602401610303565b61033d826000835b6001600160a01b03831661057257806002600082825461056791906107e9565b909155506105e49050565b6001600160a01b038316600090815260208190526040902054818110156105c55760405163391434e360e21b81526001600160a01b03851660048201526024810182905260448101839052606401610303565b6001600160a01b03841660009081526020819052604090209082900390555b6001600160a01b0382166106005760028054829003905561061f565b6001600160a01b03821660009081526020819052604090208054820190555b816001600160a01b0316836001600160a01b03167fddf252ad1be2c89b69c2b068fc378daa952ba7f163c4a11628f55a4df523b3ef8360405161066491815260200190565b60405180910390a3505050565b600060208083528351808285015260005b8181101561069e57858101830151858201604001528201610682565b506000604082860101526040601f19601f8301168501019250505092915050565b80356001600160a01b03811681146106d657600080fd5b919050565b600080604083850312156106ee57600080fd5b6106f7836106bf565b946020939093013593505050565b60008060006060848603121561071a57600080fd5b610723846106bf565b9250610731602085016106bf565b9150604084013590509250925092565b60006020828403121561075357600080fd5b5035919050565b60006020828403121561076c57600080fd5b610775826106bf565b9392505050565b6000806040838503121561078f57600080fd5b610798836106bf565b91506107a6602084016106bf565b90509250929050565b600181811c908216806107c357607f821691505b6020821081036107e357634e487b7160e01b600052602260045260246000fd5b50919050565b8082018082111561080a57634e487b7160e01b600052601160045260246000fd5b9291505056fea2646970667358221220f76381f254f3bfc767aa9849cc64c870b08af4ae777ed2dffb931431c2f943c464736f6c63430008140033",
  "linkReferences": {},
  "deployedLinkReferences": {}
}