{
  "_format": "hh-sol-artifact-1",
  "contractName": "Oracle",
  "sourceName": "contracts/Oracle.sol",
  "abi": [
    {
      "inputs": [
        {
          "internalType": "address",
          "name": "owner",
          "type": "address"
        }
      ],
      "name": "OwnableInvalidOwner",
      "type": "error"
    },
    {
      "inputs": [
        {
          "internalType": "address",
          "name": "account",
          "type": "address"
        }
      ],
      "name": "OwnableUnauthorizedAccount",
      "type": "error"
    },
    {
      "anonymous": false,
      "inputs": [
        {
          "indexed": true,
          "internalType": "address",
          "name": "previousOwner",
          "type": "address"
        },
        {
          "indexed": true,
          "internalType": "address",
          "name": "newOwner",
          "type": "address"
        }
      ],
      "name": "OwnershipTransferred",
      "type": "event"
    },
    {
      "inputs": [
        {
          "internalType": "address",
          "name": "token",
          "type": "address"
        }
      ],
      "name": "getAssetPriceInUSD",
      "outputs": [
        {
          "internalType": "int256",
          "name": "",
          "type": "int256"
        }
      ],
      "stateMutability": "view",
      "type": "function"
    },
    {
      "inputs": [
        {
          "internalType": "address",
          "name": "_contractRegistry",
          "type": "address"
        }
      ],
      "name": "initialize",
      "outputs": [],
      "stateMutability": "nonpayable",
      "type": "function"
    },
    {
      "inputs": [],
      "name": "owner",
      "outputs": [
        {
          "internalType": "address",
          "name": "",
          "type": "address"
        }
      ],
      "stateMutability": "view",
      "type": "function"
    },
    {
      "inputs": [],
      "name": "renounceOwnership",
      "outputs": [],
      "stateMutability": "nonpayable",
      "type": "function"
    },
    {
      "inputs": [
        {
          "internalType": "address",
          "name": "newOwner",
          "type": "address"
        }
      ],
      "name": "transferOwnership",
      "outputs": [],
      "stateMutability": "nonpayable",
      "type": "function"
    }
  ],
  "bytecode": "0x608060405234801561001057600080fd5b50338061003757604051631e4fbdf760e01b81526000600482015260240160405180910390fd5b61004081610046565b50610096565b600080546001600160a01b038381166001600160a01b0319831681178455604051919092169283917f8be0079c531659141344cd1fd0a4f28419497f9722a3daafe3b4186f6b6457e09190a35050565b610520806100a56000396000f3fe608060405234801561001057600080fd5b50600436106100575760003560e01c8063715018a61461005c5780638da5cb5b14610066578063bdc1fd1614610086578063c4d66de8146100a7578063f2fde38b146100ba575b600080fd5b6100646100cd565b005b6000546040516001600160a01b0390911681526020015b60405180910390f35b610099610094366004610490565b6100e1565b60405190815260200161007d565b6100646100b5366004610490565b610396565b6100646100c8366004610490565b6103c0565b6100d56103fe565b6100df600061042b565b565b60015460405163c65c9e1960e01b81526001600160a01b038381166004830152600092839291169063c65c9e1990602401602060405180830381865afa15801561012f573d6000803e3d6000fd5b505050506040513d601f19601f8201168201806040525081019061015391906104b4565b6001600160a01b0316036101be5760405162461bcd60e51b815260206004820152602760248201527f4f7261636c653a204665656420666f722063757272656e637920646f65736e276044820152661d08195e1a5cdd60ca1b60648201526084015b60405180910390fd5b60015460408051635a58fe4b60e01b815290516001600160a01b03808616931691635a58fe4b9160048083019260209291908290030181865afa158015610209573d6000803e3d6000fd5b505050506040513d601f19601f8201168201806040525081019061022d91906104b4565b60405163182e67ed60e31b81526020600482015260036024820152621554d160ea1b60448201526001600160a01b03919091169063c1733f6890606401602060405180830381865afa158015610287573d6000803e3d6000fd5b505050506040513d601f19601f820116820180604052508101906102ab91906104b4565b6001600160a01b0316036102c157506001919050565b60015460405163c65c9e1960e01b81526001600160a01b0384811660048301529091169063c65c9e1990602401602060405180830381865afa15801561030b573d6000803e3d6000fd5b505050506040513d601f19601f8201168201806040525081019061032f91906104b4565b6001600160a01b0316638e15f4736040518163ffffffff1660e01b8152600401602060405180830381865afa15801561036c573d6000803e3d6000fd5b505050506040513d601f19601f8201168201806040525081019061039091906104d1565b92915050565b61039e6103fe565b600180546001600160a01b0319166001600160a01b0392909216919091179055565b6103c86103fe565b6001600160a01b0381166103f257604051631e4fbdf760e01b8152600060048201526024016101b5565b6103fb8161042b565b50565b6000546001600160a01b031633146100df5760405163118cdaa760e01b81523360048201526024016101b5565b600080546001600160a01b038381166001600160a01b0319831681178455604051919092169283917f8be0079c531659141344cd1fd0a4f28419497f9722a3daafe3b4186f6b6457e09190a35050565b6001600160a01b03811681146103fb57600080fd5b6000602082840312156104a257600080fd5b81356104ad8161047b565b9392505050565b6000602082840312156104c657600080fd5b81516104ad8161047b565b6000602082840312156104e357600080fd5b505191905056fea2646970667358221220db6e00aab65cd405ac709ba8931d05eb56d88dca4842cc6dbbb35ae0f5150b6664736f6c63430008140033",
  "linkReferences": {},
  "deployedLinkReferences": {}
}