{
  "_format": "hh-sol-artifact-1",
  "contractName": "ExchangeProtocol",
  "sourceName": "contracts/ExchangeProtocol.sol",
  "abi": [
    {
      "inputs": [
        {
          "internalType": "address",
          "name": "owner",
          "type": "address"
        }
      ],
      "name": "OwnableInvalidOwner",
      "type": "error"
    },
    {
      "inputs": [
        {
          "internalType": "address",
          "name": "account",
          "type": "address"
        }
      ],
      "name": "OwnableUnauthorizedAccount",
      "type": "error"
    },
    {
      "anonymous": false,
      "inputs": [
        {
          "indexed": true,
          "internalType": "address",
          "name": "previousOwner",
          "type": "address"
        },
        {
          "indexed": true,
          "internalType": "address",
          "name": "newOwner",
          "type": "address"
        }
      ],
      "name": "OwnershipTransferred",
      "type": "event"
    },
    {
      "inputs": [
        {
          "internalType": "address",
          "name": "_contractRegistry",
          "type": "address"
        }
      ],
      "name": "initialize",
      "outputs": [],
      "stateMutability": "nonpayable",
      "type": "function"
    },
    {
      "inputs": [
        {
          "internalType": "address",
          "name": "to",
          "type": "address"
        },
        {
          "internalType": "string",
          "name": "currency",
          "type": "string"
        },
        {
          "internalType": "uint256",
          "name": "amount",
          "type": "uint256"
        }
      ],
      "name": "mintTokenToAccount",
      "outputs": [],
      "stateMutability": "nonpayable",
      "type": "function"
    },
    {
      "inputs": [],
      "name": "owner",
      "outputs": [
        {
          "internalType": "address",
          "name": "",
          "type": "address"
        }
      ],
      "stateMutability": "view",
      "type": "function"
    },
    {
      "inputs": [],
      "name": "renounceOwnership",
      "outputs": [],
      "stateMutability": "nonpayable",
      "type": "function"
    },
    {
      "inputs": [
        {
          "internalType": "address",
          "name": "newOwner",
          "type": "address"
        }
      ],
      "name": "transferOwnership",
      "outputs": [],
      "stateMutability": "nonpayable",
      "type": "function"
    },
    {
      "inputs": [
        {
          "internalType": "address",
          "name": "srcToken",
          "type": "address"
        },
        {
          "internalType": "address",
          "name": "dstToken",
          "type": "address"
        },
        {
          "internalType": "address",
          "name": "dstReceiver",
          "type": "address"
        },
        {
          "internalType": "uint256",
          "name": "dstAmount",
          "type": "uint256"
        }
      ],
      "name": "transferToken",
      "outputs": [],
      "stateMutability": "nonpayable",
      "type": "function"
    }
  ],
  "bytecode": "0x60a0604052620f42406002556305f5e10060805234801561001f57600080fd5b50338061004657604051631e4fbdf760e01b81526000600482015260240160405180910390fd5b61004f81610055565b506100a5565b600080546001600160a01b038381166001600160a01b0319831681178455604051919092169283917f8be0079c531659141344cd1fd0a4f28419497f9722a3daafe3b4186f6b6457e09190a35050565b6080516112c46100c0600039600061048f01526112c46000f3fe608060405234801561001057600080fd5b50600436106100625760003560e01c80632c54de4f14610067578063715018a61461007c5780638da5cb5b14610084578063c4d66de8146100a3578063cda1335c146100b6578063f2fde38b146100c9575b600080fd5b61007a610075366004610f47565b6100dc565b005b61007a610971565b600054604080516001600160a01b039092168252519081900360200190f35b61007a6100b1366004610f98565b610985565b61007a6100c4366004610fbc565b6109af565b61007a6100d7366004610f98565b610e77565b6001546040805163860a551f60e01b815290516000926001600160a01b03169163860a551f9160048083019260209291908290030181865afa158015610126573d6000803e3d6000fd5b505050506040513d601f19601f8201168201806040525081019061014a9190611047565b60405163ea0d5dcd60e01b81523360048201529091506000906001600160a01b0383169063ea0d5dcd90602401602060405180830381865afa158015610194573d6000803e3d6000fd5b505050506040513d601f19601f820116820180604052508101906101b89190611064565b60405163ea0d5dcd60e01b81526001600160a01b03868116600483015291925060009184169063ea0d5dcd90602401602060405180830381865afa158015610204573d6000803e3d6000fd5b505050506040513d601f19601f820116820180604052508101906102289190611064565b90506000600160009054906101000a90046001600160a01b03166001600160a01b03166338013f026040518163ffffffff1660e01b8152600401602060405180830381865afa15801561027f573d6000803e3d6000fd5b505050506040513d601f19601f820116820180604052508101906102a39190611047565b90506000600160009054906101000a90046001600160a01b03166001600160a01b03166338013f026040518163ffffffff1660e01b8152600401602060405180830381865afa1580156102fa573d6000803e3d6000fd5b505050506040513d601f19601f8201168201806040525081019061031e9190611047565b9050600084600481111561033457610334611085565b0361033e57600080fd5b600184600481111561035257610352611085565b0361039857600083600481111561036b5761036b611085565b14158061038a5750600483600481111561038757610387611085565b14155b61039357600080fd5b6103ec565b60038460048111156103ac576103ac611085565b14806103c9575060048460048111156103c7576103c7611085565b145b156103ec5760028360048111156103e2576103e2611085565b146103ec57600080fd5b6001600160a01b0389161580159061040c57506001600160a01b03881615155b61046b5760405162461bcd60e51b815260206004820152602560248201527f45786368616e676550726f746f636f6c3a20546f6b656e20646f65736e277420604482015264195e1a5cdd60da1b60648201526084015b60405180910390fd5b6000600384600481111561048157610481611085565b1461048d5760006104c6565b7f0000000000000000000000000000000000000000000000000000000000000000600254886104bc91906110b1565b6104c691906110e4565b9050886001600160a01b03168a6001600160a01b0316036106705780156105f15760006104f382896110f8565b6040516323b872dd60e01b81523360048201526001600160a01b038b8116602483015260448201839052919250908b16906323b872dd906064016020604051808303816000875af115801561054c573d6000803e3d6000fd5b505050506040513d601f19601f82011682018060405250810190610570919061110b565b506040516323b872dd60e01b81523360048201526001600160a01b038581166024830152604482018490528b16906323b872dd906064016020604051808303816000875af11580156105c6573d6000803e3d6000fd5b505050506040513d601f19601f820116820180604052508101906105ea919061110b565b5050610965565b6040516323b872dd60e01b81523360048201526001600160a01b038981166024830152604482018990528b16906323b872dd906064016020604051808303816000875af1158015610646573d6000803e3d6000fd5b505050506040513d601f19601f8201168201806040525081019061066a919061110b565b50610965565b604051635ee0fe8b60e11b81526001600160a01b038b811660048301526000919084169063bdc1fd1690602401602060405180830381865afa1580156106ba573d6000803e3d6000fd5b505050506040513d601f19601f820116820180604052508101906106de919061112d565b604051635ee0fe8b60e11b81526001600160a01b038c8116600483015291925060009185169063bdc1fd1690602401602060405180830381865afa15801561072a573d6000803e3d6000fd5b505050506040513d601f19601f8201168201806040525081019061074e919061112d565b90508860008361075e8484611146565b6107689190611176565b905060008082126107795781610782565b610782826111a4565b90508e6001600160a01b03166379cc679033836040518363ffffffff1660e01b81526004016107c69291906001600160a01b03929092168252602082015260400190565b600060405180830381600087803b1580156107e057600080fd5b505af11580156107f4573d6000803e3d6000fd5b50505050856000146108fc57600061080c878e6110f8565b90508e6001600160a01b03166340c10f198f836040518363ffffffff1660e01b81526004016108509291906001600160a01b03929092168252602082015260400190565b600060405180830381600087803b15801561086a57600080fd5b505af115801561087e573d6000803e3d6000fd5b505050508e6001600160a01b03166340c10f198a896040518363ffffffff1660e01b81526004016108c49291906001600160a01b03929092168252602082015260400190565b600060405180830381600087803b1580156108de57600080fd5b505af11580156108f2573d6000803e3d6000fd5b505050505061095f565b6040516340c10f1960e01b81526001600160a01b038e81166004830152602482018e90528f16906340c10f1990604401600060405180830381600087803b15801561094657600080fd5b505af115801561095a573d6000803e3d6000fd5b505050505b50505050505b50505050505050505050565b610979610eb5565b6109836000610ee2565b565b61098d610eb5565b600180546001600160a01b0319166001600160a01b0392909216919091179055565b6001546040805163860a551f60e01b815290516000926001600160a01b03169163860a551f9160048083019260209291908290030181865afa1580156109f9573d6000803e3d6000fd5b505050506040513d601f19601f82011682018060405250810190610a1d9190611047565b60405163ea0d5dcd60e01b81523360048201529091506000906001600160a01b0383169063ea0d5dcd90602401602060405180830381865afa158015610a67573d6000803e3d6000fd5b505050506040513d601f19601f82011682018060405250810190610a8b9190611064565b60405163ea0d5dcd60e01b81526001600160a01b03888116600483015291925060009184169063ea0d5dcd90602401602060405180830381865afa158015610ad7573d6000803e3d6000fd5b505050506040513d601f19601f82011682018060405250810190610afb9190611064565b90506002826004811115610b1157610b11611085565b14610b2e5760405162461bcd60e51b8152600401610462906111c0565b6004816004811115610b4257610b42611085565b03610b5f5760405162461bcd60e51b8152600401610462906111c0565b60015460408051635a58fe4b60e01b815290516000926001600160a01b031691635a58fe4b9160048083019260209291908290030181865afa158015610ba9573d6000803e3d6000fd5b505050506040513d601f19601f82011682018060405250810190610bcd9190611047565b90506000816001600160a01b031663c1733f6889896040518363ffffffff1660e01b8152600401610bff929190611231565b602060405180830381865afa158015610c1c573d6000803e3d6000fd5b505050506040513d601f19601f82011682018060405250810190610c409190611047565b9050600160009054906101000a90046001600160a01b03166001600160a01b03166328a237d96040518163ffffffff1660e01b8152600401602060405180830381865afa158015610c95573d6000803e3d6000fd5b505050506040513d601f19601f82011682018060405250810190610cb99190611047565b6001600160a01b03166342fb1133338a8a6040518463ffffffff1660e01b8152600401610ce89392919061124d565b602060405180830381865afa158015610d05573d6000803e3d6000fd5b505050506040513d601f19601f82011682018060405250810190610d29919061112d565b86826001600160a01b03166318160ddd6040518163ffffffff1660e01b8152600401602060405180830381865afa158015610d68573d6000803e3d6000fd5b505050506040513d601f19601f82011682018060405250810190610d8c919061112d565b610d96919061127b565b1115610e0a5760405162461bcd60e51b815260206004820152603a60248201527f45786368616e676550726f746f636f6c3a205468652062616e6b2063616e6e6f60448201527f74206d696e74206d6f7265207468617420697473206c696d69740000000000006064820152608401610462565b6040516340c10f1960e01b81526001600160a01b038a81166004830152602482018890528216906340c10f1990604401600060405180830381600087803b158015610e5457600080fd5b505af1158015610e68573d6000803e3d6000fd5b50505050505050505050505050565b610e7f610eb5565b6001600160a01b038116610ea957604051631e4fbdf760e01b815260006004820152602401610462565b610eb281610ee2565b50565b6000546001600160a01b031633146109835760405163118cdaa760e01b8152336004820152602401610462565b600080546001600160a01b038381166001600160a01b0319831681178455604051919092169283917f8be0079c531659141344cd1fd0a4f28419497f9722a3daafe3b4186f6b6457e09190a35050565b6001600160a01b0381168114610eb257600080fd5b60008060008060808587031215610f5d57600080fd5b8435610f6881610f32565b93506020850135610f7881610f32565b92506040850135610f8881610f32565b9396929550929360600135925050565b600060208284031215610faa57600080fd5b8135610fb581610f32565b9392505050565b60008060008060608587031215610fd257600080fd5b8435610fdd81610f32565b9350602085013567ffffffffffffffff80821115610ffa57600080fd5b818701915087601f83011261100e57600080fd5b81358181111561101d57600080fd5b88602082850101111561102f57600080fd5b95986020929092019750949560400135945092505050565b60006020828403121561105957600080fd5b8151610fb581610f32565b60006020828403121561107657600080fd5b815160058110610fb557600080fd5b634e487b7160e01b600052602160045260246000fd5b634e487b7160e01b600052601160045260246000fd5b80820281158282048414176110c8576110c861109b565b92915050565b634e487b7160e01b600052601260045260246000fd5b6000826110f3576110f36110ce565b500490565b818103818111156110c8576110c861109b565b60006020828403121561111d57600080fd5b81518015158114610fb557600080fd5b60006020828403121561113f57600080fd5b5051919050565b80820260008212600160ff1b841416156111625761116261109b565b81810583148215176110c8576110c861109b565b600082611185576111856110ce565b600160ff1b82146000198414161561119f5761119f61109b565b500590565b6000600160ff1b82016111b9576111b961109b565b5060000390565b60208082526028908201527f45786368616e676550726f746f636f6c3a205468652063616c6c6572206973206040820152676e6f742062616e6b60c01b606082015260800190565b81835281816020850137506000828201602090810191909152601f909101601f19169091010190565b602081526000611245602083018486611208565b949350505050565b6001600160a01b03841681526040602082018190526000906112729083018486611208565b95945050505050565b808201808211156110c8576110c861109b56fea2646970667358221220f9823db076f48590d58cb74bc156dd61056c12400c55046e565b94c43f2c492764736f6c63430008140033",
  "linkReferences": {},
  "deployedLinkReferences": {}
}