{
	"contracts/TokenFactory.sol": {
		"TokenFactory": {
			"abi": [
				{
					"anonymous": false,
					"inputs": [
						{
							"indexed": true,
							"internalType": "address",
							"name": "previousOwner",
							"type": "address"
						},
						{
							"indexed": true,
							"internalType": "address",
							"name": "newOwner",
							"type": "address"
						}
					],
					"name": "OwnershipTransferred",
					"type": "event"
				},
				{
					"inputs": [
						{
							"internalType": "string",
							"name": "name",
							"type": "string"
						},
						{
							"internalType": "string",
							"name": "symbol",
							"type": "string"
						}
					],
					"name": "createToken",
					"outputs": [],
					"stateMutability": "nonpayable",
					"type": "function"
				},
				{
					"inputs": [
						{
							"internalType": "string",
							"name": "name",
							"type": "string"
						}
					],
					"name": "getToken",
					"outputs": [
						{
							"internalType": "address",
							"name": "",
							"type": "address"
						}
					],
					"stateMutability": "view",
					"type": "function"
				},
				{
					"inputs": [],
					"name": "owner",
					"outputs": [
						{
							"internalType": "address",
							"name": "",
							"type": "address"
						}
					],
					"stateMutability": "view",
					"type": "function"
				},
				{
					"inputs": [],
					"name": "renounceOwnership",
					"outputs": [],
					"stateMutability": "nonpayable",
					"type": "function"
				},
				{
					"inputs": [
						{
							"internalType": "address",
							"name": "newOwner",
							"type": "address"
						}
					],
					"name": "transferOwnership",
					"outputs": [],
					"stateMutability": "nonpayable",
					"type": "function"
				}
			],
			"devdoc": {
				"kind": "dev",
				"methods": {
					"owner()": {
						"details": "Returns the address of the current owner."
					},
					"renounceOwnership()": {
						"details": "Leaves the contract without owner. It will not be possible to call `onlyOwner` functions anymore. Can only be called by the current owner. NOTE: Renouncing ownership will leave the contract without an owner, thereby removing any functionality that is only available to the owner."
					},
					"transferOwnership(address)": {
						"details": "Transfers ownership of the contract to a new account (`newOwner`). Can only be called by the current owner."
					}
				},
				"version": 1
			},
			"evm": {
				"assembly": "    /* \"contracts/TokenFactory.sol\":140:753  contract TokenFactory is Ownable {... */\n  mstore(0x40, 0x80)\n  callvalue\n  dup1\n  iszero\n  tag_1\n  jumpi\n  0x00\n  dup1\n  revert\ntag_1:\n  pop\n    /* \"@openzeppelin/contracts/access/Ownable.sol\":936:968  _transferOwnership(_msgSender()) */\n  tag_4\n    /* \"@openzeppelin/contracts/access/Ownable.sol\":955:967  _msgSender() */\n  tag_5\n    /* \"@openzeppelin/contracts/access/Ownable.sol\":955:965  _msgSender */\n  shl(0x20, tag_6)\n    /* \"@openzeppelin/contracts/access/Ownable.sol\":955:967  _msgSender() */\n  0x20\n  shr\n  jump\t// in\ntag_5:\n    /* \"@openzeppelin/contracts/access/Ownable.sol\":936:954  _transferOwnership */\n  shl(0x20, tag_7)\n    /* \"@openzeppelin/contracts/access/Ownable.sol\":936:968  _transferOwnership(_msgSender()) */\n  0x20\n  shr\n  jump\t// in\ntag_4:\n    /* \"contracts/TokenFactory.sol\":140:753  contract TokenFactory is Ownable {... */\n  jump(tag_8)\n    /* \"@openzeppelin/contracts/utils/Context.sol\":640:736  function _msgSender() internal view virtual returns (address) {... */\ntag_6:\n    /* \"@openzeppelin/contracts/utils/Context.sol\":693:700  address */\n  0x00\n    /* \"@openzeppelin/contracts/utils/Context.sol\":719:729  msg.sender */\n  caller\n    /* \"@openzeppelin/contracts/utils/Context.sol\":712:729  return msg.sender */\n  swap1\n  pop\n    /* \"@openzeppelin/contracts/utils/Context.sol\":640:736  function _msgSender() internal view virtual returns (address) {... */\n  swap1\n  jump\t// out\n    /* \"@openzeppelin/contracts/access/Ownable.sol\":2433:2620  function _transferOwnership(address newOwner) internal virtual {... */\ntag_7:\n    /* \"@openzeppelin/contracts/access/Ownable.sol\":2506:2522  address oldOwner */\n  0x00\n    /* \"@openzeppelin/contracts/access/Ownable.sol\":2525:2531  _owner */\n  dup1\n  0x00\n  swap1\n  sload\n  swap1\n  0x0100\n  exp\n  swap1\n  div\n  0xffffffffffffffffffffffffffffffffffffffff\n  and\n    /* \"@openzeppelin/contracts/access/Ownable.sol\":2506:2531  address oldOwner = _owner */\n  swap1\n  pop\n    /* \"@openzeppelin/contracts/access/Ownable.sol\":2550:2558  newOwner */\n  dup2\n    /* \"@openzeppelin/contracts/access/Ownable.sol\":2541:2547  _owner */\n  0x00\n  dup1\n    /* \"@openzeppelin/contracts/access/Ownable.sol\":2541:2558  _owner = newOwner */\n  0x0100\n  exp\n  dup2\n  sload\n  dup2\n  0xffffffffffffffffffffffffffffffffffffffff\n  mul\n  not\n  and\n  swap1\n  dup4\n  0xffffffffffffffffffffffffffffffffffffffff\n  and\n  mul\n  or\n  swap1\n  sstore\n  pop\n    /* \"@openzeppelin/contracts/access/Ownable.sol\":2604:2612  newOwner */\n  dup2\n    /* \"@openzeppelin/contracts/access/Ownable.sol\":2573:2613  OwnershipTransferred(oldOwner, newOwner) */\n  0xffffffffffffffffffffffffffffffffffffffff\n  and\n    /* \"@openzeppelin/contracts/access/Ownable.sol\":2594:2602  oldOwner */\n  dup2\n    /* \"@openzeppelin/contracts/access/Ownable.sol\":2573:2613  OwnershipTransferred(oldOwner, newOwner) */\n  0xffffffffffffffffffffffffffffffffffffffff\n  and\n  0x8be0079c531659141344cd1fd0a4f28419497f9722a3daafe3b4186f6b6457e0\n  mload(0x40)\n  mload(0x40)\n  dup1\n  swap2\n  sub\n  swap1\n  log3\n    /* \"@openzeppelin/contracts/access/Ownable.sol\":2496:2620  {... */\n  pop\n    /* \"@openzeppelin/contracts/access/Ownable.sol\":2433:2620  function _transferOwnership(address newOwner) internal virtual {... */\n  pop\n  jump\t// out\n    /* \"contracts/TokenFactory.sol\":140:753  contract TokenFactory is Ownable {... */\ntag_8:\n  dataSize(sub_0)\n  dup1\n  dataOffset(sub_0)\n  0x00\n  codecopy\n  0x00\n  return\nstop\n\nsub_0: assembly {\n        /* \"contracts/TokenFactory.sol\":140:753  contract TokenFactory is Ownable {... */\n      mstore(0x40, 0x80)\n      callvalue\n      dup1\n      iszero\n      tag_1\n      jumpi\n      0x00\n      dup1\n      revert\n    tag_1:\n      pop\n      jumpi(tag_2, lt(calldatasize, 0x04))\n      shr(0xe0, calldataload(0x00))\n      dup1\n      0x2f2f2d56\n      eq\n      tag_3\n      jumpi\n      dup1\n      0x715018a6\n      eq\n      tag_4\n      jumpi\n      dup1\n      0x8da5cb5b\n      eq\n      tag_5\n      jumpi\n      dup1\n      0xc1733f68\n      eq\n      tag_6\n      jumpi\n      dup1\n      0xf2fde38b\n      eq\n      tag_7\n      jumpi\n    tag_2:\n      0x00\n      dup1\n      revert\n        /* \"contracts/TokenFactory.sol\":360:751  function createToken(string calldata name, string calldata symbol) public onlyOwner{... */\n    tag_3:\n      tag_8\n      0x04\n      dup1\n      calldatasize\n      sub\n      dup2\n      add\n      swap1\n      tag_9\n      swap2\n      swap1\n      tag_10\n      jump\t// in\n    tag_9:\n      tag_11\n      jump\t// in\n    tag_8:\n      stop\n        /* \"@openzeppelin/contracts/access/Ownable.sol\":1831:1932  function renounceOwnership() public virtual onlyOwner {... */\n    tag_4:\n      tag_12\n      tag_13\n      jump\t// in\n    tag_12:\n      stop\n        /* \"@openzeppelin/contracts/access/Ownable.sol\":1201:1286  function owner() public view virtual returns (address) {... */\n    tag_5:\n      tag_14\n      tag_15\n      jump\t// in\n    tag_14:\n      mload(0x40)\n      tag_16\n      swap2\n      swap1\n      tag_17\n      jump\t// in\n    tag_16:\n      mload(0x40)\n      dup1\n      swap2\n      sub\n      swap1\n      return\n        /* \"contracts/TokenFactory.sol\":234:354  function getToken(string calldata name) public view returns (address) {... */\n    tag_6:\n      tag_18\n      0x04\n      dup1\n      calldatasize\n      sub\n      dup2\n      add\n      swap1\n      tag_19\n      swap2\n      swap1\n      tag_20\n      jump\t// in\n    tag_19:\n      tag_21\n      jump\t// in\n    tag_18:\n      mload(0x40)\n      tag_22\n      swap2\n      swap1\n      tag_17\n      jump\t// in\n    tag_22:\n      mload(0x40)\n      dup1\n      swap2\n      sub\n      swap1\n      return\n        /* \"@openzeppelin/contracts/access/Ownable.sol\":2081:2279  function transferOwnership(address newOwner) public virtual onlyOwner {... */\n    tag_7:\n      tag_23\n      0x04\n      dup1\n      calldatasize\n      sub\n      dup2\n      add\n      swap1\n      tag_24\n      swap2\n      swap1\n      tag_25\n      jump\t// in\n    tag_24:\n      tag_26\n      jump\t// in\n    tag_23:\n      stop\n        /* \"contracts/TokenFactory.sol\":360:751  function createToken(string calldata name, string calldata symbol) public onlyOwner{... */\n    tag_11:\n        /* \"@openzeppelin/contracts/access/Ownable.sol\":1094:1107  _checkOwner() */\n      tag_28\n        /* \"@openzeppelin/contracts/access/Ownable.sol\":1094:1105  _checkOwner */\n      tag_29\n        /* \"@openzeppelin/contracts/access/Ownable.sol\":1094:1107  _checkOwner() */\n      jump\t// in\n    tag_28:\n        /* \"contracts/TokenFactory.sol\":499:500  0 */\n      0x00\n        /* \"contracts/TokenFactory.sol\":461:501  tokenSymbolToAddress[name] == address(0) */\n      0xffffffffffffffffffffffffffffffffffffffff\n      and\n        /* \"contracts/TokenFactory.sol\":461:481  tokenSymbolToAddress */\n      0x01\n        /* \"contracts/TokenFactory.sol\":482:486  name */\n      dup6\n      dup6\n        /* \"contracts/TokenFactory.sol\":461:487  tokenSymbolToAddress[name] */\n      mload(0x40)\n      tag_31\n      swap3\n      swap2\n      swap1\n      tag_32\n      jump\t// in\n    tag_31:\n      swap1\n      dup2\n      mstore\n      0x20\n      add\n      mload(0x40)\n      dup1\n      swap2\n      sub\n      swap1\n      keccak256\n      0x00\n      swap1\n      sload\n      swap1\n      0x0100\n      exp\n      swap1\n      div\n      0xffffffffffffffffffffffffffffffffffffffff\n      and\n        /* \"contracts/TokenFactory.sol\":461:501  tokenSymbolToAddress[name] == address(0) */\n      0xffffffffffffffffffffffffffffffffffffffff\n      and\n      eq\n        /* \"contracts/TokenFactory.sol\":453:540  require(tokenSymbolToAddress[name] == address(0), \"TokenFactory: Token already exists\") */\n      tag_33\n      jumpi\n      mload(0x40)\n      0x08c379a000000000000000000000000000000000000000000000000000000000\n      dup2\n      mstore\n      0x04\n      add\n      tag_34\n      swap1\n      tag_35\n      jump\t// in\n    tag_34:\n      mload(0x40)\n      dup1\n      swap2\n      sub\n      swap1\n      revert\n    tag_33:\n        /* \"contracts/TokenFactory.sol\":550:564  Token newToken */\n      0x00\n        /* \"contracts/TokenFactory.sol\":577:581  name */\n      dup5\n      dup5\n        /* \"contracts/TokenFactory.sol\":583:589  symbol */\n      dup5\n      dup5\n        /* \"contracts/TokenFactory.sol\":567:590  new Token(name, symbol) */\n      mload(0x40)\n      tag_36\n      swap1\n      tag_37\n      jump\t// in\n    tag_36:\n      tag_38\n      swap5\n      swap4\n      swap3\n      swap2\n      swap1\n      tag_39\n      jump\t// in\n    tag_38:\n      mload(0x40)\n      dup1\n      swap2\n      sub\n      swap1\n      0x00\n      create\n      dup1\n      iszero\n      dup1\n      iszero\n      tag_40\n      jumpi\n      returndatasize\n      0x00\n      dup1\n      returndatacopy\n      revert(0x00, returndatasize)\n    tag_40:\n      pop\n        /* \"contracts/TokenFactory.sol\":550:590  Token newToken = new Token(name, symbol) */\n      swap1\n      pop\n        /* \"contracts/TokenFactory.sol\":637:638  0 */\n      0x00\n        /* \"contracts/TokenFactory.sol\":608:639  address(newToken) != address(0) */\n      0xffffffffffffffffffffffffffffffffffffffff\n      and\n        /* \"contracts/TokenFactory.sol\":616:624  newToken */\n      dup2\n        /* \"contracts/TokenFactory.sol\":608:639  address(newToken) != address(0) */\n      0xffffffffffffffffffffffffffffffffffffffff\n      and\n      sub\n        /* \"contracts/TokenFactory.sol\":600:688  require(address(newToken) != address(0), \"TokenFactory: Token deployment unsuccessfull\") */\n      tag_41\n      jumpi\n      mload(0x40)\n      0x08c379a000000000000000000000000000000000000000000000000000000000\n      dup2\n      mstore\n      0x04\n      add\n      tag_42\n      swap1\n      tag_43\n      jump\t// in\n    tag_42:\n      mload(0x40)\n      dup1\n      swap2\n      sub\n      swap1\n      revert\n    tag_41:\n        /* \"contracts/TokenFactory.sol\":735:743  newToken */\n      dup1\n        /* \"contracts/TokenFactory.sol\":698:718  tokenSymbolToAddress */\n      0x01\n        /* \"contracts/TokenFactory.sol\":719:723  name */\n      dup7\n      dup7\n        /* \"contracts/TokenFactory.sol\":698:724  tokenSymbolToAddress[name] */\n      mload(0x40)\n      tag_44\n      swap3\n      swap2\n      swap1\n      tag_32\n      jump\t// in\n    tag_44:\n      swap1\n      dup2\n      mstore\n      0x20\n      add\n      mload(0x40)\n      dup1\n      swap2\n      sub\n      swap1\n      keccak256\n      0x00\n        /* \"contracts/TokenFactory.sol\":698:744  tokenSymbolToAddress[name] = address(newToken) */\n      0x0100\n      exp\n      dup2\n      sload\n      dup2\n      0xffffffffffffffffffffffffffffffffffffffff\n      mul\n      not\n      and\n      swap1\n      dup4\n      0xffffffffffffffffffffffffffffffffffffffff\n      and\n      mul\n      or\n      swap1\n      sstore\n      pop\n        /* \"contracts/TokenFactory.sol\":443:751  {... */\n      pop\n        /* \"contracts/TokenFactory.sol\":360:751  function createToken(string calldata name, string calldata symbol) public onlyOwner{... */\n      pop\n      pop\n      pop\n      pop\n      jump\t// out\n        /* \"@openzeppelin/contracts/access/Ownable.sol\":1831:1932  function renounceOwnership() public virtual onlyOwner {... */\n    tag_13:\n        /* \"@openzeppelin/contracts/access/Ownable.sol\":1094:1107  _checkOwner() */\n      tag_46\n        /* \"@openzeppelin/contracts/access/Ownable.sol\":1094:1105  _checkOwner */\n      tag_29\n        /* \"@openzeppelin/contracts/access/Ownable.sol\":1094:1107  _checkOwner() */\n      jump\t// in\n    tag_46:\n        /* \"@openzeppelin/contracts/access/Ownable.sol\":1895:1925  _transferOwnership(address(0)) */\n      tag_48\n        /* \"@openzeppelin/contracts/access/Ownable.sol\":1922:1923  0 */\n      0x00\n        /* \"@openzeppelin/contracts/access/Ownable.sol\":1895:1913  _transferOwnership */\n      tag_49\n        /* \"@openzeppelin/contracts/access/Ownable.sol\":1895:1925  _transferOwnership(address(0)) */\n      jump\t// in\n    tag_48:\n        /* \"@openzeppelin/contracts/access/Ownable.sol\":1831:1932  function renounceOwnership() public virtual onlyOwner {... */\n      jump\t// out\n        /* \"@openzeppelin/contracts/access/Ownable.sol\":1201:1286  function owner() public view virtual returns (address) {... */\n    tag_15:\n        /* \"@openzeppelin/contracts/access/Ownable.sol\":1247:1254  address */\n      0x00\n        /* \"@openzeppelin/contracts/access/Ownable.sol\":1273:1279  _owner */\n      dup1\n      0x00\n      swap1\n      sload\n      swap1\n      0x0100\n      exp\n      swap1\n      div\n      0xffffffffffffffffffffffffffffffffffffffff\n      and\n        /* \"@openzeppelin/contracts/access/Ownable.sol\":1266:1279  return _owner */\n      swap1\n      pop\n        /* \"@openzeppelin/contracts/access/Ownable.sol\":1201:1286  function owner() public view virtual returns (address) {... */\n      swap1\n      jump\t// out\n        /* \"contracts/TokenFactory.sol\":234:354  function getToken(string calldata name) public view returns (address) {... */\n    tag_21:\n        /* \"contracts/TokenFactory.sol\":295:302  address */\n      0x00\n        /* \"contracts/TokenFactory.sol\":321:341  tokenSymbolToAddress */\n      0x01\n        /* \"contracts/TokenFactory.sol\":342:346  name */\n      dup4\n      dup4\n        /* \"contracts/TokenFactory.sol\":321:347  tokenSymbolToAddress[name] */\n      mload(0x40)\n      tag_52\n      swap3\n      swap2\n      swap1\n      tag_32\n      jump\t// in\n    tag_52:\n      swap1\n      dup2\n      mstore\n      0x20\n      add\n      mload(0x40)\n      dup1\n      swap2\n      sub\n      swap1\n      keccak256\n      0x00\n      swap1\n      sload\n      swap1\n      0x0100\n      exp\n      swap1\n      div\n      0xffffffffffffffffffffffffffffffffffffffff\n      and\n        /* \"contracts/TokenFactory.sol\":314:347  return tokenSymbolToAddress[name] */\n      swap1\n      pop\n        /* \"contracts/TokenFactory.sol\":234:354  function getToken(string calldata name) public view returns (address) {... */\n      swap3\n      swap2\n      pop\n      pop\n      jump\t// out\n        /* \"@openzeppelin/contracts/access/Ownable.sol\":2081:2279  function transferOwnership(address newOwner) public virtual onlyOwner {... */\n    tag_26:\n        /* \"@openzeppelin/contracts/access/Ownable.sol\":1094:1107  _checkOwner() */\n      tag_54\n        /* \"@openzeppelin/contracts/access/Ownable.sol\":1094:1105  _checkOwner */\n      tag_29\n        /* \"@openzeppelin/contracts/access/Ownable.sol\":1094:1107  _checkOwner() */\n      jump\t// in\n    tag_54:\n        /* \"@openzeppelin/contracts/access/Ownable.sol\":2189:2190  0 */\n      0x00\n        /* \"@openzeppelin/contracts/access/Ownable.sol\":2169:2191  newOwner != address(0) */\n      0xffffffffffffffffffffffffffffffffffffffff\n      and\n        /* \"@openzeppelin/contracts/access/Ownable.sol\":2169:2177  newOwner */\n      dup2\n        /* \"@openzeppelin/contracts/access/Ownable.sol\":2169:2191  newOwner != address(0) */\n      0xffffffffffffffffffffffffffffffffffffffff\n      and\n      sub\n        /* \"@openzeppelin/contracts/access/Ownable.sol\":2161:2234  require(newOwner != address(0), \"Ownable: new owner is the zero address\") */\n      tag_56\n      jumpi\n      mload(0x40)\n      0x08c379a000000000000000000000000000000000000000000000000000000000\n      dup2\n      mstore\n      0x04\n      add\n      tag_57\n      swap1\n      tag_58\n      jump\t// in\n    tag_57:\n      mload(0x40)\n      dup1\n      swap2\n      sub\n      swap1\n      revert\n    tag_56:\n        /* \"@openzeppelin/contracts/access/Ownable.sol\":2244:2272  _transferOwnership(newOwner) */\n      tag_59\n        /* \"@openzeppelin/contracts/access/Ownable.sol\":2263:2271  newOwner */\n      dup2\n        /* \"@openzeppelin/contracts/access/Ownable.sol\":2244:2262  _transferOwnership */\n      tag_49\n        /* \"@openzeppelin/contracts/access/Ownable.sol\":2244:2272  _transferOwnership(newOwner) */\n      jump\t// in\n    tag_59:\n        /* \"@openzeppelin/contracts/access/Ownable.sol\":2081:2279  function transferOwnership(address newOwner) public virtual onlyOwner {... */\n      pop\n      jump\t// out\n        /* \"@openzeppelin/contracts/access/Ownable.sol\":1359:1489  function _checkOwner() internal view virtual {... */\n    tag_29:\n        /* \"@openzeppelin/contracts/access/Ownable.sol\":1433:1445  _msgSender() */\n      tag_61\n        /* \"@openzeppelin/contracts/access/Ownable.sol\":1433:1443  _msgSender */\n      tag_62\n        /* \"@openzeppelin/contracts/access/Ownable.sol\":1433:1445  _msgSender() */\n      jump\t// in\n    tag_61:\n        /* \"@openzeppelin/contracts/access/Ownable.sol\":1422:1445  owner() == _msgSender() */\n      0xffffffffffffffffffffffffffffffffffffffff\n      and\n        /* \"@openzeppelin/contracts/access/Ownable.sol\":1422:1429  owner() */\n      tag_63\n        /* \"@openzeppelin/contracts/access/Ownable.sol\":1422:1427  owner */\n      tag_15\n        /* \"@openzeppelin/contracts/access/Ownable.sol\":1422:1429  owner() */\n      jump\t// in\n    tag_63:\n        /* \"@openzeppelin/contracts/access/Ownable.sol\":1422:1445  owner() == _msgSender() */\n      0xffffffffffffffffffffffffffffffffffffffff\n      and\n      eq\n        /* \"@openzeppelin/contracts/access/Ownable.sol\":1414:1482  require(owner() == _msgSender(), \"Ownable: caller is not the owner\") */\n      tag_64\n      jumpi\n      mload(0x40)\n      0x08c379a000000000000000000000000000000000000000000000000000000000\n      dup2\n      mstore\n      0x04\n      add\n      tag_65\n      swap1\n      tag_66\n      jump\t// in\n    tag_65:\n      mload(0x40)\n      dup1\n      swap2\n      sub\n      swap1\n      revert\n    tag_64:\n        /* \"@openzeppelin/contracts/access/Ownable.sol\":1359:1489  function _checkOwner() internal view virtual {... */\n      jump\t// out\n        /* \"@openzeppelin/contracts/access/Ownable.sol\":2433:2620  function _transferOwnership(address newOwner) internal virtual {... */\n    tag_49:\n        /* \"@openzeppelin/contracts/access/Ownable.sol\":2506:2522  address oldOwner */\n      0x00\n        /* \"@openzeppelin/contracts/access/Ownable.sol\":2525:2531  _owner */\n      dup1\n      0x00\n      swap1\n      sload\n      swap1\n      0x0100\n      exp\n      swap1\n      div\n      0xffffffffffffffffffffffffffffffffffffffff\n      and\n        /* \"@openzeppelin/contracts/access/Ownable.sol\":2506:2531  address oldOwner = _owner */\n      swap1\n      pop\n        /* \"@openzeppelin/contracts/access/Ownable.sol\":2550:2558  newOwner */\n      dup2\n        /* \"@openzeppelin/contracts/access/Ownable.sol\":2541:2547  _owner */\n      0x00\n      dup1\n        /* \"@openzeppelin/contracts/access/Ownable.sol\":2541:2558  _owner = newOwner */\n      0x0100\n      exp\n      dup2\n      sload\n      dup2\n      0xffffffffffffffffffffffffffffffffffffffff\n      mul\n      not\n      and\n      swap1\n      dup4\n      0xffffffffffffffffffffffffffffffffffffffff\n      and\n      mul\n      or\n      swap1\n      sstore\n      pop\n        /* \"@openzeppelin/contracts/access/Ownable.sol\":2604:2612  newOwner */\n      dup2\n        /* \"@openzeppelin/contracts/access/Ownable.sol\":2573:2613  OwnershipTransferred(oldOwner, newOwner) */\n      0xffffffffffffffffffffffffffffffffffffffff\n      and\n        /* \"@openzeppelin/contracts/access/Ownable.sol\":2594:2602  oldOwner */\n      dup2\n        /* \"@openzeppelin/contracts/access/Ownable.sol\":2573:2613  OwnershipTransferred(oldOwner, newOwner) */\n      0xffffffffffffffffffffffffffffffffffffffff\n      and\n      0x8be0079c531659141344cd1fd0a4f28419497f9722a3daafe3b4186f6b6457e0\n      mload(0x40)\n      mload(0x40)\n      dup1\n      swap2\n      sub\n      swap1\n      log3\n        /* \"@openzeppelin/contracts/access/Ownable.sol\":2496:2620  {... */\n      pop\n        /* \"@openzeppelin/contracts/access/Ownable.sol\":2433:2620  function _transferOwnership(address newOwner) internal virtual {... */\n      pop\n      jump\t// out\n        /* \"@openzeppelin/contracts/utils/Context.sol\":640:736  function _msgSender() internal view virtual returns (address) {... */\n    tag_62:\n        /* \"@openzeppelin/contracts/utils/Context.sol\":693:700  address */\n      0x00\n        /* \"@openzeppelin/contracts/utils/Context.sol\":719:729  msg.sender */\n      caller\n        /* \"@openzeppelin/contracts/utils/Context.sol\":712:729  return msg.sender */\n      swap1\n      pop\n        /* \"@openzeppelin/contracts/utils/Context.sol\":640:736  function _msgSender() internal view virtual returns (address) {... */\n      swap1\n      jump\t// out\n    tag_37:\n      dataSize(sub_0)\n      dup1\n      dataOffset(sub_0)\n      dup4\n      codecopy\n      add\n      swap1\n      jump\t// out\n        /* \"#utility.yul\":88:205   */\n    tag_70:\n        /* \"#utility.yul\":197:198   */\n      0x00\n        /* \"#utility.yul\":194:195   */\n      dup1\n        /* \"#utility.yul\":187:199   */\n      revert\n        /* \"#utility.yul\":211:328   */\n    tag_71:\n        /* \"#utility.yul\":320:321   */\n      0x00\n        /* \"#utility.yul\":317:318   */\n      dup1\n        /* \"#utility.yul\":310:322   */\n      revert\n        /* \"#utility.yul\":334:451   */\n    tag_72:\n        /* \"#utility.yul\":443:444   */\n      0x00\n        /* \"#utility.yul\":440:441   */\n      dup1\n        /* \"#utility.yul\":433:445   */\n      revert\n        /* \"#utility.yul\":457:574   */\n    tag_73:\n        /* \"#utility.yul\":566:567   */\n      0x00\n        /* \"#utility.yul\":563:564   */\n      dup1\n        /* \"#utility.yul\":556:568   */\n      revert\n        /* \"#utility.yul\":580:697   */\n    tag_74:\n        /* \"#utility.yul\":689:690   */\n      0x00\n        /* \"#utility.yul\":686:687   */\n      dup1\n        /* \"#utility.yul\":679:691   */\n      revert\n        /* \"#utility.yul\":717:1270   */\n    tag_75:\n        /* \"#utility.yul\":775:783   */\n      0x00\n        /* \"#utility.yul\":785:791   */\n      dup1\n        /* \"#utility.yul\":835:838   */\n      dup4\n        /* \"#utility.yul\":828:832   */\n      0x1f\n        /* \"#utility.yul\":820:826   */\n      dup5\n        /* \"#utility.yul\":816:833   */\n      add\n        /* \"#utility.yul\":812:839   */\n      slt\n        /* \"#utility.yul\":802:924   */\n      tag_103\n      jumpi\n        /* \"#utility.yul\":843:922   */\n      tag_104\n      tag_72\n      jump\t// in\n    tag_104:\n        /* \"#utility.yul\":802:924   */\n    tag_103:\n        /* \"#utility.yul\":956:962   */\n      dup3\n        /* \"#utility.yul\":943:963   */\n      calldataload\n        /* \"#utility.yul\":933:963   */\n      swap1\n      pop\n        /* \"#utility.yul\":986:1004   */\n      0xffffffffffffffff\n        /* \"#utility.yul\":978:984   */\n      dup2\n        /* \"#utility.yul\":975:1005   */\n      gt\n        /* \"#utility.yul\":972:1089   */\n      iszero\n      tag_105\n      jumpi\n        /* \"#utility.yul\":1008:1087   */\n      tag_106\n      tag_73\n      jump\t// in\n    tag_106:\n        /* \"#utility.yul\":972:1089   */\n    tag_105:\n        /* \"#utility.yul\":1122:1126   */\n      0x20\n        /* \"#utility.yul\":1114:1120   */\n      dup4\n        /* \"#utility.yul\":1110:1127   */\n      add\n        /* \"#utility.yul\":1098:1127   */\n      swap2\n      pop\n        /* \"#utility.yul\":1176:1179   */\n      dup4\n        /* \"#utility.yul\":1168:1172   */\n      0x01\n        /* \"#utility.yul\":1160:1166   */\n      dup3\n        /* \"#utility.yul\":1156:1173   */\n      mul\n        /* \"#utility.yul\":1146:1154   */\n      dup4\n        /* \"#utility.yul\":1142:1174   */\n      add\n        /* \"#utility.yul\":1139:1180   */\n      gt\n        /* \"#utility.yul\":1136:1264   */\n      iszero\n      tag_107\n      jumpi\n        /* \"#utility.yul\":1183:1262   */\n      tag_108\n      tag_74\n      jump\t// in\n    tag_108:\n        /* \"#utility.yul\":1136:1264   */\n    tag_107:\n        /* \"#utility.yul\":717:1270   */\n      swap3\n      pop\n      swap3\n      swap1\n      pop\n      jump\t// out\n        /* \"#utility.yul\":1276:2150   */\n    tag_10:\n        /* \"#utility.yul\":1368:1374   */\n      0x00\n        /* \"#utility.yul\":1376:1382   */\n      dup1\n        /* \"#utility.yul\":1384:1390   */\n      0x00\n        /* \"#utility.yul\":1392:1398   */\n      dup1\n        /* \"#utility.yul\":1441:1443   */\n      0x40\n        /* \"#utility.yul\":1429:1438   */\n      dup6\n        /* \"#utility.yul\":1420:1427   */\n      dup8\n        /* \"#utility.yul\":1416:1439   */\n      sub\n        /* \"#utility.yul\":1412:1444   */\n      slt\n        /* \"#utility.yul\":1409:1528   */\n      iszero\n      tag_110\n      jumpi\n        /* \"#utility.yul\":1447:1526   */\n      tag_111\n      tag_70\n      jump\t// in\n    tag_111:\n        /* \"#utility.yul\":1409:1528   */\n    tag_110:\n        /* \"#utility.yul\":1595:1596   */\n      0x00\n        /* \"#utility.yul\":1584:1593   */\n      dup6\n        /* \"#utility.yul\":1580:1597   */\n      add\n        /* \"#utility.yul\":1567:1598   */\n      calldataload\n        /* \"#utility.yul\":1625:1643   */\n      0xffffffffffffffff\n        /* \"#utility.yul\":1617:1623   */\n      dup2\n        /* \"#utility.yul\":1614:1644   */\n      gt\n        /* \"#utility.yul\":1611:1728   */\n      iszero\n      tag_112\n      jumpi\n        /* \"#utility.yul\":1647:1726   */\n      tag_113\n      tag_71\n      jump\t// in\n    tag_113:\n        /* \"#utility.yul\":1611:1728   */\n    tag_112:\n        /* \"#utility.yul\":1760:1825   */\n      tag_114\n        /* \"#utility.yul\":1817:1824   */\n      dup8\n        /* \"#utility.yul\":1808:1814   */\n      dup3\n        /* \"#utility.yul\":1797:1806   */\n      dup9\n        /* \"#utility.yul\":1793:1815   */\n      add\n        /* \"#utility.yul\":1760:1825   */\n      tag_75\n      jump\t// in\n    tag_114:\n        /* \"#utility.yul\":1742:1825   */\n      swap5\n      pop\n      swap5\n      pop\n        /* \"#utility.yul\":1538:1835   */\n      pop\n        /* \"#utility.yul\":1902:1904   */\n      0x20\n        /* \"#utility.yul\":1891:1900   */\n      dup6\n        /* \"#utility.yul\":1887:1905   */\n      add\n        /* \"#utility.yul\":1874:1906   */\n      calldataload\n        /* \"#utility.yul\":1933:1951   */\n      0xffffffffffffffff\n        /* \"#utility.yul\":1925:1931   */\n      dup2\n        /* \"#utility.yul\":1922:1952   */\n      gt\n        /* \"#utility.yul\":1919:2036   */\n      iszero\n      tag_115\n      jumpi\n        /* \"#utility.yul\":1955:2034   */\n      tag_116\n      tag_71\n      jump\t// in\n    tag_116:\n        /* \"#utility.yul\":1919:2036   */\n    tag_115:\n        /* \"#utility.yul\":2068:2133   */\n      tag_117\n        /* \"#utility.yul\":2125:2132   */\n      dup8\n        /* \"#utility.yul\":2116:2122   */\n      dup3\n        /* \"#utility.yul\":2105:2114   */\n      dup9\n        /* \"#utility.yul\":2101:2123   */\n      add\n        /* \"#utility.yul\":2068:2133   */\n      tag_75\n      jump\t// in\n    tag_117:\n        /* \"#utility.yul\":2050:2133   */\n      swap3\n      pop\n      swap3\n      pop\n        /* \"#utility.yul\":1845:2143   */\n      pop\n        /* \"#utility.yul\":1276:2150   */\n      swap3\n      swap6\n      swap2\n      swap5\n      pop\n      swap3\n      pop\n      jump\t// out\n        /* \"#utility.yul\":2156:2282   */\n    tag_76:\n        /* \"#utility.yul\":2193:2200   */\n      0x00\n        /* \"#utility.yul\":2233:2275   */\n      0xffffffffffffffffffffffffffffffffffffffff\n        /* \"#utility.yul\":2226:2231   */\n      dup3\n        /* \"#utility.yul\":2222:2276   */\n      and\n        /* \"#utility.yul\":2211:2276   */\n      swap1\n      pop\n        /* \"#utility.yul\":2156:2282   */\n      swap2\n      swap1\n      pop\n      jump\t// out\n        /* \"#utility.yul\":2288:2384   */\n    tag_77:\n        /* \"#utility.yul\":2325:2332   */\n      0x00\n        /* \"#utility.yul\":2354:2378   */\n      tag_120\n        /* \"#utility.yul\":2372:2377   */\n      dup3\n        /* \"#utility.yul\":2354:2378   */\n      tag_76\n      jump\t// in\n    tag_120:\n        /* \"#utility.yul\":2343:2378   */\n      swap1\n      pop\n        /* \"#utility.yul\":2288:2384   */\n      swap2\n      swap1\n      pop\n      jump\t// out\n        /* \"#utility.yul\":2390:2508   */\n    tag_78:\n        /* \"#utility.yul\":2477:2501   */\n      tag_122\n        /* \"#utility.yul\":2495:2500   */\n      dup2\n        /* \"#utility.yul\":2477:2501   */\n      tag_77\n      jump\t// in\n    tag_122:\n        /* \"#utility.yul\":2472:2475   */\n      dup3\n        /* \"#utility.yul\":2465:2502   */\n      mstore\n        /* \"#utility.yul\":2390:2508   */\n      pop\n      pop\n      jump\t// out\n        /* \"#utility.yul\":2514:2736   */\n    tag_17:\n        /* \"#utility.yul\":2607:2611   */\n      0x00\n        /* \"#utility.yul\":2645:2647   */\n      0x20\n        /* \"#utility.yul\":2634:2643   */\n      dup3\n        /* \"#utility.yul\":2630:2648   */\n      add\n        /* \"#utility.yul\":2622:2648   */\n      swap1\n      pop\n        /* \"#utility.yul\":2658:2729   */\n      tag_124\n        /* \"#utility.yul\":2726:2727   */\n      0x00\n        /* \"#utility.yul\":2715:2724   */\n      dup4\n        /* \"#utility.yul\":2711:2728   */\n      add\n        /* \"#utility.yul\":2702:2708   */\n      dup5\n        /* \"#utility.yul\":2658:2729   */\n      tag_78\n      jump\t// in\n    tag_124:\n        /* \"#utility.yul\":2514:2736   */\n      swap3\n      swap2\n      pop\n      pop\n      jump\t// out\n        /* \"#utility.yul\":2742:3271   */\n    tag_20:\n        /* \"#utility.yul\":2813:2819   */\n      0x00\n        /* \"#utility.yul\":2821:2827   */\n      dup1\n        /* \"#utility.yul\":2870:2872   */\n      0x20\n        /* \"#utility.yul\":2858:2867   */\n      dup4\n        /* \"#utility.yul\":2849:2856   */\n      dup6\n        /* \"#utility.yul\":2845:2868   */\n      sub\n        /* \"#utility.yul\":2841:2873   */\n      slt\n        /* \"#utility.yul\":2838:2957   */\n      iszero\n      tag_126\n      jumpi\n        /* \"#utility.yul\":2876:2955   */\n      tag_127\n      tag_70\n      jump\t// in\n    tag_127:\n        /* \"#utility.yul\":2838:2957   */\n    tag_126:\n        /* \"#utility.yul\":3024:3025   */\n      0x00\n        /* \"#utility.yul\":3013:3022   */\n      dup4\n        /* \"#utility.yul\":3009:3026   */\n      add\n        /* \"#utility.yul\":2996:3027   */\n      calldataload\n        /* \"#utility.yul\":3054:3072   */\n      0xffffffffffffffff\n        /* \"#utility.yul\":3046:3052   */\n      dup2\n        /* \"#utility.yul\":3043:3073   */\n      gt\n        /* \"#utility.yul\":3040:3157   */\n      iszero\n      tag_128\n      jumpi\n        /* \"#utility.yul\":3076:3155   */\n      tag_129\n      tag_71\n      jump\t// in\n    tag_129:\n        /* \"#utility.yul\":3040:3157   */\n    tag_128:\n        /* \"#utility.yul\":3189:3254   */\n      tag_130\n        /* \"#utility.yul\":3246:3253   */\n      dup6\n        /* \"#utility.yul\":3237:3243   */\n      dup3\n        /* \"#utility.yul\":3226:3235   */\n      dup7\n        /* \"#utility.yul\":3222:3244   */\n      add\n        /* \"#utility.yul\":3189:3254   */\n      tag_75\n      jump\t// in\n    tag_130:\n        /* \"#utility.yul\":3171:3254   */\n      swap3\n      pop\n      swap3\n      pop\n        /* \"#utility.yul\":2967:3264   */\n      pop\n        /* \"#utility.yul\":2742:3271   */\n      swap3\n      pop\n      swap3\n      swap1\n      pop\n      jump\t// out\n        /* \"#utility.yul\":3277:3399   */\n    tag_79:\n        /* \"#utility.yul\":3350:3374   */\n      tag_132\n        /* \"#utility.yul\":3368:3373   */\n      dup2\n        /* \"#utility.yul\":3350:3374   */\n      tag_77\n      jump\t// in\n    tag_132:\n        /* \"#utility.yul\":3343:3348   */\n      dup2\n        /* \"#utility.yul\":3340:3375   */\n      eq\n        /* \"#utility.yul\":3330:3393   */\n      tag_133\n      jumpi\n        /* \"#utility.yul\":3389:3390   */\n      0x00\n        /* \"#utility.yul\":3386:3387   */\n      dup1\n        /* \"#utility.yul\":3379:3391   */\n      revert\n        /* \"#utility.yul\":3330:3393   */\n    tag_133:\n        /* \"#utility.yul\":3277:3399   */\n      pop\n      jump\t// out\n        /* \"#utility.yul\":3405:3544   */\n    tag_80:\n        /* \"#utility.yul\":3451:3456   */\n      0x00\n        /* \"#utility.yul\":3489:3495   */\n      dup2\n        /* \"#utility.yul\":3476:3496   */\n      calldataload\n        /* \"#utility.yul\":3467:3496   */\n      swap1\n      pop\n        /* \"#utility.yul\":3505:3538   */\n      tag_135\n        /* \"#utility.yul\":3532:3537   */\n      dup2\n        /* \"#utility.yul\":3505:3538   */\n      tag_79\n      jump\t// in\n    tag_135:\n        /* \"#utility.yul\":3405:3544   */\n      swap3\n      swap2\n      pop\n      pop\n      jump\t// out\n        /* \"#utility.yul\":3550:3879   */\n    tag_25:\n        /* \"#utility.yul\":3609:3615   */\n      0x00\n        /* \"#utility.yul\":3658:3660   */\n      0x20\n        /* \"#utility.yul\":3646:3655   */\n      dup3\n        /* \"#utility.yul\":3637:3644   */\n      dup5\n        /* \"#utility.yul\":3633:3656   */\n      sub\n        /* \"#utility.yul\":3629:3661   */\n      slt\n        /* \"#utility.yul\":3626:3745   */\n      iszero\n      tag_137\n      jumpi\n        /* \"#utility.yul\":3664:3743   */\n      tag_138\n      tag_70\n      jump\t// in\n    tag_138:\n        /* \"#utility.yul\":3626:3745   */\n    tag_137:\n        /* \"#utility.yul\":3784:3785   */\n      0x00\n        /* \"#utility.yul\":3809:3862   */\n      tag_139\n        /* \"#utility.yul\":3854:3861   */\n      dup5\n        /* \"#utility.yul\":3845:3851   */\n      dup3\n        /* \"#utility.yul\":3834:3843   */\n      dup6\n        /* \"#utility.yul\":3830:3852   */\n      add\n        /* \"#utility.yul\":3809:3862   */\n      tag_80\n      jump\t// in\n    tag_139:\n        /* \"#utility.yul\":3799:3862   */\n      swap2\n      pop\n        /* \"#utility.yul\":3755:3872   */\n      pop\n        /* \"#utility.yul\":3550:3879   */\n      swap3\n      swap2\n      pop\n      pop\n      jump\t// out\n        /* \"#utility.yul\":3885:4033   */\n    tag_81:\n        /* \"#utility.yul\":3987:3998   */\n      0x00\n        /* \"#utility.yul\":4024:4027   */\n      dup2\n        /* \"#utility.yul\":4009:4027   */\n      swap1\n      pop\n        /* \"#utility.yul\":3885:4033   */\n      swap3\n      swap2\n      pop\n      pop\n      jump\t// out\n        /* \"#utility.yul\":4039:4185   */\n    tag_82:\n        /* \"#utility.yul\":4136:4142   */\n      dup3\n        /* \"#utility.yul\":4131:4134   */\n      dup2\n        /* \"#utility.yul\":4126:4129   */\n      dup4\n        /* \"#utility.yul\":4113:4143   */\n      calldatacopy\n        /* \"#utility.yul\":4177:4178   */\n      0x00\n        /* \"#utility.yul\":4168:4174   */\n      dup4\n        /* \"#utility.yul\":4163:4166   */\n      dup4\n        /* \"#utility.yul\":4159:4175   */\n      add\n        /* \"#utility.yul\":4152:4179   */\n      mstore\n        /* \"#utility.yul\":4039:4185   */\n      pop\n      pop\n      pop\n      jump\t// out\n        /* \"#utility.yul\":4215:4545   */\n    tag_83:\n        /* \"#utility.yul\":4331:4334   */\n      0x00\n        /* \"#utility.yul\":4352:4441   */\n      tag_143\n        /* \"#utility.yul\":4434:4440   */\n      dup4\n        /* \"#utility.yul\":4429:4432   */\n      dup6\n        /* \"#utility.yul\":4352:4441   */\n      tag_81\n      jump\t// in\n    tag_143:\n        /* \"#utility.yul\":4345:4441   */\n      swap4\n      pop\n        /* \"#utility.yul\":4451:4507   */\n      tag_144\n        /* \"#utility.yul\":4500:4506   */\n      dup4\n        /* \"#utility.yul\":4495:4498   */\n      dup6\n        /* \"#utility.yul\":4488:4493   */\n      dup5\n        /* \"#utility.yul\":4451:4507   */\n      tag_82\n      jump\t// in\n    tag_144:\n        /* \"#utility.yul\":4532:4538   */\n      dup3\n        /* \"#utility.yul\":4527:4530   */\n      dup5\n        /* \"#utility.yul\":4523:4539   */\n      add\n        /* \"#utility.yul\":4516:4539   */\n      swap1\n      pop\n        /* \"#utility.yul\":4215:4545   */\n      swap4\n      swap3\n      pop\n      pop\n      pop\n      jump\t// out\n        /* \"#utility.yul\":4551:4846   */\n    tag_32:\n        /* \"#utility.yul\":4693:4696   */\n      0x00\n        /* \"#utility.yul\":4715:4820   */\n      tag_146\n        /* \"#utility.yul\":4816:4819   */\n      dup3\n        /* \"#utility.yul\":4807:4813   */\n      dup5\n        /* \"#utility.yul\":4799:4805   */\n      dup7\n        /* \"#utility.yul\":4715:4820   */\n      tag_83\n      jump\t// in\n    tag_146:\n        /* \"#utility.yul\":4708:4820   */\n      swap2\n      pop\n        /* \"#utility.yul\":4837:4840   */\n      dup2\n        /* \"#utility.yul\":4830:4840   */\n      swap1\n      pop\n        /* \"#utility.yul\":4551:4846   */\n      swap4\n      swap3\n      pop\n      pop\n      pop\n      jump\t// out\n        /* \"#utility.yul\":4852:5021   */\n    tag_84:\n        /* \"#utility.yul\":4936:4947   */\n      0x00\n        /* \"#utility.yul\":4970:4976   */\n      dup3\n        /* \"#utility.yul\":4965:4968   */\n      dup3\n        /* \"#utility.yul\":4958:4977   */\n      mstore\n        /* \"#utility.yul\":5010:5014   */\n      0x20\n        /* \"#utility.yul\":5005:5008   */\n      dup3\n        /* \"#utility.yul\":5001:5015   */\n      add\n        /* \"#utility.yul\":4986:5015   */\n      swap1\n      pop\n        /* \"#utility.yul\":4852:5021   */\n      swap3\n      swap2\n      pop\n      pop\n      jump\t// out\n        /* \"#utility.yul\":5027:5248   */\n    tag_85:\n        /* \"#utility.yul\":5167:5201   */\n      0x546f6b656e466163746f72793a20546f6b656e20616c72656164792065786973\n        /* \"#utility.yul\":5163:5164   */\n      0x00\n        /* \"#utility.yul\":5155:5161   */\n      dup3\n        /* \"#utility.yul\":5151:5165   */\n      add\n        /* \"#utility.yul\":5144:5202   */\n      mstore\n        /* \"#utility.yul\":5236:5240   */\n      0x7473000000000000000000000000000000000000000000000000000000000000\n        /* \"#utility.yul\":5231:5233   */\n      0x20\n        /* \"#utility.yul\":5223:5229   */\n      dup3\n        /* \"#utility.yul\":5219:5234   */\n      add\n        /* \"#utility.yul\":5212:5241   */\n      mstore\n        /* \"#utility.yul\":5027:5248   */\n      pop\n      jump\t// out\n        /* \"#utility.yul\":5254:5620   */\n    tag_86:\n        /* \"#utility.yul\":5396:5399   */\n      0x00\n        /* \"#utility.yul\":5417:5484   */\n      tag_150\n        /* \"#utility.yul\":5481:5483   */\n      0x22\n        /* \"#utility.yul\":5476:5479   */\n      dup4\n        /* \"#utility.yul\":5417:5484   */\n      tag_84\n      jump\t// in\n    tag_150:\n        /* \"#utility.yul\":5410:5484   */\n      swap2\n      pop\n        /* \"#utility.yul\":5493:5586   */\n      tag_151\n        /* \"#utility.yul\":5582:5585   */\n      dup3\n        /* \"#utility.yul\":5493:5586   */\n      tag_85\n      jump\t// in\n    tag_151:\n        /* \"#utility.yul\":5611:5613   */\n      0x40\n        /* \"#utility.yul\":5606:5609   */\n      dup3\n        /* \"#utility.yul\":5602:5614   */\n      add\n        /* \"#utility.yul\":5595:5614   */\n      swap1\n      pop\n        /* \"#utility.yul\":5254:5620   */\n      swap2\n      swap1\n      pop\n      jump\t// out\n        /* \"#utility.yul\":5626:6045   */\n    tag_35:\n        /* \"#utility.yul\":5792:5796   */\n      0x00\n        /* \"#utility.yul\":5830:5832   */\n      0x20\n        /* \"#utility.yul\":5819:5828   */\n      dup3\n        /* \"#utility.yul\":5815:5833   */\n      add\n        /* \"#utility.yul\":5807:5833   */\n      swap1\n      pop\n        /* \"#utility.yul\":5879:5888   */\n      dup2\n        /* \"#utility.yul\":5873:5877   */\n      dup2\n        /* \"#utility.yul\":5869:5889   */\n      sub\n        /* \"#utility.yul\":5865:5866   */\n      0x00\n        /* \"#utility.yul\":5854:5863   */\n      dup4\n        /* \"#utility.yul\":5850:5867   */\n      add\n        /* \"#utility.yul\":5843:5890   */\n      mstore\n        /* \"#utility.yul\":5907:6038   */\n      tag_153\n        /* \"#utility.yul\":6033:6037   */\n      dup2\n        /* \"#utility.yul\":5907:6038   */\n      tag_86\n      jump\t// in\n    tag_153:\n        /* \"#utility.yul\":5899:6038   */\n      swap1\n      pop\n        /* \"#utility.yul\":5626:6045   */\n      swap2\n      swap1\n      pop\n      jump\t// out\n        /* \"#utility.yul\":6051:6153   */\n    tag_87:\n        /* \"#utility.yul\":6092:6098   */\n      0x00\n        /* \"#utility.yul\":6143:6145   */\n      0x1f\n        /* \"#utility.yul\":6139:6146   */\n      not\n        /* \"#utility.yul\":6134:6136   */\n      0x1f\n        /* \"#utility.yul\":6127:6132   */\n      dup4\n        /* \"#utility.yul\":6123:6137   */\n      add\n        /* \"#utility.yul\":6119:6147   */\n      and\n        /* \"#utility.yul\":6109:6147   */\n      swap1\n      pop\n        /* \"#utility.yul\":6051:6153   */\n      swap2\n      swap1\n      pop\n      jump\t// out\n        /* \"#utility.yul\":6183:6500   */\n    tag_88:\n        /* \"#utility.yul\":6281:6284   */\n      0x00\n        /* \"#utility.yul\":6302:6373   */\n      tag_156\n        /* \"#utility.yul\":6366:6372   */\n      dup4\n        /* \"#utility.yul\":6361:6364   */\n      dup6\n        /* \"#utility.yul\":6302:6373   */\n      tag_84\n      jump\t// in\n    tag_156:\n        /* \"#utility.yul\":6295:6373   */\n      swap4\n      pop\n        /* \"#utility.yul\":6383:6439   */\n      tag_157\n        /* \"#utility.yul\":6432:6438   */\n      dup4\n        /* \"#utility.yul\":6427:6430   */\n      dup6\n        /* \"#utility.yul\":6420:6425   */\n      dup5\n        /* \"#utility.yul\":6383:6439   */\n      tag_82\n      jump\t// in\n    tag_157:\n        /* \"#utility.yul\":6464:6493   */\n      tag_158\n        /* \"#utility.yul\":6486:6492   */\n      dup4\n        /* \"#utility.yul\":6464:6493   */\n      tag_87\n      jump\t// in\n    tag_158:\n        /* \"#utility.yul\":6459:6462   */\n      dup5\n        /* \"#utility.yul\":6455:6494   */\n      add\n        /* \"#utility.yul\":6448:6494   */\n      swap1\n      pop\n        /* \"#utility.yul\":6183:6500   */\n      swap4\n      swap3\n      pop\n      pop\n      pop\n      jump\t// out\n        /* \"#utility.yul\":6506:7060   */\n    tag_39:\n        /* \"#utility.yul\":6687:6691   */\n      0x00\n        /* \"#utility.yul\":6725:6727   */\n      0x40\n        /* \"#utility.yul\":6714:6723   */\n      dup3\n        /* \"#utility.yul\":6710:6728   */\n      add\n        /* \"#utility.yul\":6702:6728   */\n      swap1\n      pop\n        /* \"#utility.yul\":6774:6783   */\n      dup2\n        /* \"#utility.yul\":6768:6772   */\n      dup2\n        /* \"#utility.yul\":6764:6784   */\n      sub\n        /* \"#utility.yul\":6760:6761   */\n      0x00\n        /* \"#utility.yul\":6749:6758   */\n      dup4\n        /* \"#utility.yul\":6745:6762   */\n      add\n        /* \"#utility.yul\":6738:6785   */\n      mstore\n        /* \"#utility.yul\":6802:6890   */\n      tag_160\n        /* \"#utility.yul\":6885:6889   */\n      dup2\n        /* \"#utility.yul\":6876:6882   */\n      dup7\n        /* \"#utility.yul\":6868:6874   */\n      dup9\n        /* \"#utility.yul\":6802:6890   */\n      tag_88\n      jump\t// in\n    tag_160:\n        /* \"#utility.yul\":6794:6890   */\n      swap1\n      pop\n        /* \"#utility.yul\":6937:6946   */\n      dup2\n        /* \"#utility.yul\":6931:6935   */\n      dup2\n        /* \"#utility.yul\":6927:6947   */\n      sub\n        /* \"#utility.yul\":6922:6924   */\n      0x20\n        /* \"#utility.yul\":6911:6920   */\n      dup4\n        /* \"#utility.yul\":6907:6925   */\n      add\n        /* \"#utility.yul\":6900:6948   */\n      mstore\n        /* \"#utility.yul\":6965:7053   */\n      tag_161\n        /* \"#utility.yul\":7048:7052   */\n      dup2\n        /* \"#utility.yul\":7039:7045   */\n      dup5\n        /* \"#utility.yul\":7031:7037   */\n      dup7\n        /* \"#utility.yul\":6965:7053   */\n      tag_88\n      jump\t// in\n    tag_161:\n        /* \"#utility.yul\":6957:7053   */\n      swap1\n      pop\n        /* \"#utility.yul\":6506:7060   */\n      swap6\n      swap5\n      pop\n      pop\n      pop\n      pop\n      pop\n      jump\t// out\n        /* \"#utility.yul\":7066:7297   */\n    tag_89:\n        /* \"#utility.yul\":7206:7240   */\n      0x546f6b656e466163746f72793a20546f6b656e206465706c6f796d656e742075\n        /* \"#utility.yul\":7202:7203   */\n      0x00\n        /* \"#utility.yul\":7194:7200   */\n      dup3\n        /* \"#utility.yul\":7190:7204   */\n      add\n        /* \"#utility.yul\":7183:7241   */\n      mstore\n        /* \"#utility.yul\":7275:7289   */\n      0x6e7375636365737366756c6c0000000000000000000000000000000000000000\n        /* \"#utility.yul\":7270:7272   */\n      0x20\n        /* \"#utility.yul\":7262:7268   */\n      dup3\n        /* \"#utility.yul\":7258:7273   */\n      add\n        /* \"#utility.yul\":7251:7290   */\n      mstore\n        /* \"#utility.yul\":7066:7297   */\n      pop\n      jump\t// out\n        /* \"#utility.yul\":7303:7669   */\n    tag_90:\n        /* \"#utility.yul\":7445:7448   */\n      0x00\n        /* \"#utility.yul\":7466:7533   */\n      tag_164\n        /* \"#utility.yul\":7530:7532   */\n      0x2c\n        /* \"#utility.yul\":7525:7528   */\n      dup4\n        /* \"#utility.yul\":7466:7533   */\n      tag_84\n      jump\t// in\n    tag_164:\n        /* \"#utility.yul\":7459:7533   */\n      swap2\n      pop\n        /* \"#utility.yul\":7542:7635   */\n      tag_165\n        /* \"#utility.yul\":7631:7634   */\n      dup3\n        /* \"#utility.yul\":7542:7635   */\n      tag_89\n      jump\t// in\n    tag_165:\n        /* \"#utility.yul\":7660:7662   */\n      0x40\n        /* \"#utility.yul\":7655:7658   */\n      dup3\n        /* \"#utility.yul\":7651:7663   */\n      add\n        /* \"#utility.yul\":7644:7663   */\n      swap1\n      pop\n        /* \"#utility.yul\":7303:7669   */\n      swap2\n      swap1\n      pop\n      jump\t// out\n        /* \"#utility.yul\":7675:8094   */\n    tag_43:\n        /* \"#utility.yul\":7841:7845   */\n      0x00\n        /* \"#utility.yul\":7879:7881   */\n      0x20\n        /* \"#utility.yul\":7868:7877   */\n      dup3\n        /* \"#utility.yul\":7864:7882   */\n      add\n        /* \"#utility.yul\":7856:7882   */\n      swap1\n      pop\n        /* \"#utility.yul\":7928:7937   */\n      dup2\n        /* \"#utility.yul\":7922:7926   */\n      dup2\n        /* \"#utility.yul\":7918:7938   */\n      sub\n        /* \"#utility.yul\":7914:7915   */\n      0x00\n        /* \"#utility.yul\":7903:7912   */\n      dup4\n        /* \"#utility.yul\":7899:7916   */\n      add\n        /* \"#utility.yul\":7892:7939   */\n      mstore\n        /* \"#utility.yul\":7956:8087   */\n      tag_167\n        /* \"#utility.yul\":8082:8086   */\n      dup2\n        /* \"#utility.yul\":7956:8087   */\n      tag_90\n      jump\t// in\n    tag_167:\n        /* \"#utility.yul\":7948:8087   */\n      swap1\n      pop\n        /* \"#utility.yul\":7675:8094   */\n      swap2\n      swap1\n      pop\n      jump\t// out\n        /* \"#utility.yul\":8100:8325   */\n    tag_91:\n        /* \"#utility.yul\":8240:8274   */\n      0x4f776e61626c653a206e6577206f776e657220697320746865207a65726f2061\n        /* \"#utility.yul\":8236:8237   */\n      0x00\n        /* \"#utility.yul\":8228:8234   */\n      dup3\n        /* \"#utility.yul\":8224:8238   */\n      add\n        /* \"#utility.yul\":8217:8275   */\n      mstore\n        /* \"#utility.yul\":8309:8317   */\n      0x6464726573730000000000000000000000000000000000000000000000000000\n        /* \"#utility.yul\":8304:8306   */\n      0x20\n        /* \"#utility.yul\":8296:8302   */\n      dup3\n        /* \"#utility.yul\":8292:8307   */\n      add\n        /* \"#utility.yul\":8285:8318   */\n      mstore\n        /* \"#utility.yul\":8100:8325   */\n      pop\n      jump\t// out\n        /* \"#utility.yul\":8331:8697   */\n    tag_92:\n        /* \"#utility.yul\":8473:8476   */\n      0x00\n        /* \"#utility.yul\":8494:8561   */\n      tag_170\n        /* \"#utility.yul\":8558:8560   */\n      0x26\n        /* \"#utility.yul\":8553:8556   */\n      dup4\n        /* \"#utility.yul\":8494:8561   */\n      tag_84\n      jump\t// in\n    tag_170:\n        /* \"#utility.yul\":8487:8561   */\n      swap2\n      pop\n        /* \"#utility.yul\":8570:8663   */\n      tag_171\n        /* \"#utility.yul\":8659:8662   */\n      dup3\n        /* \"#utility.yul\":8570:8663   */\n      tag_91\n      jump\t// in\n    tag_171:\n        /* \"#utility.yul\":8688:8690   */\n      0x40\n        /* \"#utility.yul\":8683:8686   */\n      dup3\n        /* \"#utility.yul\":8679:8691   */\n      add\n        /* \"#utility.yul\":8672:8691   */\n      swap1\n      pop\n        /* \"#utility.yul\":8331:8697   */\n      swap2\n      swap1\n      pop\n      jump\t// out\n        /* \"#utility.yul\":8703:9122   */\n    tag_58:\n        /* \"#utility.yul\":8869:8873   */\n      0x00\n        /* \"#utility.yul\":8907:8909   */\n      0x20\n        /* \"#utility.yul\":8896:8905   */\n      dup3\n        /* \"#utility.yul\":8892:8910   */\n      add\n        /* \"#utility.yul\":8884:8910   */\n      swap1\n      pop\n        /* \"#utility.yul\":8956:8965   */\n      dup2\n        /* \"#utility.yul\":8950:8954   */\n      dup2\n        /* \"#utility.yul\":8946:8966   */\n      sub\n        /* \"#utility.yul\":8942:8943   */\n      0x00\n        /* \"#utility.yul\":8931:8940   */\n      dup4\n        /* \"#utility.yul\":8927:8944   */\n      add\n        /* \"#utility.yul\":8920:8967   */\n      mstore\n        /* \"#utility.yul\":8984:9115   */\n      tag_173\n        /* \"#utility.yul\":9110:9114   */\n      dup2\n        /* \"#utility.yul\":8984:9115   */\n      tag_92\n      jump\t// in\n    tag_173:\n        /* \"#utility.yul\":8976:9115   */\n      swap1\n      pop\n        /* \"#utility.yul\":8703:9122   */\n      swap2\n      swap1\n      pop\n      jump\t// out\n        /* \"#utility.yul\":9128:9310   */\n    tag_93:\n        /* \"#utility.yul\":9268:9302   */\n      0x4f776e61626c653a2063616c6c6572206973206e6f7420746865206f776e6572\n        /* \"#utility.yul\":9264:9265   */\n      0x00\n        /* \"#utility.yul\":9256:9262   */\n      dup3\n        /* \"#utility.yul\":9252:9266   */\n      add\n        /* \"#utility.yul\":9245:9303   */\n      mstore\n        /* \"#utility.yul\":9128:9310   */\n      pop\n      jump\t// out\n        /* \"#utility.yul\":9316:9682   */\n    tag_94:\n        /* \"#utility.yul\":9458:9461   */\n      0x00\n        /* \"#utility.yul\":9479:9546   */\n      tag_176\n        /* \"#utility.yul\":9543:9545   */\n      0x20\n        /* \"#utility.yul\":9538:9541   */\n      dup4\n        /* \"#utility.yul\":9479:9546   */\n      tag_84\n      jump\t// in\n    tag_176:\n        /* \"#utility.yul\":9472:9546   */\n      swap2\n      pop\n        /* \"#utility.yul\":9555:9648   */\n      tag_177\n        /* \"#utility.yul\":9644:9647   */\n      dup3\n        /* \"#utility.yul\":9555:9648   */\n      tag_93\n      jump\t// in\n    tag_177:\n        /* \"#utility.yul\":9673:9675   */\n      0x20\n        /* \"#utility.yul\":9668:9671   */\n      dup3\n        /* \"#utility.yul\":9664:9676   */\n      add\n        /* \"#utility.yul\":9657:9676   */\n      swap1\n      pop\n        /* \"#utility.yul\":9316:9682   */\n      swap2\n      swap1\n      pop\n      jump\t// out\n        /* \"#utility.yul\":9688:10107   */\n    tag_66:\n        /* \"#utility.yul\":9854:9858   */\n      0x00\n        /* \"#utility.yul\":9892:9894   */\n      0x20\n        /* \"#utility.yul\":9881:9890   */\n      dup3\n        /* \"#utility.yul\":9877:9895   */\n      add\n        /* \"#utility.yul\":9869:9895   */\n      swap1\n      pop\n        /* \"#utility.yul\":9941:9950   */\n      dup2\n        /* \"#utility.yul\":9935:9939   */\n      dup2\n        /* \"#utility.yul\":9931:9951   */\n      sub\n        /* \"#utility.yul\":9927:9928   */\n      0x00\n        /* \"#utility.yul\":9916:9925   */\n      dup4\n        /* \"#utility.yul\":9912:9929   */\n      add\n        /* \"#utility.yul\":9905:9952   */\n      mstore\n        /* \"#utility.yul\":9969:10100   */\n      tag_179\n        /* \"#utility.yul\":10095:10099   */\n      dup2\n        /* \"#utility.yul\":9969:10100   */\n      tag_94\n      jump\t// in\n    tag_179:\n        /* \"#utility.yul\":9961:10100   */\n      swap1\n      pop\n        /* \"#utility.yul\":9688:10107   */\n      swap2\n      swap1\n      pop\n      jump\t// out\n    stop\n\n    sub_0: assembly {\n            /* \"contracts/Token.sol\":122:246  contract Token is ERC20 {... */\n          mstore(0x40, 0x80)\n            /* \"contracts/Token.sol\":152:244  constructor(string memory name_, string memory symbol_)... */\n          callvalue\n          dup1\n          iszero\n          tag_1\n          jumpi\n          0x00\n          dup1\n          revert\n        tag_1:\n          pop\n          mload(0x40)\n          sub(codesize, bytecodeSize)\n          dup1\n          bytecodeSize\n          dup4\n          codecopy\n          dup2\n          dup2\n          add\n          0x40\n          mstore\n          dup2\n          add\n          swap1\n          tag_2\n          swap2\n          swap1\n          tag_3\n          jump\t// in\n        tag_2:\n            /* \"contracts/Token.sol\":222:227  name_ */\n          dup2\n            /* \"contracts/Token.sol\":229:236  symbol_ */\n          dup2\n            /* \"@openzeppelin/contracts/token/ERC20/ERC20.sol\":2052:2057  name_ */\n          dup2\n            /* \"@openzeppelin/contracts/token/ERC20/ERC20.sol\":2044:2049  _name */\n          0x03\n            /* \"@openzeppelin/contracts/token/ERC20/ERC20.sol\":2044:2057  _name = name_ */\n          swap1\n          dup2\n          tag_7\n          swap2\n          swap1\n          tag_8\n          jump\t// in\n        tag_7:\n          pop\n            /* \"@openzeppelin/contracts/token/ERC20/ERC20.sol\":2077:2084  symbol_ */\n          dup1\n            /* \"@openzeppelin/contracts/token/ERC20/ERC20.sol\":2067:2074  _symbol */\n          0x04\n            /* \"@openzeppelin/contracts/token/ERC20/ERC20.sol\":2067:2084  _symbol = symbol_ */\n          swap1\n          dup2\n          tag_9\n          swap2\n          swap1\n          tag_8\n          jump\t// in\n        tag_9:\n          pop\n            /* \"@openzeppelin/contracts/token/ERC20/ERC20.sol\":1978:2091  constructor(string memory name_, string memory symbol_) {... */\n          pop\n          pop\n            /* \"contracts/Token.sol\":152:244  constructor(string memory name_, string memory symbol_)... */\n          pop\n          pop\n            /* \"contracts/Token.sol\":122:246  contract Token is ERC20 {... */\n          jump(tag_11)\n            /* \"#utility.yul\":7:82   */\n        tag_12:\n            /* \"#utility.yul\":40:46   */\n          0x00\n            /* \"#utility.yul\":73:75   */\n          0x40\n            /* \"#utility.yul\":67:76   */\n          mload\n            /* \"#utility.yul\":57:76   */\n          swap1\n          pop\n            /* \"#utility.yul\":7:82   */\n          swap1\n          jump\t// out\n            /* \"#utility.yul\":88:205   */\n        tag_13:\n            /* \"#utility.yul\":197:198   */\n          0x00\n            /* \"#utility.yul\":194:195   */\n          dup1\n            /* \"#utility.yul\":187:199   */\n          revert\n            /* \"#utility.yul\":211:328   */\n        tag_14:\n            /* \"#utility.yul\":320:321   */\n          0x00\n            /* \"#utility.yul\":317:318   */\n          dup1\n            /* \"#utility.yul\":310:322   */\n          revert\n            /* \"#utility.yul\":334:451   */\n        tag_15:\n            /* \"#utility.yul\":443:444   */\n          0x00\n            /* \"#utility.yul\":440:441   */\n          dup1\n            /* \"#utility.yul\":433:445   */\n          revert\n            /* \"#utility.yul\":457:574   */\n        tag_16:\n            /* \"#utility.yul\":566:567   */\n          0x00\n            /* \"#utility.yul\":563:564   */\n          dup1\n            /* \"#utility.yul\":556:568   */\n          revert\n            /* \"#utility.yul\":580:682   */\n        tag_17:\n            /* \"#utility.yul\":621:627   */\n          0x00\n            /* \"#utility.yul\":672:674   */\n          0x1f\n            /* \"#utility.yul\":668:675   */\n          not\n            /* \"#utility.yul\":663:665   */\n          0x1f\n            /* \"#utility.yul\":656:661   */\n          dup4\n            /* \"#utility.yul\":652:666   */\n          add\n            /* \"#utility.yul\":648:676   */\n          and\n            /* \"#utility.yul\":638:676   */\n          swap1\n          pop\n            /* \"#utility.yul\":580:682   */\n          swap2\n          swap1\n          pop\n          jump\t// out\n            /* \"#utility.yul\":688:868   */\n        tag_18:\n            /* \"#utility.yul\":736:813   */\n          0x4e487b7100000000000000000000000000000000000000000000000000000000\n            /* \"#utility.yul\":733:734   */\n          0x00\n            /* \"#utility.yul\":726:814   */\n          mstore\n            /* \"#utility.yul\":833:837   */\n          0x41\n            /* \"#utility.yul\":830:831   */\n          0x04\n            /* \"#utility.yul\":823:838   */\n          mstore\n            /* \"#utility.yul\":857:861   */\n          0x24\n            /* \"#utility.yul\":854:855   */\n          0x00\n            /* \"#utility.yul\":847:862   */\n          revert\n            /* \"#utility.yul\":874:1155   */\n        tag_19:\n            /* \"#utility.yul\":957:984   */\n          tag_53\n            /* \"#utility.yul\":979:983   */\n          dup3\n            /* \"#utility.yul\":957:984   */\n          tag_17\n          jump\t// in\n        tag_53:\n            /* \"#utility.yul\":949:955   */\n          dup2\n            /* \"#utility.yul\":945:985   */\n          add\n            /* \"#utility.yul\":1087:1093   */\n          dup2\n            /* \"#utility.yul\":1075:1085   */\n          dup2\n            /* \"#utility.yul\":1072:1094   */\n          lt\n            /* \"#utility.yul\":1051:1069   */\n          0xffffffffffffffff\n            /* \"#utility.yul\":1039:1049   */\n          dup3\n            /* \"#utility.yul\":1036:1070   */\n          gt\n            /* \"#utility.yul\":1033:1095   */\n          or\n            /* \"#utility.yul\":1030:1118   */\n          iszero\n          tag_54\n          jumpi\n            /* \"#utility.yul\":1098:1116   */\n          tag_55\n          tag_18\n          jump\t// in\n        tag_55:\n            /* \"#utility.yul\":1030:1118   */\n        tag_54:\n            /* \"#utility.yul\":1138:1148   */\n          dup1\n            /* \"#utility.yul\":1134:1136   */\n          0x40\n            /* \"#utility.yul\":1127:1149   */\n          mstore\n            /* \"#utility.yul\":917:1155   */\n          pop\n            /* \"#utility.yul\":874:1155   */\n          pop\n          pop\n          jump\t// out\n            /* \"#utility.yul\":1161:1290   */\n        tag_20:\n            /* \"#utility.yul\":1195:1201   */\n          0x00\n            /* \"#utility.yul\":1222:1242   */\n          tag_57\n          tag_12\n          jump\t// in\n        tag_57:\n            /* \"#utility.yul\":1212:1242   */\n          swap1\n          pop\n            /* \"#utility.yul\":1251:1284   */\n          tag_58\n            /* \"#utility.yul\":1279:1283   */\n          dup3\n            /* \"#utility.yul\":1271:1277   */\n          dup3\n            /* \"#utility.yul\":1251:1284   */\n          tag_19\n          jump\t// in\n        tag_58:\n            /* \"#utility.yul\":1161:1290   */\n          swap2\n          swap1\n          pop\n          jump\t// out\n            /* \"#utility.yul\":1296:1604   */\n        tag_21:\n            /* \"#utility.yul\":1358:1362   */\n          0x00\n            /* \"#utility.yul\":1448:1466   */\n          0xffffffffffffffff\n            /* \"#utility.yul\":1440:1446   */\n          dup3\n            /* \"#utility.yul\":1437:1467   */\n          gt\n            /* \"#utility.yul\":1434:1490   */\n          iszero\n          tag_60\n          jumpi\n            /* \"#utility.yul\":1470:1488   */\n          tag_61\n          tag_18\n          jump\t// in\n        tag_61:\n            /* \"#utility.yul\":1434:1490   */\n        tag_60:\n            /* \"#utility.yul\":1508:1537   */\n          tag_62\n            /* \"#utility.yul\":1530:1536   */\n          dup3\n            /* \"#utility.yul\":1508:1537   */\n          tag_17\n          jump\t// in\n        tag_62:\n            /* \"#utility.yul\":1500:1537   */\n          swap1\n          pop\n            /* \"#utility.yul\":1592:1596   */\n          0x20\n            /* \"#utility.yul\":1586:1590   */\n          dup2\n            /* \"#utility.yul\":1582:1597   */\n          add\n            /* \"#utility.yul\":1574:1597   */\n          swap1\n          pop\n            /* \"#utility.yul\":1296:1604   */\n          swap2\n          swap1\n          pop\n          jump\t// out\n            /* \"#utility.yul\":1610:1856   */\n        tag_22:\n            /* \"#utility.yul\":1691:1692   */\n          0x00\n            /* \"#utility.yul\":1701:1814   */\n        tag_64:\n            /* \"#utility.yul\":1715:1721   */\n          dup4\n            /* \"#utility.yul\":1712:1713   */\n          dup2\n            /* \"#utility.yul\":1709:1722   */\n          lt\n            /* \"#utility.yul\":1701:1814   */\n          iszero\n          tag_66\n          jumpi\n            /* \"#utility.yul\":1800:1801   */\n          dup1\n            /* \"#utility.yul\":1795:1798   */\n          dup3\n            /* \"#utility.yul\":1791:1802   */\n          add\n            /* \"#utility.yul\":1785:1803   */\n          mload\n            /* \"#utility.yul\":1781:1782   */\n          dup2\n            /* \"#utility.yul\":1776:1779   */\n          dup5\n            /* \"#utility.yul\":1772:1783   */\n          add\n            /* \"#utility.yul\":1765:1804   */\n          mstore\n            /* \"#utility.yul\":1737:1739   */\n          0x20\n            /* \"#utility.yul\":1734:1735   */\n          dup2\n            /* \"#utility.yul\":1730:1740   */\n          add\n            /* \"#utility.yul\":1725:1740   */\n          swap1\n          pop\n            /* \"#utility.yul\":1701:1814   */\n          jump(tag_64)\n        tag_66:\n            /* \"#utility.yul\":1848:1849   */\n          0x00\n            /* \"#utility.yul\":1839:1845   */\n          dup5\n            /* \"#utility.yul\":1834:1837   */\n          dup5\n            /* \"#utility.yul\":1830:1846   */\n          add\n            /* \"#utility.yul\":1823:1850   */\n          mstore\n            /* \"#utility.yul\":1672:1856   */\n          pop\n            /* \"#utility.yul\":1610:1856   */\n          pop\n          pop\n          pop\n          jump\t// out\n            /* \"#utility.yul\":1862:2296   */\n        tag_23:\n            /* \"#utility.yul\":1951:1956   */\n          0x00\n            /* \"#utility.yul\":1976:2042   */\n          tag_68\n            /* \"#utility.yul\":1992:2041   */\n          tag_69\n            /* \"#utility.yul\":2034:2040   */\n          dup5\n            /* \"#utility.yul\":1992:2041   */\n          tag_21\n          jump\t// in\n        tag_69:\n            /* \"#utility.yul\":1976:2042   */\n          tag_20\n          jump\t// in\n        tag_68:\n            /* \"#utility.yul\":1967:2042   */\n          swap1\n          pop\n            /* \"#utility.yul\":2065:2071   */\n          dup3\n            /* \"#utility.yul\":2058:2063   */\n          dup2\n            /* \"#utility.yul\":2051:2072   */\n          mstore\n            /* \"#utility.yul\":2103:2107   */\n          0x20\n            /* \"#utility.yul\":2096:2101   */\n          dup2\n            /* \"#utility.yul\":2092:2108   */\n          add\n            /* \"#utility.yul\":2141:2144   */\n          dup5\n            /* \"#utility.yul\":2132:2138   */\n          dup5\n            /* \"#utility.yul\":2127:2130   */\n          dup5\n            /* \"#utility.yul\":2123:2139   */\n          add\n            /* \"#utility.yul\":2120:2145   */\n          gt\n            /* \"#utility.yul\":2117:2229   */\n          iszero\n          tag_70\n          jumpi\n            /* \"#utility.yul\":2148:2227   */\n          tag_71\n          tag_16\n          jump\t// in\n        tag_71:\n            /* \"#utility.yul\":2117:2229   */\n        tag_70:\n            /* \"#utility.yul\":2238:2290   */\n          tag_72\n            /* \"#utility.yul\":2283:2289   */\n          dup5\n            /* \"#utility.yul\":2278:2281   */\n          dup3\n            /* \"#utility.yul\":2273:2276   */\n          dup6\n            /* \"#utility.yul\":2238:2290   */\n          tag_22\n          jump\t// in\n        tag_72:\n            /* \"#utility.yul\":1957:2296   */\n          pop\n            /* \"#utility.yul\":1862:2296   */\n          swap4\n          swap3\n          pop\n          pop\n          pop\n          jump\t// out\n            /* \"#utility.yul\":2316:2671   */\n        tag_24:\n            /* \"#utility.yul\":2383:2388   */\n          0x00\n            /* \"#utility.yul\":2432:2435   */\n          dup3\n            /* \"#utility.yul\":2425:2429   */\n          0x1f\n            /* \"#utility.yul\":2417:2423   */\n          dup4\n            /* \"#utility.yul\":2413:2430   */\n          add\n            /* \"#utility.yul\":2409:2436   */\n          slt\n            /* \"#utility.yul\":2399:2521   */\n          tag_74\n          jumpi\n            /* \"#utility.yul\":2440:2519   */\n          tag_75\n          tag_15\n          jump\t// in\n        tag_75:\n            /* \"#utility.yul\":2399:2521   */\n        tag_74:\n            /* \"#utility.yul\":2550:2556   */\n          dup2\n            /* \"#utility.yul\":2544:2557   */\n          mload\n            /* \"#utility.yul\":2575:2665   */\n          tag_76\n            /* \"#utility.yul\":2661:2664   */\n          dup5\n            /* \"#utility.yul\":2653:2659   */\n          dup3\n            /* \"#utility.yul\":2646:2650   */\n          0x20\n            /* \"#utility.yul\":2638:2644   */\n          dup7\n            /* \"#utility.yul\":2634:2651   */\n          add\n            /* \"#utility.yul\":2575:2665   */\n          tag_23\n          jump\t// in\n        tag_76:\n            /* \"#utility.yul\":2566:2665   */\n          swap2\n          pop\n            /* \"#utility.yul\":2389:2671   */\n          pop\n            /* \"#utility.yul\":2316:2671   */\n          swap3\n          swap2\n          pop\n          pop\n          jump\t// out\n            /* \"#utility.yul\":2677:3530   */\n        tag_3:\n            /* \"#utility.yul\":2776:2782   */\n          0x00\n            /* \"#utility.yul\":2784:2790   */\n          dup1\n            /* \"#utility.yul\":2833:2835   */\n          0x40\n            /* \"#utility.yul\":2821:2830   */\n          dup4\n            /* \"#utility.yul\":2812:2819   */\n          dup6\n            /* \"#utility.yul\":2808:2831   */\n          sub\n            /* \"#utility.yul\":2804:2836   */\n          slt\n            /* \"#utility.yul\":2801:2920   */\n          iszero\n          tag_78\n          jumpi\n            /* \"#utility.yul\":2839:2918   */\n          tag_79\n          tag_13\n          jump\t// in\n        tag_79:\n            /* \"#utility.yul\":2801:2920   */\n        tag_78:\n            /* \"#utility.yul\":2980:2981   */\n          0x00\n            /* \"#utility.yul\":2969:2978   */\n          dup4\n            /* \"#utility.yul\":2965:2982   */\n          add\n            /* \"#utility.yul\":2959:2983   */\n          mload\n            /* \"#utility.yul\":3010:3028   */\n          0xffffffffffffffff\n            /* \"#utility.yul\":3002:3008   */\n          dup2\n            /* \"#utility.yul\":2999:3029   */\n          gt\n            /* \"#utility.yul\":2996:3113   */\n          iszero\n          tag_80\n          jumpi\n            /* \"#utility.yul\":3032:3111   */\n          tag_81\n          tag_14\n          jump\t// in\n        tag_81:\n            /* \"#utility.yul\":2996:3113   */\n        tag_80:\n            /* \"#utility.yul\":3137:3211   */\n          tag_82\n            /* \"#utility.yul\":3203:3210   */\n          dup6\n            /* \"#utility.yul\":3194:3200   */\n          dup3\n            /* \"#utility.yul\":3183:3192   */\n          dup7\n            /* \"#utility.yul\":3179:3201   */\n          add\n            /* \"#utility.yul\":3137:3211   */\n          tag_24\n          jump\t// in\n        tag_82:\n            /* \"#utility.yul\":3127:3211   */\n          swap3\n          pop\n            /* \"#utility.yul\":2930:3221   */\n          pop\n            /* \"#utility.yul\":3281:3283   */\n          0x20\n            /* \"#utility.yul\":3270:3279   */\n          dup4\n            /* \"#utility.yul\":3266:3284   */\n          add\n            /* \"#utility.yul\":3260:3285   */\n          mload\n            /* \"#utility.yul\":3312:3330   */\n          0xffffffffffffffff\n            /* \"#utility.yul\":3304:3310   */\n          dup2\n            /* \"#utility.yul\":3301:3331   */\n          gt\n            /* \"#utility.yul\":3298:3415   */\n          iszero\n          tag_83\n          jumpi\n            /* \"#utility.yul\":3334:3413   */\n          tag_84\n          tag_14\n          jump\t// in\n        tag_84:\n            /* \"#utility.yul\":3298:3415   */\n        tag_83:\n            /* \"#utility.yul\":3439:3513   */\n          tag_85\n            /* \"#utility.yul\":3505:3512   */\n          dup6\n            /* \"#utility.yul\":3496:3502   */\n          dup3\n            /* \"#utility.yul\":3485:3494   */\n          dup7\n            /* \"#utility.yul\":3481:3503   */\n          add\n            /* \"#utility.yul\":3439:3513   */\n          tag_24\n          jump\t// in\n        tag_85:\n            /* \"#utility.yul\":3429:3513   */\n          swap2\n          pop\n            /* \"#utility.yul\":3231:3523   */\n          pop\n            /* \"#utility.yul\":2677:3530   */\n          swap3\n          pop\n          swap3\n          swap1\n          pop\n          jump\t// out\n            /* \"#utility.yul\":3536:3635   */\n        tag_25:\n            /* \"#utility.yul\":3588:3594   */\n          0x00\n            /* \"#utility.yul\":3622:3627   */\n          dup2\n            /* \"#utility.yul\":3616:3628   */\n          mload\n            /* \"#utility.yul\":3606:3628   */\n          swap1\n          pop\n            /* \"#utility.yul\":3536:3635   */\n          swap2\n          swap1\n          pop\n          jump\t// out\n            /* \"#utility.yul\":3641:3821   */\n        tag_26:\n            /* \"#utility.yul\":3689:3766   */\n          0x4e487b7100000000000000000000000000000000000000000000000000000000\n            /* \"#utility.yul\":3686:3687   */\n          0x00\n            /* \"#utility.yul\":3679:3767   */\n          mstore\n            /* \"#utility.yul\":3786:3790   */\n          0x22\n            /* \"#utility.yul\":3783:3784   */\n          0x04\n            /* \"#utility.yul\":3776:3791   */\n          mstore\n            /* \"#utility.yul\":3810:3814   */\n          0x24\n            /* \"#utility.yul\":3807:3808   */\n          0x00\n            /* \"#utility.yul\":3800:3815   */\n          revert\n            /* \"#utility.yul\":3827:4147   */\n        tag_27:\n            /* \"#utility.yul\":3871:3877   */\n          0x00\n            /* \"#utility.yul\":3908:3909   */\n          0x02\n            /* \"#utility.yul\":3902:3906   */\n          dup3\n            /* \"#utility.yul\":3898:3910   */\n          div\n            /* \"#utility.yul\":3888:3910   */\n          swap1\n          pop\n            /* \"#utility.yul\":3955:3956   */\n          0x01\n            /* \"#utility.yul\":3949:3953   */\n          dup3\n            /* \"#utility.yul\":3945:3957   */\n          and\n            /* \"#utility.yul\":3976:3994   */\n          dup1\n            /* \"#utility.yul\":3966:4047   */\n          tag_89\n          jumpi\n            /* \"#utility.yul\":4032:4036   */\n          0x7f\n            /* \"#utility.yul\":4024:4030   */\n          dup3\n            /* \"#utility.yul\":4020:4037   */\n          and\n            /* \"#utility.yul\":4010:4037   */\n          swap2\n          pop\n            /* \"#utility.yul\":3966:4047   */\n        tag_89:\n            /* \"#utility.yul\":4094:4096   */\n          0x20\n            /* \"#utility.yul\":4086:4092   */\n          dup3\n            /* \"#utility.yul\":4083:4097   */\n          lt\n            /* \"#utility.yul\":4063:4081   */\n          dup2\n            /* \"#utility.yul\":4060:4098   */\n          sub\n            /* \"#utility.yul\":4057:4141   */\n          tag_90\n          jumpi\n            /* \"#utility.yul\":4113:4131   */\n          tag_91\n          tag_26\n          jump\t// in\n        tag_91:\n            /* \"#utility.yul\":4057:4141   */\n        tag_90:\n            /* \"#utility.yul\":3878:4147   */\n          pop\n            /* \"#utility.yul\":3827:4147   */\n          swap2\n          swap1\n          pop\n          jump\t// out\n            /* \"#utility.yul\":4153:4294   */\n        tag_28:\n            /* \"#utility.yul\":4202:4206   */\n          0x00\n            /* \"#utility.yul\":4225:4228   */\n          dup2\n            /* \"#utility.yul\":4217:4228   */\n          swap1\n          pop\n            /* \"#utility.yul\":4248:4251   */\n          dup2\n            /* \"#utility.yul\":4245:4246   */\n          0x00\n            /* \"#utility.yul\":4238:4252   */\n          mstore\n            /* \"#utility.yul\":4282:4286   */\n          0x20\n            /* \"#utility.yul\":4279:4280   */\n          0x00\n            /* \"#utility.yul\":4269:4287   */\n          keccak256\n            /* \"#utility.yul\":4261:4287   */\n          swap1\n          pop\n            /* \"#utility.yul\":4153:4294   */\n          swap2\n          swap1\n          pop\n          jump\t// out\n            /* \"#utility.yul\":4300:4393   */\n        tag_29:\n            /* \"#utility.yul\":4337:4343   */\n          0x00\n            /* \"#utility.yul\":4384:4386   */\n          0x20\n            /* \"#utility.yul\":4379:4381   */\n          0x1f\n            /* \"#utility.yul\":4372:4377   */\n          dup4\n            /* \"#utility.yul\":4368:4382   */\n          add\n            /* \"#utility.yul\":4364:4387   */\n          div\n            /* \"#utility.yul\":4354:4387   */\n          swap1\n          pop\n            /* \"#utility.yul\":4300:4393   */\n          swap2\n          swap1\n          pop\n          jump\t// out\n            /* \"#utility.yul\":4399:4506   */\n        tag_30:\n            /* \"#utility.yul\":4443:4451   */\n          0x00\n            /* \"#utility.yul\":4493:4498   */\n          dup3\n            /* \"#utility.yul\":4487:4491   */\n          dup3\n            /* \"#utility.yul\":4483:4499   */\n          shl\n            /* \"#utility.yul\":4462:4499   */\n          swap1\n          pop\n            /* \"#utility.yul\":4399:4506   */\n          swap3\n          swap2\n          pop\n          pop\n          jump\t// out\n            /* \"#utility.yul\":4512:4905   */\n        tag_31:\n            /* \"#utility.yul\":4581:4587   */\n          0x00\n            /* \"#utility.yul\":4631:4632   */\n          0x08\n            /* \"#utility.yul\":4619:4629   */\n          dup4\n            /* \"#utility.yul\":4615:4633   */\n          mul\n            /* \"#utility.yul\":4654:4751   */\n          tag_96\n            /* \"#utility.yul\":4684:4750   */\n          0xffffffffffffffffffffffffffffffffffffffffffffffffffffffffffffffff\n            /* \"#utility.yul\":4673:4682   */\n          dup3\n            /* \"#utility.yul\":4654:4751   */\n          tag_30\n          jump\t// in\n        tag_96:\n            /* \"#utility.yul\":4772:4811   */\n          tag_97\n            /* \"#utility.yul\":4802:4810   */\n          dup7\n            /* \"#utility.yul\":4791:4800   */\n          dup4\n            /* \"#utility.yul\":4772:4811   */\n          tag_30\n          jump\t// in\n        tag_97:\n            /* \"#utility.yul\":4760:4811   */\n          swap6\n          pop\n            /* \"#utility.yul\":4844:4848   */\n          dup1\n            /* \"#utility.yul\":4840:4849   */\n          not\n            /* \"#utility.yul\":4833:4838   */\n          dup5\n            /* \"#utility.yul\":4829:4850   */\n          and\n            /* \"#utility.yul\":4820:4850   */\n          swap4\n          pop\n            /* \"#utility.yul\":4893:4897   */\n          dup1\n            /* \"#utility.yul\":4883:4891   */\n          dup7\n            /* \"#utility.yul\":4879:4898   */\n          and\n            /* \"#utility.yul\":4872:4877   */\n          dup5\n            /* \"#utility.yul\":4869:4899   */\n          or\n            /* \"#utility.yul\":4859:4899   */\n          swap3\n          pop\n            /* \"#utility.yul\":4588:4905   */\n          pop\n          pop\n            /* \"#utility.yul\":4512:4905   */\n          swap4\n          swap3\n          pop\n          pop\n          pop\n          jump\t// out\n            /* \"#utility.yul\":4911:4988   */\n        tag_32:\n            /* \"#utility.yul\":4948:4955   */\n          0x00\n            /* \"#utility.yul\":4977:4982   */\n          dup2\n            /* \"#utility.yul\":4966:4982   */\n          swap1\n          pop\n            /* \"#utility.yul\":4911:4988   */\n          swap2\n          swap1\n          pop\n          jump\t// out\n            /* \"#utility.yul\":4994:5054   */\n        tag_33:\n            /* \"#utility.yul\":5022:5025   */\n          0x00\n            /* \"#utility.yul\":5043:5048   */\n          dup2\n            /* \"#utility.yul\":5036:5048   */\n          swap1\n          pop\n            /* \"#utility.yul\":4994:5054   */\n          swap2\n          swap1\n          pop\n          jump\t// out\n            /* \"#utility.yul\":5060:5202   */\n        tag_34:\n            /* \"#utility.yul\":5110:5119   */\n          0x00\n            /* \"#utility.yul\":5143:5196   */\n          tag_101\n            /* \"#utility.yul\":5161:5195   */\n          tag_102\n            /* \"#utility.yul\":5170:5194   */\n          tag_103\n            /* \"#utility.yul\":5188:5193   */\n          dup5\n            /* \"#utility.yul\":5170:5194   */\n          tag_32\n          jump\t// in\n        tag_103:\n            /* \"#utility.yul\":5161:5195   */\n          tag_33\n          jump\t// in\n        tag_102:\n            /* \"#utility.yul\":5143:5196   */\n          tag_32\n          jump\t// in\n        tag_101:\n            /* \"#utility.yul\":5130:5196   */\n          swap1\n          pop\n            /* \"#utility.yul\":5060:5202   */\n          swap2\n          swap1\n          pop\n          jump\t// out\n            /* \"#utility.yul\":5208:5283   */\n        tag_35:\n            /* \"#utility.yul\":5251:5254   */\n          0x00\n            /* \"#utility.yul\":5272:5277   */\n          dup2\n            /* \"#utility.yul\":5265:5277   */\n          swap1\n          pop\n            /* \"#utility.yul\":5208:5283   */\n          swap2\n          swap1\n          pop\n          jump\t// out\n            /* \"#utility.yul\":5289:5558   */\n        tag_36:\n            /* \"#utility.yul\":5399:5438   */\n          tag_106\n            /* \"#utility.yul\":5430:5437   */\n          dup4\n            /* \"#utility.yul\":5399:5438   */\n          tag_34\n          jump\t// in\n        tag_106:\n            /* \"#utility.yul\":5460:5551   */\n          tag_107\n            /* \"#utility.yul\":5509:5550   */\n          tag_108\n            /* \"#utility.yul\":5533:5549   */\n          dup3\n            /* \"#utility.yul\":5509:5550   */\n          tag_35\n          jump\t// in\n        tag_108:\n            /* \"#utility.yul\":5501:5507   */\n          dup5\n            /* \"#utility.yul\":5494:5498   */\n          dup5\n            /* \"#utility.yul\":5488:5499   */\n          sload\n            /* \"#utility.yul\":5460:5551   */\n          tag_31\n          jump\t// in\n        tag_107:\n            /* \"#utility.yul\":5454:5458   */\n          dup3\n            /* \"#utility.yul\":5447:5552   */\n          sstore\n            /* \"#utility.yul\":5365:5558   */\n          pop\n            /* \"#utility.yul\":5289:5558   */\n          pop\n          pop\n          pop\n          jump\t// out\n            /* \"#utility.yul\":5564:5637   */\n        tag_37:\n            /* \"#utility.yul\":5609:5612   */\n          0x00\n            /* \"#utility.yul\":5564:5637   */\n          swap1\n          jump\t// out\n            /* \"#utility.yul\":5643:5832   */\n        tag_38:\n            /* \"#utility.yul\":5720:5752   */\n          tag_111\n          tag_37\n          jump\t// in\n        tag_111:\n            /* \"#utility.yul\":5761:5826   */\n          tag_112\n            /* \"#utility.yul\":5819:5825   */\n          dup2\n            /* \"#utility.yul\":5811:5817   */\n          dup5\n            /* \"#utility.yul\":5805:5809   */\n          dup5\n            /* \"#utility.yul\":5761:5826   */\n          tag_36\n          jump\t// in\n        tag_112:\n            /* \"#utility.yul\":5696:5832   */\n          pop\n            /* \"#utility.yul\":5643:5832   */\n          pop\n          pop\n          jump\t// out\n            /* \"#utility.yul\":5838:6024   */\n        tag_39:\n            /* \"#utility.yul\":5898:6018   */\n        tag_114:\n            /* \"#utility.yul\":5915:5918   */\n          dup2\n            /* \"#utility.yul\":5908:5913   */\n          dup2\n            /* \"#utility.yul\":5905:5919   */\n          lt\n            /* \"#utility.yul\":5898:6018   */\n          iszero\n          tag_116\n          jumpi\n            /* \"#utility.yul\":5969:6008   */\n          tag_117\n            /* \"#utility.yul\":6006:6007   */\n          0x00\n            /* \"#utility.yul\":5999:6004   */\n          dup3\n            /* \"#utility.yul\":5969:6008   */\n          tag_38\n          jump\t// in\n        tag_117:\n            /* \"#utility.yul\":5942:5943   */\n          0x01\n            /* \"#utility.yul\":5935:5940   */\n          dup2\n            /* \"#utility.yul\":5931:5944   */\n          add\n            /* \"#utility.yul\":5922:5944   */\n          swap1\n          pop\n            /* \"#utility.yul\":5898:6018   */\n          jump(tag_114)\n        tag_116:\n            /* \"#utility.yul\":5838:6024   */\n          pop\n          pop\n          jump\t// out\n            /* \"#utility.yul\":6030:6573   */\n        tag_40:\n            /* \"#utility.yul\":6131:6133   */\n          0x1f\n            /* \"#utility.yul\":6126:6129   */\n          dup3\n            /* \"#utility.yul\":6123:6134   */\n          gt\n            /* \"#utility.yul\":6120:6566   */\n          iszero\n          tag_119\n          jumpi\n            /* \"#utility.yul\":6165:6203   */\n          tag_120\n            /* \"#utility.yul\":6197:6202   */\n          dup2\n            /* \"#utility.yul\":6165:6203   */\n          tag_28\n          jump\t// in\n        tag_120:\n            /* \"#utility.yul\":6249:6278   */\n          tag_121\n            /* \"#utility.yul\":6267:6277   */\n          dup5\n            /* \"#utility.yul\":6249:6278   */\n          tag_29\n          jump\t// in\n        tag_121:\n            /* \"#utility.yul\":6239:6247   */\n          dup2\n            /* \"#utility.yul\":6235:6279   */\n          add\n            /* \"#utility.yul\":6432:6434   */\n          0x20\n            /* \"#utility.yul\":6420:6430   */\n          dup6\n            /* \"#utility.yul\":6417:6435   */\n          lt\n            /* \"#utility.yul\":6414:6463   */\n          iszero\n          tag_122\n          jumpi\n            /* \"#utility.yul\":6453:6461   */\n          dup2\n            /* \"#utility.yul\":6438:6461   */\n          swap1\n          pop\n            /* \"#utility.yul\":6414:6463   */\n        tag_122:\n            /* \"#utility.yul\":6476:6556   */\n          tag_123\n            /* \"#utility.yul\":6532:6554   */\n          tag_124\n            /* \"#utility.yul\":6550:6553   */\n          dup6\n            /* \"#utility.yul\":6532:6554   */\n          tag_29\n          jump\t// in\n        tag_124:\n            /* \"#utility.yul\":6522:6530   */\n          dup4\n            /* \"#utility.yul\":6518:6555   */\n          add\n            /* \"#utility.yul\":6505:6516   */\n          dup3\n            /* \"#utility.yul\":6476:6556   */\n          tag_39\n          jump\t// in\n        tag_123:\n            /* \"#utility.yul\":6135:6566   */\n          pop\n          pop\n            /* \"#utility.yul\":6120:6566   */\n        tag_119:\n            /* \"#utility.yul\":6030:6573   */\n          pop\n          pop\n          pop\n          jump\t// out\n            /* \"#utility.yul\":6579:6696   */\n        tag_41:\n            /* \"#utility.yul\":6633:6641   */\n          0x00\n            /* \"#utility.yul\":6683:6688   */\n          dup3\n            /* \"#utility.yul\":6677:6681   */\n          dup3\n            /* \"#utility.yul\":6673:6689   */\n          shr\n            /* \"#utility.yul\":6652:6689   */\n          swap1\n          pop\n            /* \"#utility.yul\":6579:6696   */\n          swap3\n          swap2\n          pop\n          pop\n          jump\t// out\n            /* \"#utility.yul\":6702:6871   */\n        tag_42:\n            /* \"#utility.yul\":6746:6752   */\n          0x00\n            /* \"#utility.yul\":6779:6830   */\n          tag_127\n            /* \"#utility.yul\":6827:6828   */\n          0x00\n            /* \"#utility.yul\":6823:6829   */\n          not\n            /* \"#utility.yul\":6815:6820   */\n          dup5\n            /* \"#utility.yul\":6812:6813   */\n          0x08\n            /* \"#utility.yul\":6808:6821   */\n          mul\n            /* \"#utility.yul\":6779:6830   */\n          tag_41\n          jump\t// in\n        tag_127:\n            /* \"#utility.yul\":6775:6831   */\n          not\n            /* \"#utility.yul\":6860:6864   */\n          dup1\n            /* \"#utility.yul\":6854:6858   */\n          dup4\n            /* \"#utility.yul\":6850:6865   */\n          and\n            /* \"#utility.yul\":6840:6865   */\n          swap2\n          pop\n            /* \"#utility.yul\":6753:6871   */\n          pop\n            /* \"#utility.yul\":6702:6871   */\n          swap3\n          swap2\n          pop\n          pop\n          jump\t// out\n            /* \"#utility.yul\":6876:7171   */\n        tag_43:\n            /* \"#utility.yul\":6952:6956   */\n          0x00\n            /* \"#utility.yul\":7098:7127   */\n          tag_129\n            /* \"#utility.yul\":7123:7126   */\n          dup4\n            /* \"#utility.yul\":7117:7121   */\n          dup4\n            /* \"#utility.yul\":7098:7127   */\n          tag_42\n          jump\t// in\n        tag_129:\n            /* \"#utility.yul\":7090:7127   */\n          swap2\n          pop\n            /* \"#utility.yul\":7160:7163   */\n          dup3\n            /* \"#utility.yul\":7157:7158   */\n          0x02\n            /* \"#utility.yul\":7153:7164   */\n          mul\n            /* \"#utility.yul\":7147:7151   */\n          dup3\n            /* \"#utility.yul\":7144:7165   */\n          or\n            /* \"#utility.yul\":7136:7165   */\n          swap1\n          pop\n            /* \"#utility.yul\":6876:7171   */\n          swap3\n          swap2\n          pop\n          pop\n          jump\t// out\n            /* \"#utility.yul\":7176:8571   */\n        tag_8:\n            /* \"#utility.yul\":7293:7330   */\n          tag_131\n            /* \"#utility.yul\":7326:7329   */\n          dup3\n            /* \"#utility.yul\":7293:7330   */\n          tag_25\n          jump\t// in\n        tag_131:\n            /* \"#utility.yul\":7395:7413   */\n          0xffffffffffffffff\n            /* \"#utility.yul\":7387:7393   */\n          dup2\n            /* \"#utility.yul\":7384:7414   */\n          gt\n            /* \"#utility.yul\":7381:7437   */\n          iszero\n          tag_132\n          jumpi\n            /* \"#utility.yul\":7417:7435   */\n          tag_133\n          tag_18\n          jump\t// in\n        tag_133:\n            /* \"#utility.yul\":7381:7437   */\n        tag_132:\n            /* \"#utility.yul\":7461:7499   */\n          tag_134\n            /* \"#utility.yul\":7493:7497   */\n          dup3\n            /* \"#utility.yul\":7487:7498   */\n          sload\n            /* \"#utility.yul\":7461:7499   */\n          tag_27\n          jump\t// in\n        tag_134:\n            /* \"#utility.yul\":7546:7613   */\n          tag_135\n            /* \"#utility.yul\":7606:7612   */\n          dup3\n            /* \"#utility.yul\":7598:7604   */\n          dup3\n            /* \"#utility.yul\":7592:7596   */\n          dup6\n            /* \"#utility.yul\":7546:7613   */\n          tag_40\n          jump\t// in\n        tag_135:\n            /* \"#utility.yul\":7640:7641   */\n          0x00\n            /* \"#utility.yul\":7664:7668   */\n          0x20\n            /* \"#utility.yul\":7651:7668   */\n          swap1\n          pop\n            /* \"#utility.yul\":7696:7698   */\n          0x1f\n            /* \"#utility.yul\":7688:7694   */\n          dup4\n            /* \"#utility.yul\":7685:7699   */\n          gt\n            /* \"#utility.yul\":7713:7714   */\n          0x01\n            /* \"#utility.yul\":7708:8326   */\n          dup2\n          eq\n          tag_137\n          jumpi\n            /* \"#utility.yul\":8370:8371   */\n          0x00\n            /* \"#utility.yul\":8387:8393   */\n          dup5\n            /* \"#utility.yul\":8384:8461   */\n          iszero\n          tag_138\n          jumpi\n            /* \"#utility.yul\":8436:8445   */\n          dup3\n            /* \"#utility.yul\":8431:8434   */\n          dup8\n            /* \"#utility.yul\":8427:8446   */\n          add\n            /* \"#utility.yul\":8421:8447   */\n          mload\n            /* \"#utility.yul\":8412:8447   */\n          swap1\n          pop\n            /* \"#utility.yul\":8384:8461   */\n        tag_138:\n            /* \"#utility.yul\":8487:8554   */\n          tag_139\n            /* \"#utility.yul\":8547:8553   */\n          dup6\n            /* \"#utility.yul\":8540:8545   */\n          dup3\n            /* \"#utility.yul\":8487:8554   */\n          tag_43\n          jump\t// in\n        tag_139:\n            /* \"#utility.yul\":8481:8485   */\n          dup7\n            /* \"#utility.yul\":8474:8555   */\n          sstore\n            /* \"#utility.yul\":8343:8565   */\n          pop\n            /* \"#utility.yul\":7678:8565   */\n          jump(tag_136)\n            /* \"#utility.yul\":7708:8326   */\n        tag_137:\n            /* \"#utility.yul\":7760:7764   */\n          0x1f\n            /* \"#utility.yul\":7756:7765   */\n          not\n            /* \"#utility.yul\":7748:7754   */\n          dup5\n            /* \"#utility.yul\":7744:7766   */\n          and\n            /* \"#utility.yul\":7794:7831   */\n          tag_140\n            /* \"#utility.yul\":7826:7830   */\n          dup7\n            /* \"#utility.yul\":7794:7831   */\n          tag_28\n          jump\t// in\n        tag_140:\n            /* \"#utility.yul\":7853:7854   */\n          0x00\n            /* \"#utility.yul\":7867:8075   */\n        tag_141:\n            /* \"#utility.yul\":7881:7888   */\n          dup3\n            /* \"#utility.yul\":7878:7879   */\n          dup2\n            /* \"#utility.yul\":7875:7889   */\n          lt\n            /* \"#utility.yul\":7867:8075   */\n          iszero\n          tag_143\n          jumpi\n            /* \"#utility.yul\":7960:7969   */\n          dup5\n            /* \"#utility.yul\":7955:7958   */\n          dup10\n            /* \"#utility.yul\":7951:7970   */\n          add\n            /* \"#utility.yul\":7945:7971   */\n          mload\n            /* \"#utility.yul\":7937:7943   */\n          dup3\n            /* \"#utility.yul\":7930:7972   */\n          sstore\n            /* \"#utility.yul\":8011:8012   */\n          0x01\n            /* \"#utility.yul\":8003:8009   */\n          dup3\n            /* \"#utility.yul\":7999:8013   */\n          add\n            /* \"#utility.yul\":7989:8013   */\n          swap2\n          pop\n            /* \"#utility.yul\":8058:8060   */\n          0x20\n            /* \"#utility.yul\":8047:8056   */\n          dup6\n            /* \"#utility.yul\":8043:8061   */\n          add\n            /* \"#utility.yul\":8030:8061   */\n          swap5\n          pop\n            /* \"#utility.yul\":7904:7908   */\n          0x20\n            /* \"#utility.yul\":7901:7902   */\n          dup2\n            /* \"#utility.yul\":7897:7909   */\n          add\n            /* \"#utility.yul\":7892:7909   */\n          swap1\n          pop\n            /* \"#utility.yul\":7867:8075   */\n          jump(tag_141)\n        tag_143:\n            /* \"#utility.yul\":8103:8109   */\n          dup7\n            /* \"#utility.yul\":8094:8101   */\n          dup4\n            /* \"#utility.yul\":8091:8110   */\n          lt\n            /* \"#utility.yul\":8088:8267   */\n          iszero\n          tag_144\n          jumpi\n            /* \"#utility.yul\":8161:8170   */\n          dup5\n            /* \"#utility.yul\":8156:8159   */\n          dup10\n            /* \"#utility.yul\":8152:8171   */\n          add\n            /* \"#utility.yul\":8146:8172   */\n          mload\n            /* \"#utility.yul\":8204:8252   */\n          tag_145\n            /* \"#utility.yul\":8246:8250   */\n          0x1f\n            /* \"#utility.yul\":8238:8244   */\n          dup10\n            /* \"#utility.yul\":8234:8251   */\n          and\n            /* \"#utility.yul\":8223:8232   */\n          dup3\n            /* \"#utility.yul\":8204:8252   */\n          tag_42\n          jump\t// in\n        tag_145:\n            /* \"#utility.yul\":8196:8202   */\n          dup4\n            /* \"#utility.yul\":8189:8253   */\n          sstore\n            /* \"#utility.yul\":8111:8267   */\n          pop\n            /* \"#utility.yul\":8088:8267   */\n        tag_144:\n            /* \"#utility.yul\":8313:8314   */\n          0x01\n            /* \"#utility.yul\":8309:8310   */\n          0x02\n            /* \"#utility.yul\":8301:8307   */\n          dup9\n            /* \"#utility.yul\":8297:8311   */\n          mul\n            /* \"#utility.yul\":8293:8315   */\n          add\n            /* \"#utility.yul\":8287:8291   */\n          dup9\n            /* \"#utility.yul\":8280:8316   */\n          sstore\n            /* \"#utility.yul\":7715:8326   */\n          pop\n          pop\n          pop\n            /* \"#utility.yul\":7678:8565   */\n        tag_136:\n          pop\n            /* \"#utility.yul\":7268:8571   */\n          pop\n          pop\n          pop\n            /* \"#utility.yul\":7176:8571   */\n          pop\n          pop\n          jump\t// out\n            /* \"contracts/Token.sol\":122:246  contract Token is ERC20 {... */\n        tag_11:\n          dataSize(sub_0)\n          dup1\n          dataOffset(sub_0)\n          0x00\n          codecopy\n          0x00\n          return\n        stop\n\n        sub_0: assembly {\n                /* \"contracts/Token.sol\":122:246  contract Token is ERC20 {... */\n              mstore(0x40, 0x80)\n              callvalue\n              dup1\n              iszero\n              tag_1\n              jumpi\n              0x00\n              dup1\n              revert\n            tag_1:\n              pop\n              jumpi(tag_2, lt(calldatasize, 0x04))\n              shr(0xe0, calldataload(0x00))\n              dup1\n              0x39509351\n              gt\n              tag_14\n              jumpi\n              dup1\n              0x39509351\n              eq\n              tag_8\n              jumpi\n              dup1\n              0x70a08231\n              eq\n              tag_9\n              jumpi\n              dup1\n              0x95d89b41\n              eq\n              tag_10\n              jumpi\n              dup1\n              0xa457c2d7\n              eq\n              tag_11\n              jumpi\n              dup1\n              0xa9059cbb\n              eq\n              tag_12\n              jumpi\n              dup1\n              0xdd62ed3e\n              eq\n              tag_13\n              jumpi\n              jump(tag_2)\n            tag_14:\n              dup1\n              0x06fdde03\n              eq\n              tag_3\n              jumpi\n              dup1\n              0x095ea7b3\n              eq\n              tag_4\n              jumpi\n              dup1\n              0x18160ddd\n              eq\n              tag_5\n              jumpi\n              dup1\n              0x23b872dd\n              eq\n              tag_6\n              jumpi\n              dup1\n              0x313ce567\n              eq\n              tag_7\n              jumpi\n            tag_2:\n              0x00\n              dup1\n              revert\n                /* \"@openzeppelin/contracts/token/ERC20/ERC20.sol\":2156:2254  function name() public view virtual override returns (string memory) {... */\n            tag_3:\n              tag_15\n              tag_16\n              jump\t// in\n            tag_15:\n              mload(0x40)\n              tag_17\n              swap2\n              swap1\n              tag_18\n              jump\t// in\n            tag_17:\n              mload(0x40)\n              dup1\n              swap2\n              sub\n              swap1\n              return\n                /* \"@openzeppelin/contracts/token/ERC20/ERC20.sol\":4433:4630  function approve(address spender, uint256 amount) public virtual override returns (bool) {... */\n            tag_4:\n              tag_19\n              0x04\n              dup1\n              calldatasize\n              sub\n              dup2\n              add\n              swap1\n              tag_20\n              swap2\n              swap1\n              tag_21\n              jump\t// in\n            tag_20:\n              tag_22\n              jump\t// in\n            tag_19:\n              mload(0x40)\n              tag_23\n              swap2\n              swap1\n              tag_24\n              jump\t// in\n            tag_23:\n              mload(0x40)\n              dup1\n              swap2\n              sub\n              swap1\n              return\n                /* \"@openzeppelin/contracts/token/ERC20/ERC20.sol\":3244:3350  function totalSupply() public view virtual override returns (uint256) {... */\n            tag_5:\n              tag_25\n              tag_26\n              jump\t// in\n            tag_25:\n              mload(0x40)\n              tag_27\n              swap2\n              swap1\n              tag_28\n              jump\t// in\n            tag_27:\n              mload(0x40)\n              dup1\n              swap2\n              sub\n              swap1\n              return\n                /* \"@openzeppelin/contracts/token/ERC20/ERC20.sol\":5192:5478  function transferFrom(... */\n            tag_6:\n              tag_29\n              0x04\n              dup1\n              calldatasize\n              sub\n              dup2\n              add\n              swap1\n              tag_30\n              swap2\n              swap1\n              tag_31\n              jump\t// in\n            tag_30:\n              tag_32\n              jump\t// in\n            tag_29:\n              mload(0x40)\n              tag_33\n              swap2\n              swap1\n              tag_24\n              jump\t// in\n            tag_33:\n              mload(0x40)\n              dup1\n              swap2\n              sub\n              swap1\n              return\n                /* \"@openzeppelin/contracts/token/ERC20/ERC20.sol\":3093:3184  function decimals() public view virtual override returns (uint8) {... */\n            tag_7:\n              tag_34\n              tag_35\n              jump\t// in\n            tag_34:\n              mload(0x40)\n              tag_36\n              swap2\n              swap1\n              tag_37\n              jump\t// in\n            tag_36:\n              mload(0x40)\n              dup1\n              swap2\n              sub\n              swap1\n              return\n                /* \"@openzeppelin/contracts/token/ERC20/ERC20.sol\":5873:6107  function increaseAllowance(address spender, uint256 addedValue) public virtual returns (bool) {... */\n            tag_8:\n              tag_38\n              0x04\n              dup1\n              calldatasize\n              sub\n              dup2\n              add\n              swap1\n              tag_39\n              swap2\n              swap1\n              tag_21\n              jump\t// in\n            tag_39:\n              tag_40\n              jump\t// in\n            tag_38:\n              mload(0x40)\n              tag_41\n              swap2\n              swap1\n              tag_24\n              jump\t// in\n            tag_41:\n              mload(0x40)\n              dup1\n              swap2\n              sub\n              swap1\n              return\n                /* \"@openzeppelin/contracts/token/ERC20/ERC20.sol\":3408:3533  function balanceOf(address account) public view virtual override returns (uint256) {... */\n            tag_9:\n              tag_42\n              0x04\n              dup1\n              calldatasize\n              sub\n              dup2\n              add\n              swap1\n              tag_43\n              swap2\n              swap1\n              tag_44\n              jump\t// in\n            tag_43:\n              tag_45\n              jump\t// in\n            tag_42:\n              mload(0x40)\n              tag_46\n              swap2\n              swap1\n              tag_28\n              jump\t// in\n            tag_46:\n              mload(0x40)\n              dup1\n              swap2\n              sub\n              swap1\n              return\n                /* \"@openzeppelin/contracts/token/ERC20/ERC20.sol\":2367:2469  function symbol() public view virtual override returns (string memory) {... */\n            tag_10:\n              tag_47\n              tag_48\n              jump\t// in\n            tag_47:\n              mload(0x40)\n              tag_49\n              swap2\n              swap1\n              tag_18\n              jump\t// in\n            tag_49:\n              mload(0x40)\n              dup1\n              swap2\n              sub\n              swap1\n              return\n                /* \"@openzeppelin/contracts/token/ERC20/ERC20.sol\":6594:7021  function decreaseAllowance(address spender, uint256 subtractedValue) public virtual returns (bool) {... */\n            tag_11:\n              tag_50\n              0x04\n              dup1\n              calldatasize\n              sub\n              dup2\n              add\n              swap1\n              tag_51\n              swap2\n              swap1\n              tag_21\n              jump\t// in\n            tag_51:\n              tag_52\n              jump\t// in\n            tag_50:\n              mload(0x40)\n              tag_53\n              swap2\n              swap1\n              tag_24\n              jump\t// in\n            tag_53:\n              mload(0x40)\n              dup1\n              swap2\n              sub\n              swap1\n              return\n                /* \"@openzeppelin/contracts/token/ERC20/ERC20.sol\":3729:3918  function transfer(address to, uint256 amount) public virtual override returns (bool) {... */\n            tag_12:\n              tag_54\n              0x04\n              dup1\n              calldatasize\n              sub\n              dup2\n              add\n              swap1\n              tag_55\n              swap2\n              swap1\n              tag_21\n              jump\t// in\n            tag_55:\n              tag_56\n              jump\t// in\n            tag_54:\n              mload(0x40)\n              tag_57\n              swap2\n              swap1\n              tag_24\n              jump\t// in\n            tag_57:\n              mload(0x40)\n              dup1\n              swap2\n              sub\n              swap1\n              return\n                /* \"@openzeppelin/contracts/token/ERC20/ERC20.sol\":3976:4125  function allowance(address owner, address spender) public view virtual override returns (uint256) {... */\n            tag_13:\n              tag_58\n              0x04\n              dup1\n              calldatasize\n              sub\n              dup2\n              add\n              swap1\n              tag_59\n              swap2\n              swap1\n              tag_60\n              jump\t// in\n            tag_59:\n              tag_61\n              jump\t// in\n            tag_58:\n              mload(0x40)\n              tag_62\n              swap2\n              swap1\n              tag_28\n              jump\t// in\n            tag_62:\n              mload(0x40)\n              dup1\n              swap2\n              sub\n              swap1\n              return\n                /* \"@openzeppelin/contracts/token/ERC20/ERC20.sol\":2156:2254  function name() public view virtual override returns (string memory) {... */\n            tag_16:\n                /* \"@openzeppelin/contracts/token/ERC20/ERC20.sol\":2210:2223  string memory */\n              0x60\n                /* \"@openzeppelin/contracts/token/ERC20/ERC20.sol\":2242:2247  _name */\n              0x03\n                /* \"@openzeppelin/contracts/token/ERC20/ERC20.sol\":2235:2247  return _name */\n              dup1\n              sload\n              tag_64\n              swap1\n              tag_65\n              jump\t// in\n            tag_64:\n              dup1\n              0x1f\n              add\n              0x20\n              dup1\n              swap2\n              div\n              mul\n              0x20\n              add\n              mload(0x40)\n              swap1\n              dup2\n              add\n              0x40\n              mstore\n              dup1\n              swap3\n              swap2\n              swap1\n              dup2\n              dup2\n              mstore\n              0x20\n              add\n              dup3\n              dup1\n              sload\n              tag_66\n              swap1\n              tag_65\n              jump\t// in\n            tag_66:\n              dup1\n              iszero\n              tag_67\n              jumpi\n              dup1\n              0x1f\n              lt\n              tag_68\n              jumpi\n              0x0100\n              dup1\n              dup4\n              sload\n              div\n              mul\n              dup4\n              mstore\n              swap2\n              0x20\n              add\n              swap2\n              jump(tag_67)\n            tag_68:\n              dup3\n              add\n              swap2\n              swap1\n              0x00\n              mstore\n              keccak256(0x00, 0x20)\n              swap1\n            tag_69:\n              dup2\n              sload\n              dup2\n              mstore\n              swap1\n              0x01\n              add\n              swap1\n              0x20\n              add\n              dup1\n              dup4\n              gt\n              tag_69\n              jumpi\n              dup3\n              swap1\n              sub\n              0x1f\n              and\n              dup3\n              add\n              swap2\n            tag_67:\n              pop\n              pop\n              pop\n              pop\n              pop\n              swap1\n              pop\n                /* \"@openzeppelin/contracts/token/ERC20/ERC20.sol\":2156:2254  function name() public view virtual override returns (string memory) {... */\n              swap1\n              jump\t// out\n                /* \"@openzeppelin/contracts/token/ERC20/ERC20.sol\":4433:4630  function approve(address spender, uint256 amount) public virtual override returns (bool) {... */\n            tag_22:\n                /* \"@openzeppelin/contracts/token/ERC20/ERC20.sol\":4516:4520  bool */\n              0x00\n                /* \"@openzeppelin/contracts/token/ERC20/ERC20.sol\":4532:4545  address owner */\n              dup1\n                /* \"@openzeppelin/contracts/token/ERC20/ERC20.sol\":4548:4560  _msgSender() */\n              tag_71\n                /* \"@openzeppelin/contracts/token/ERC20/ERC20.sol\":4548:4558  _msgSender */\n              tag_72\n                /* \"@openzeppelin/contracts/token/ERC20/ERC20.sol\":4548:4560  _msgSender() */\n              jump\t// in\n            tag_71:\n                /* \"@openzeppelin/contracts/token/ERC20/ERC20.sol\":4532:4560  address owner = _msgSender() */\n              swap1\n              pop\n                /* \"@openzeppelin/contracts/token/ERC20/ERC20.sol\":4570:4602  _approve(owner, spender, amount) */\n              tag_73\n                /* \"@openzeppelin/contracts/token/ERC20/ERC20.sol\":4579:4584  owner */\n              dup2\n                /* \"@openzeppelin/contracts/token/ERC20/ERC20.sol\":4586:4593  spender */\n              dup6\n                /* \"@openzeppelin/contracts/token/ERC20/ERC20.sol\":4595:4601  amount */\n              dup6\n                /* \"@openzeppelin/contracts/token/ERC20/ERC20.sol\":4570:4578  _approve */\n              tag_74\n                /* \"@openzeppelin/contracts/token/ERC20/ERC20.sol\":4570:4602  _approve(owner, spender, amount) */\n              jump\t// in\n            tag_73:\n                /* \"@openzeppelin/contracts/token/ERC20/ERC20.sol\":4619:4623  true */\n              0x01\n                /* \"@openzeppelin/contracts/token/ERC20/ERC20.sol\":4612:4623  return true */\n              swap2\n              pop\n              pop\n                /* \"@openzeppelin/contracts/token/ERC20/ERC20.sol\":4433:4630  function approve(address spender, uint256 amount) public virtual override returns (bool) {... */\n              swap3\n              swap2\n              pop\n              pop\n              jump\t// out\n                /* \"@openzeppelin/contracts/token/ERC20/ERC20.sol\":3244:3350  function totalSupply() public view virtual override returns (uint256) {... */\n            tag_26:\n                /* \"@openzeppelin/contracts/token/ERC20/ERC20.sol\":3305:3312  uint256 */\n              0x00\n                /* \"@openzeppelin/contracts/token/ERC20/ERC20.sol\":3331:3343  _totalSupply */\n              sload(0x02)\n                /* \"@openzeppelin/contracts/token/ERC20/ERC20.sol\":3324:3343  return _totalSupply */\n              swap1\n              pop\n                /* \"@openzeppelin/contracts/token/ERC20/ERC20.sol\":3244:3350  function totalSupply() public view virtual override returns (uint256) {... */\n              swap1\n              jump\t// out\n                /* \"@openzeppelin/contracts/token/ERC20/ERC20.sol\":5192:5478  function transferFrom(... */\n            tag_32:\n                /* \"@openzeppelin/contracts/token/ERC20/ERC20.sol\":5319:5323  bool */\n              0x00\n                /* \"@openzeppelin/contracts/token/ERC20/ERC20.sol\":5335:5350  address spender */\n              dup1\n                /* \"@openzeppelin/contracts/token/ERC20/ERC20.sol\":5353:5365  _msgSender() */\n              tag_77\n                /* \"@openzeppelin/contracts/token/ERC20/ERC20.sol\":5353:5363  _msgSender */\n              tag_72\n                /* \"@openzeppelin/contracts/token/ERC20/ERC20.sol\":5353:5365  _msgSender() */\n              jump\t// in\n            tag_77:\n                /* \"@openzeppelin/contracts/token/ERC20/ERC20.sol\":5335:5365  address spender = _msgSender() */\n              swap1\n              pop\n                /* \"@openzeppelin/contracts/token/ERC20/ERC20.sol\":5375:5413  _spendAllowance(from, spender, amount) */\n              tag_78\n                /* \"@openzeppelin/contracts/token/ERC20/ERC20.sol\":5391:5395  from */\n              dup6\n                /* \"@openzeppelin/contracts/token/ERC20/ERC20.sol\":5397:5404  spender */\n              dup3\n                /* \"@openzeppelin/contracts/token/ERC20/ERC20.sol\":5406:5412  amount */\n              dup6\n                /* \"@openzeppelin/contracts/token/ERC20/ERC20.sol\":5375:5390  _spendAllowance */\n              tag_79\n                /* \"@openzeppelin/contracts/token/ERC20/ERC20.sol\":5375:5413  _spendAllowance(from, spender, amount) */\n              jump\t// in\n            tag_78:\n                /* \"@openzeppelin/contracts/token/ERC20/ERC20.sol\":5423:5450  _transfer(from, to, amount) */\n              tag_80\n                /* \"@openzeppelin/contracts/token/ERC20/ERC20.sol\":5433:5437  from */\n              dup6\n                /* \"@openzeppelin/contracts/token/ERC20/ERC20.sol\":5439:5441  to */\n              dup6\n                /* \"@openzeppelin/contracts/token/ERC20/ERC20.sol\":5443:5449  amount */\n              dup6\n                /* \"@openzeppelin/contracts/token/ERC20/ERC20.sol\":5423:5432  _transfer */\n              tag_81\n                /* \"@openzeppelin/contracts/token/ERC20/ERC20.sol\":5423:5450  _transfer(from, to, amount) */\n              jump\t// in\n            tag_80:\n                /* \"@openzeppelin/contracts/token/ERC20/ERC20.sol\":5467:5471  true */\n              0x01\n                /* \"@openzeppelin/contracts/token/ERC20/ERC20.sol\":5460:5471  return true */\n              swap2\n              pop\n              pop\n                /* \"@openzeppelin/contracts/token/ERC20/ERC20.sol\":5192:5478  function transferFrom(... */\n              swap4\n              swap3\n              pop\n              pop\n              pop\n              jump\t// out\n                /* \"@openzeppelin/contracts/token/ERC20/ERC20.sol\":3093:3184  function decimals() public view virtual override returns (uint8) {... */\n            tag_35:\n                /* \"@openzeppelin/contracts/token/ERC20/ERC20.sol\":3151:3156  uint8 */\n              0x00\n                /* \"@openzeppelin/contracts/token/ERC20/ERC20.sol\":3175:3177  18 */\n              0x12\n                /* \"@openzeppelin/contracts/token/ERC20/ERC20.sol\":3168:3177  return 18 */\n              swap1\n              pop\n                /* \"@openzeppelin/contracts/token/ERC20/ERC20.sol\":3093:3184  function decimals() public view virtual override returns (uint8) {... */\n              swap1\n              jump\t// out\n                /* \"@openzeppelin/contracts/token/ERC20/ERC20.sol\":5873:6107  function increaseAllowance(address spender, uint256 addedValue) public virtual returns (bool) {... */\n            tag_40:\n                /* \"@openzeppelin/contracts/token/ERC20/ERC20.sol\":5961:5965  bool */\n              0x00\n                /* \"@openzeppelin/contracts/token/ERC20/ERC20.sol\":5977:5990  address owner */\n              dup1\n                /* \"@openzeppelin/contracts/token/ERC20/ERC20.sol\":5993:6005  _msgSender() */\n              tag_84\n                /* \"@openzeppelin/contracts/token/ERC20/ERC20.sol\":5993:6003  _msgSender */\n              tag_72\n                /* \"@openzeppelin/contracts/token/ERC20/ERC20.sol\":5993:6005  _msgSender() */\n              jump\t// in\n            tag_84:\n                /* \"@openzeppelin/contracts/token/ERC20/ERC20.sol\":5977:6005  address owner = _msgSender() */\n              swap1\n              pop\n                /* \"@openzeppelin/contracts/token/ERC20/ERC20.sol\":6015:6079  _approve(owner, spender, allowance(owner, spender) + addedValue) */\n              tag_85\n                /* \"@openzeppelin/contracts/token/ERC20/ERC20.sol\":6024:6029  owner */\n              dup2\n                /* \"@openzeppelin/contracts/token/ERC20/ERC20.sol\":6031:6038  spender */\n              dup6\n                /* \"@openzeppelin/contracts/token/ERC20/ERC20.sol\":6068:6078  addedValue */\n              dup6\n                /* \"@openzeppelin/contracts/token/ERC20/ERC20.sol\":6040:6065  allowance(owner, spender) */\n              tag_86\n                /* \"@openzeppelin/contracts/token/ERC20/ERC20.sol\":6050:6055  owner */\n              dup6\n                /* \"@openzeppelin/contracts/token/ERC20/ERC20.sol\":6057:6064  spender */\n              dup10\n                /* \"@openzeppelin/contracts/token/ERC20/ERC20.sol\":6040:6049  allowance */\n              tag_61\n                /* \"@openzeppelin/contracts/token/ERC20/ERC20.sol\":6040:6065  allowance(owner, spender) */\n              jump\t// in\n            tag_86:\n                /* \"@openzeppelin/contracts/token/ERC20/ERC20.sol\":6040:6078  allowance(owner, spender) + addedValue */\n              tag_87\n              swap2\n              swap1\n              tag_88\n              jump\t// in\n            tag_87:\n                /* \"@openzeppelin/contracts/token/ERC20/ERC20.sol\":6015:6023  _approve */\n              tag_74\n                /* \"@openzeppelin/contracts/token/ERC20/ERC20.sol\":6015:6079  _approve(owner, spender, allowance(owner, spender) + addedValue) */\n              jump\t// in\n            tag_85:\n                /* \"@openzeppelin/contracts/token/ERC20/ERC20.sol\":6096:6100  true */\n              0x01\n                /* \"@openzeppelin/contracts/token/ERC20/ERC20.sol\":6089:6100  return true */\n              swap2\n              pop\n              pop\n                /* \"@openzeppelin/contracts/token/ERC20/ERC20.sol\":5873:6107  function increaseAllowance(address spender, uint256 addedValue) public virtual returns (bool) {... */\n              swap3\n              swap2\n              pop\n              pop\n              jump\t// out\n                /* \"@openzeppelin/contracts/token/ERC20/ERC20.sol\":3408:3533  function balanceOf(address account) public view virtual override returns (uint256) {... */\n            tag_45:\n                /* \"@openzeppelin/contracts/token/ERC20/ERC20.sol\":3482:3489  uint256 */\n              0x00\n                /* \"@openzeppelin/contracts/token/ERC20/ERC20.sol\":3508:3517  _balances */\n              dup1\n                /* \"@openzeppelin/contracts/token/ERC20/ERC20.sol\":3508:3526  _balances[account] */\n              0x00\n                /* \"@openzeppelin/contracts/token/ERC20/ERC20.sol\":3518:3525  account */\n              dup4\n                /* \"@openzeppelin/contracts/token/ERC20/ERC20.sol\":3508:3526  _balances[account] */\n              0xffffffffffffffffffffffffffffffffffffffff\n              and\n              0xffffffffffffffffffffffffffffffffffffffff\n              and\n              dup2\n              mstore\n              0x20\n              add\n              swap1\n              dup2\n              mstore\n              0x20\n              add\n              0x00\n              keccak256\n              sload\n                /* \"@openzeppelin/contracts/token/ERC20/ERC20.sol\":3501:3526  return _balances[account] */\n              swap1\n              pop\n                /* \"@openzeppelin/contracts/token/ERC20/ERC20.sol\":3408:3533  function balanceOf(address account) public view virtual override returns (uint256) {... */\n              swap2\n              swap1\n              pop\n              jump\t// out\n                /* \"@openzeppelin/contracts/token/ERC20/ERC20.sol\":2367:2469  function symbol() public view virtual override returns (string memory) {... */\n            tag_48:\n                /* \"@openzeppelin/contracts/token/ERC20/ERC20.sol\":2423:2436  string memory */\n              0x60\n                /* \"@openzeppelin/contracts/token/ERC20/ERC20.sol\":2455:2462  _symbol */\n              0x04\n                /* \"@openzeppelin/contracts/token/ERC20/ERC20.sol\":2448:2462  return _symbol */\n              dup1\n              sload\n              tag_91\n              swap1\n              tag_65\n              jump\t// in\n            tag_91:\n              dup1\n              0x1f\n              add\n              0x20\n              dup1\n              swap2\n              div\n              mul\n              0x20\n              add\n              mload(0x40)\n              swap1\n              dup2\n              add\n              0x40\n              mstore\n              dup1\n              swap3\n              swap2\n              swap1\n              dup2\n              dup2\n              mstore\n              0x20\n              add\n              dup3\n              dup1\n              sload\n              tag_92\n              swap1\n              tag_65\n              jump\t// in\n            tag_92:\n              dup1\n              iszero\n              tag_93\n              jumpi\n              dup1\n              0x1f\n              lt\n              tag_94\n              jumpi\n              0x0100\n              dup1\n              dup4\n              sload\n              div\n              mul\n              dup4\n              mstore\n              swap2\n              0x20\n              add\n              swap2\n              jump(tag_93)\n            tag_94:\n              dup3\n              add\n              swap2\n              swap1\n              0x00\n              mstore\n              keccak256(0x00, 0x20)\n              swap1\n            tag_95:\n              dup2\n              sload\n              dup2\n              mstore\n              swap1\n              0x01\n              add\n              swap1\n              0x20\n              add\n              dup1\n              dup4\n              gt\n              tag_95\n              jumpi\n              dup3\n              swap1\n              sub\n              0x1f\n              and\n              dup3\n              add\n              swap2\n            tag_93:\n              pop\n              pop\n              pop\n              pop\n              pop\n              swap1\n              pop\n                /* \"@openzeppelin/contracts/token/ERC20/ERC20.sol\":2367:2469  function symbol() public view virtual override returns (string memory) {... */\n              swap1\n              jump\t// out\n                /* \"@openzeppelin/contracts/token/ERC20/ERC20.sol\":6594:7021  function decreaseAllowance(address spender, uint256 subtractedValue) public virtual returns (bool) {... */\n            tag_52:\n                /* \"@openzeppelin/contracts/token/ERC20/ERC20.sol\":6687:6691  bool */\n              0x00\n                /* \"@openzeppelin/contracts/token/ERC20/ERC20.sol\":6703:6716  address owner */\n              dup1\n                /* \"@openzeppelin/contracts/token/ERC20/ERC20.sol\":6719:6731  _msgSender() */\n              tag_97\n                /* \"@openzeppelin/contracts/token/ERC20/ERC20.sol\":6719:6729  _msgSender */\n              tag_72\n                /* \"@openzeppelin/contracts/token/ERC20/ERC20.sol\":6719:6731  _msgSender() */\n              jump\t// in\n            tag_97:\n                /* \"@openzeppelin/contracts/token/ERC20/ERC20.sol\":6703:6731  address owner = _msgSender() */\n              swap1\n              pop\n                /* \"@openzeppelin/contracts/token/ERC20/ERC20.sol\":6741:6765  uint256 currentAllowance */\n              0x00\n                /* \"@openzeppelin/contracts/token/ERC20/ERC20.sol\":6768:6793  allowance(owner, spender) */\n              tag_98\n                /* \"@openzeppelin/contracts/token/ERC20/ERC20.sol\":6778:6783  owner */\n              dup3\n                /* \"@openzeppelin/contracts/token/ERC20/ERC20.sol\":6785:6792  spender */\n              dup7\n                /* \"@openzeppelin/contracts/token/ERC20/ERC20.sol\":6768:6777  allowance */\n              tag_61\n                /* \"@openzeppelin/contracts/token/ERC20/ERC20.sol\":6768:6793  allowance(owner, spender) */\n              jump\t// in\n            tag_98:\n                /* \"@openzeppelin/contracts/token/ERC20/ERC20.sol\":6741:6793  uint256 currentAllowance = allowance(owner, spender) */\n              swap1\n              pop\n                /* \"@openzeppelin/contracts/token/ERC20/ERC20.sol\":6831:6846  subtractedValue */\n              dup4\n                /* \"@openzeppelin/contracts/token/ERC20/ERC20.sol\":6811:6827  currentAllowance */\n              dup2\n                /* \"@openzeppelin/contracts/token/ERC20/ERC20.sol\":6811:6846  currentAllowance >= subtractedValue */\n              lt\n              iszero\n                /* \"@openzeppelin/contracts/token/ERC20/ERC20.sol\":6803:6888  require(currentAllowance >= subtractedValue, \"ERC20: decreased allowance below zero\") */\n              tag_99\n              jumpi\n              mload(0x40)\n              0x08c379a000000000000000000000000000000000000000000000000000000000\n              dup2\n              mstore\n              0x04\n              add\n              tag_100\n              swap1\n              tag_101\n              jump\t// in\n            tag_100:\n              mload(0x40)\n              dup1\n              swap2\n              sub\n              swap1\n              revert\n            tag_99:\n                /* \"@openzeppelin/contracts/token/ERC20/ERC20.sol\":6922:6982  _approve(owner, spender, currentAllowance - subtractedValue) */\n              tag_102\n                /* \"@openzeppelin/contracts/token/ERC20/ERC20.sol\":6931:6936  owner */\n              dup3\n                /* \"@openzeppelin/contracts/token/ERC20/ERC20.sol\":6938:6945  spender */\n              dup7\n                /* \"@openzeppelin/contracts/token/ERC20/ERC20.sol\":6966:6981  subtractedValue */\n              dup7\n                /* \"@openzeppelin/contracts/token/ERC20/ERC20.sol\":6947:6963  currentAllowance */\n              dup5\n                /* \"@openzeppelin/contracts/token/ERC20/ERC20.sol\":6947:6981  currentAllowance - subtractedValue */\n              sub\n                /* \"@openzeppelin/contracts/token/ERC20/ERC20.sol\":6922:6930  _approve */\n              tag_74\n                /* \"@openzeppelin/contracts/token/ERC20/ERC20.sol\":6922:6982  _approve(owner, spender, currentAllowance - subtractedValue) */\n              jump\t// in\n            tag_102:\n                /* \"@openzeppelin/contracts/token/ERC20/ERC20.sol\":7010:7014  true */\n              0x01\n                /* \"@openzeppelin/contracts/token/ERC20/ERC20.sol\":7003:7014  return true */\n              swap3\n              pop\n              pop\n              pop\n                /* \"@openzeppelin/contracts/token/ERC20/ERC20.sol\":6594:7021  function decreaseAllowance(address spender, uint256 subtractedValue) public virtual returns (bool) {... */\n              swap3\n              swap2\n              pop\n              pop\n              jump\t// out\n                /* \"@openzeppelin/contracts/token/ERC20/ERC20.sol\":3729:3918  function transfer(address to, uint256 amount) public virtual override returns (bool) {... */\n            tag_56:\n                /* \"@openzeppelin/contracts/token/ERC20/ERC20.sol\":3808:3812  bool */\n              0x00\n                /* \"@openzeppelin/contracts/token/ERC20/ERC20.sol\":3824:3837  address owner */\n              dup1\n                /* \"@openzeppelin/contracts/token/ERC20/ERC20.sol\":3840:3852  _msgSender() */\n              tag_104\n                /* \"@openzeppelin/contracts/token/ERC20/ERC20.sol\":3840:3850  _msgSender */\n              tag_72\n                /* \"@openzeppelin/contracts/token/ERC20/ERC20.sol\":3840:3852  _msgSender() */\n              jump\t// in\n            tag_104:\n                /* \"@openzeppelin/contracts/token/ERC20/ERC20.sol\":3824:3852  address owner = _msgSender() */\n              swap1\n              pop\n                /* \"@openzeppelin/contracts/token/ERC20/ERC20.sol\":3862:3890  _transfer(owner, to, amount) */\n              tag_105\n                /* \"@openzeppelin/contracts/token/ERC20/ERC20.sol\":3872:3877  owner */\n              dup2\n                /* \"@openzeppelin/contracts/token/ERC20/ERC20.sol\":3879:3881  to */\n              dup6\n                /* \"@openzeppelin/contracts/token/ERC20/ERC20.sol\":3883:3889  amount */\n              dup6\n                /* \"@openzeppelin/contracts/token/ERC20/ERC20.sol\":3862:3871  _transfer */\n              tag_81\n                /* \"@openzeppelin/contracts/token/ERC20/ERC20.sol\":3862:3890  _transfer(owner, to, amount) */\n              jump\t// in\n            tag_105:\n                /* \"@openzeppelin/contracts/token/ERC20/ERC20.sol\":3907:3911  true */\n              0x01\n                /* \"@openzeppelin/contracts/token/ERC20/ERC20.sol\":3900:3911  return true */\n              swap2\n              pop\n              pop\n                /* \"@openzeppelin/contracts/token/ERC20/ERC20.sol\":3729:3918  function transfer(address to, uint256 amount) public virtual override returns (bool) {... */\n              swap3\n              swap2\n              pop\n              pop\n              jump\t// out\n                /* \"@openzeppelin/contracts/token/ERC20/ERC20.sol\":3976:4125  function allowance(address owner, address spender) public view virtual override returns (uint256) {... */\n            tag_61:\n                /* \"@openzeppelin/contracts/token/ERC20/ERC20.sol\":4065:4072  uint256 */\n              0x00\n                /* \"@openzeppelin/contracts/token/ERC20/ERC20.sol\":4091:4102  _allowances */\n              0x01\n                /* \"@openzeppelin/contracts/token/ERC20/ERC20.sol\":4091:4109  _allowances[owner] */\n              0x00\n                /* \"@openzeppelin/contracts/token/ERC20/ERC20.sol\":4103:4108  owner */\n              dup5\n                /* \"@openzeppelin/contracts/token/ERC20/ERC20.sol\":4091:4109  _allowances[owner] */\n              0xffffffffffffffffffffffffffffffffffffffff\n              and\n              0xffffffffffffffffffffffffffffffffffffffff\n              and\n              dup2\n              mstore\n              0x20\n              add\n              swap1\n              dup2\n              mstore\n              0x20\n              add\n              0x00\n              keccak256\n                /* \"@openzeppelin/contracts/token/ERC20/ERC20.sol\":4091:4118  _allowances[owner][spender] */\n              0x00\n                /* \"@openzeppelin/contracts/token/ERC20/ERC20.sol\":4110:4117  spender */\n              dup4\n                /* \"@openzeppelin/contracts/token/ERC20/ERC20.sol\":4091:4118  _allowances[owner][spender] */\n              0xffffffffffffffffffffffffffffffffffffffff\n              and\n              0xffffffffffffffffffffffffffffffffffffffff\n              and\n              dup2\n              mstore\n              0x20\n              add\n              swap1\n              dup2\n              mstore\n              0x20\n              add\n              0x00\n              keccak256\n              sload\n                /* \"@openzeppelin/contracts/token/ERC20/ERC20.sol\":4084:4118  return _allowances[owner][spender] */\n              swap1\n              pop\n                /* \"@openzeppelin/contracts/token/ERC20/ERC20.sol\":3976:4125  function allowance(address owner, address spender) public view virtual override returns (uint256) {... */\n              swap3\n              swap2\n              pop\n              pop\n              jump\t// out\n                /* \"@openzeppelin/contracts/utils/Context.sol\":640:736  function _msgSender() internal view virtual returns (address) {... */\n            tag_72:\n                /* \"@openzeppelin/contracts/utils/Context.sol\":693:700  address */\n              0x00\n                /* \"@openzeppelin/contracts/utils/Context.sol\":719:729  msg.sender */\n              caller\n                /* \"@openzeppelin/contracts/utils/Context.sol\":712:729  return msg.sender */\n              swap1\n              pop\n                /* \"@openzeppelin/contracts/utils/Context.sol\":640:736  function _msgSender() internal view virtual returns (address) {... */\n              swap1\n              jump\t// out\n                /* \"@openzeppelin/contracts/token/ERC20/ERC20.sol\":10110:10480  function _approve(... */\n            tag_74:\n                /* \"@openzeppelin/contracts/token/ERC20/ERC20.sol\":10258:10259  0 */\n              0x00\n                /* \"@openzeppelin/contracts/token/ERC20/ERC20.sol\":10241:10260  owner != address(0) */\n              0xffffffffffffffffffffffffffffffffffffffff\n              and\n                /* \"@openzeppelin/contracts/token/ERC20/ERC20.sol\":10241:10246  owner */\n              dup4\n                /* \"@openzeppelin/contracts/token/ERC20/ERC20.sol\":10241:10260  owner != address(0) */\n              0xffffffffffffffffffffffffffffffffffffffff\n              and\n              sub\n                /* \"@openzeppelin/contracts/token/ERC20/ERC20.sol\":10233:10301  require(owner != address(0), \"ERC20: approve from the zero address\") */\n              tag_109\n              jumpi\n              mload(0x40)\n              0x08c379a000000000000000000000000000000000000000000000000000000000\n              dup2\n              mstore\n              0x04\n              add\n              tag_110\n              swap1\n              tag_111\n              jump\t// in\n            tag_110:\n              mload(0x40)\n              dup1\n              swap2\n              sub\n              swap1\n              revert\n            tag_109:\n                /* \"@openzeppelin/contracts/token/ERC20/ERC20.sol\":10338:10339  0 */\n              0x00\n                /* \"@openzeppelin/contracts/token/ERC20/ERC20.sol\":10319:10340  spender != address(0) */\n              0xffffffffffffffffffffffffffffffffffffffff\n              and\n                /* \"@openzeppelin/contracts/token/ERC20/ERC20.sol\":10319:10326  spender */\n              dup3\n                /* \"@openzeppelin/contracts/token/ERC20/ERC20.sol\":10319:10340  spender != address(0) */\n              0xffffffffffffffffffffffffffffffffffffffff\n              and\n              sub\n                /* \"@openzeppelin/contracts/token/ERC20/ERC20.sol\":10311:10379  require(spender != address(0), \"ERC20: approve to the zero address\") */\n              tag_112\n              jumpi\n              mload(0x40)\n              0x08c379a000000000000000000000000000000000000000000000000000000000\n              dup2\n              mstore\n              0x04\n              add\n              tag_113\n              swap1\n              tag_114\n              jump\t// in\n            tag_113:\n              mload(0x40)\n              dup1\n              swap2\n              sub\n              swap1\n              revert\n            tag_112:\n                /* \"@openzeppelin/contracts/token/ERC20/ERC20.sol\":10420:10426  amount */\n              dup1\n                /* \"@openzeppelin/contracts/token/ERC20/ERC20.sol\":10390:10401  _allowances */\n              0x01\n                /* \"@openzeppelin/contracts/token/ERC20/ERC20.sol\":10390:10408  _allowances[owner] */\n              0x00\n                /* \"@openzeppelin/contracts/token/ERC20/ERC20.sol\":10402:10407  owner */\n              dup6\n                /* \"@openzeppelin/contracts/token/ERC20/ERC20.sol\":10390:10408  _allowances[owner] */\n              0xffffffffffffffffffffffffffffffffffffffff\n              and\n              0xffffffffffffffffffffffffffffffffffffffff\n              and\n              dup2\n              mstore\n              0x20\n              add\n              swap1\n              dup2\n              mstore\n              0x20\n              add\n              0x00\n              keccak256\n                /* \"@openzeppelin/contracts/token/ERC20/ERC20.sol\":10390:10417  _allowances[owner][spender] */\n              0x00\n                /* \"@openzeppelin/contracts/token/ERC20/ERC20.sol\":10409:10416  spender */\n              dup5\n                /* \"@openzeppelin/contracts/token/ERC20/ERC20.sol\":10390:10417  _allowances[owner][spender] */\n              0xffffffffffffffffffffffffffffffffffffffff\n              and\n              0xffffffffffffffffffffffffffffffffffffffff\n              and\n              dup2\n              mstore\n              0x20\n              add\n              swap1\n              dup2\n              mstore\n              0x20\n              add\n              0x00\n              keccak256\n                /* \"@openzeppelin/contracts/token/ERC20/ERC20.sol\":10390:10426  _allowances[owner][spender] = amount */\n              dup2\n              swap1\n              sstore\n              pop\n                /* \"@openzeppelin/contracts/token/ERC20/ERC20.sol\":10457:10464  spender */\n              dup2\n                /* \"@openzeppelin/contracts/token/ERC20/ERC20.sol\":10441:10473  Approval(owner, spender, amount) */\n              0xffffffffffffffffffffffffffffffffffffffff\n              and\n                /* \"@openzeppelin/contracts/token/ERC20/ERC20.sol\":10450:10455  owner */\n              dup4\n                /* \"@openzeppelin/contracts/token/ERC20/ERC20.sol\":10441:10473  Approval(owner, spender, amount) */\n              0xffffffffffffffffffffffffffffffffffffffff\n              and\n              0x8c5be1e5ebec7d5bd14f71427d1e84f3dd0314c0f7b2291e5b200ac8c7c3b925\n                /* \"@openzeppelin/contracts/token/ERC20/ERC20.sol\":10466:10472  amount */\n              dup4\n                /* \"@openzeppelin/contracts/token/ERC20/ERC20.sol\":10441:10473  Approval(owner, spender, amount) */\n              mload(0x40)\n              tag_115\n              swap2\n              swap1\n              tag_28\n              jump\t// in\n            tag_115:\n              mload(0x40)\n              dup1\n              swap2\n              sub\n              swap1\n              log3\n                /* \"@openzeppelin/contracts/token/ERC20/ERC20.sol\":10110:10480  function _approve(... */\n              pop\n              pop\n              pop\n              jump\t// out\n                /* \"@openzeppelin/contracts/token/ERC20/ERC20.sol\":10761:11202  function _spendAllowance(... */\n            tag_79:\n                /* \"@openzeppelin/contracts/token/ERC20/ERC20.sol\":10891:10915  uint256 currentAllowance */\n              0x00\n                /* \"@openzeppelin/contracts/token/ERC20/ERC20.sol\":10918:10943  allowance(owner, spender) */\n              tag_117\n                /* \"@openzeppelin/contracts/token/ERC20/ERC20.sol\":10928:10933  owner */\n              dup5\n                /* \"@openzeppelin/contracts/token/ERC20/ERC20.sol\":10935:10942  spender */\n              dup5\n                /* \"@openzeppelin/contracts/token/ERC20/ERC20.sol\":10918:10927  allowance */\n              tag_61\n                /* \"@openzeppelin/contracts/token/ERC20/ERC20.sol\":10918:10943  allowance(owner, spender) */\n              jump\t// in\n            tag_117:\n                /* \"@openzeppelin/contracts/token/ERC20/ERC20.sol\":10891:10943  uint256 currentAllowance = allowance(owner, spender) */\n              swap1\n              pop\n                /* \"@openzeppelin/contracts/token/ERC20/ERC20.sol\":10977:10994  type(uint256).max */\n              0xffffffffffffffffffffffffffffffffffffffffffffffffffffffffffffffff\n                /* \"@openzeppelin/contracts/token/ERC20/ERC20.sol\":10957:10973  currentAllowance */\n              dup2\n                /* \"@openzeppelin/contracts/token/ERC20/ERC20.sol\":10957:10994  currentAllowance != type(uint256).max */\n              eq\n                /* \"@openzeppelin/contracts/token/ERC20/ERC20.sol\":10953:11196  if (currentAllowance != type(uint256).max) {... */\n              tag_118\n              jumpi\n                /* \"@openzeppelin/contracts/token/ERC20/ERC20.sol\":11038:11044  amount */\n              dup2\n                /* \"@openzeppelin/contracts/token/ERC20/ERC20.sol\":11018:11034  currentAllowance */\n              dup2\n                /* \"@openzeppelin/contracts/token/ERC20/ERC20.sol\":11018:11044  currentAllowance >= amount */\n              lt\n              iszero\n                /* \"@openzeppelin/contracts/token/ERC20/ERC20.sol\":11010:11078  require(currentAllowance >= amount, \"ERC20: insufficient allowance\") */\n              tag_119\n              jumpi\n              mload(0x40)\n              0x08c379a000000000000000000000000000000000000000000000000000000000\n              dup2\n              mstore\n              0x04\n              add\n              tag_120\n              swap1\n              tag_121\n              jump\t// in\n            tag_120:\n              mload(0x40)\n              dup1\n              swap2\n              sub\n              swap1\n              revert\n            tag_119:\n                /* \"@openzeppelin/contracts/token/ERC20/ERC20.sol\":11120:11171  _approve(owner, spender, currentAllowance - amount) */\n              tag_122\n                /* \"@openzeppelin/contracts/token/ERC20/ERC20.sol\":11129:11134  owner */\n              dup5\n                /* \"@openzeppelin/contracts/token/ERC20/ERC20.sol\":11136:11143  spender */\n              dup5\n                /* \"@openzeppelin/contracts/token/ERC20/ERC20.sol\":11164:11170  amount */\n              dup5\n                /* \"@openzeppelin/contracts/token/ERC20/ERC20.sol\":11145:11161  currentAllowance */\n              dup5\n                /* \"@openzeppelin/contracts/token/ERC20/ERC20.sol\":11145:11170  currentAllowance - amount */\n              sub\n                /* \"@openzeppelin/contracts/token/ERC20/ERC20.sol\":11120:11128  _approve */\n              tag_74\n                /* \"@openzeppelin/contracts/token/ERC20/ERC20.sol\":11120:11171  _approve(owner, spender, currentAllowance - amount) */\n              jump\t// in\n            tag_122:\n                /* \"@openzeppelin/contracts/token/ERC20/ERC20.sol\":10953:11196  if (currentAllowance != type(uint256).max) {... */\n            tag_118:\n                /* \"@openzeppelin/contracts/token/ERC20/ERC20.sol\":10881:11202  {... */\n              pop\n                /* \"@openzeppelin/contracts/token/ERC20/ERC20.sol\":10761:11202  function _spendAllowance(... */\n              pop\n              pop\n              pop\n              jump\t// out\n                /* \"@openzeppelin/contracts/token/ERC20/ERC20.sol\":7475:8126  function _transfer(... */\n            tag_81:\n                /* \"@openzeppelin/contracts/token/ERC20/ERC20.sol\":7617:7618  0 */\n              0x00\n                /* \"@openzeppelin/contracts/token/ERC20/ERC20.sol\":7601:7619  from != address(0) */\n              0xffffffffffffffffffffffffffffffffffffffff\n              and\n                /* \"@openzeppelin/contracts/token/ERC20/ERC20.sol\":7601:7605  from */\n              dup4\n                /* \"@openzeppelin/contracts/token/ERC20/ERC20.sol\":7601:7619  from != address(0) */\n              0xffffffffffffffffffffffffffffffffffffffff\n              and\n              sub\n                /* \"@openzeppelin/contracts/token/ERC20/ERC20.sol\":7593:7661  require(from != address(0), \"ERC20: transfer from the zero address\") */\n              tag_124\n              jumpi\n              mload(0x40)\n              0x08c379a000000000000000000000000000000000000000000000000000000000\n              dup2\n              mstore\n              0x04\n              add\n              tag_125\n              swap1\n              tag_126\n              jump\t// in\n            tag_125:\n              mload(0x40)\n              dup1\n              swap2\n              sub\n              swap1\n              revert\n            tag_124:\n                /* \"@openzeppelin/contracts/token/ERC20/ERC20.sol\":7693:7694  0 */\n              0x00\n                /* \"@openzeppelin/contracts/token/ERC20/ERC20.sol\":7679:7695  to != address(0) */\n              0xffffffffffffffffffffffffffffffffffffffff\n              and\n                /* \"@openzeppelin/contracts/token/ERC20/ERC20.sol\":7679:7681  to */\n              dup3\n                /* \"@openzeppelin/contracts/token/ERC20/ERC20.sol\":7679:7695  to != address(0) */\n              0xffffffffffffffffffffffffffffffffffffffff\n              and\n              sub\n                /* \"@openzeppelin/contracts/token/ERC20/ERC20.sol\":7671:7735  require(to != address(0), \"ERC20: transfer to the zero address\") */\n              tag_127\n              jumpi\n              mload(0x40)\n              0x08c379a000000000000000000000000000000000000000000000000000000000\n              dup2\n              mstore\n              0x04\n              add\n              tag_128\n              swap1\n              tag_129\n              jump\t// in\n            tag_128:\n              mload(0x40)\n              dup1\n              swap2\n              sub\n              swap1\n              revert\n            tag_127:\n                /* \"@openzeppelin/contracts/token/ERC20/ERC20.sol\":7746:7784  _beforeTokenTransfer(from, to, amount) */\n              tag_130\n                /* \"@openzeppelin/contracts/token/ERC20/ERC20.sol\":7767:7771  from */\n              dup4\n                /* \"@openzeppelin/contracts/token/ERC20/ERC20.sol\":7773:7775  to */\n              dup4\n                /* \"@openzeppelin/contracts/token/ERC20/ERC20.sol\":7777:7783  amount */\n              dup4\n                /* \"@openzeppelin/contracts/token/ERC20/ERC20.sol\":7746:7766  _beforeTokenTransfer */\n              tag_131\n                /* \"@openzeppelin/contracts/token/ERC20/ERC20.sol\":7746:7784  _beforeTokenTransfer(from, to, amount) */\n              jump\t// in\n            tag_130:\n                /* \"@openzeppelin/contracts/token/ERC20/ERC20.sol\":7795:7814  uint256 fromBalance */\n              0x00\n                /* \"@openzeppelin/contracts/token/ERC20/ERC20.sol\":7817:7826  _balances */\n              dup1\n                /* \"@openzeppelin/contracts/token/ERC20/ERC20.sol\":7817:7832  _balances[from] */\n              0x00\n                /* \"@openzeppelin/contracts/token/ERC20/ERC20.sol\":7827:7831  from */\n              dup6\n                /* \"@openzeppelin/contracts/token/ERC20/ERC20.sol\":7817:7832  _balances[from] */\n              0xffffffffffffffffffffffffffffffffffffffff\n              and\n              0xffffffffffffffffffffffffffffffffffffffff\n              and\n              dup2\n              mstore\n              0x20\n              add\n              swap1\n              dup2\n              mstore\n              0x20\n              add\n              0x00\n              keccak256\n              sload\n                /* \"@openzeppelin/contracts/token/ERC20/ERC20.sol\":7795:7832  uint256 fromBalance = _balances[from] */\n              swap1\n              pop\n                /* \"@openzeppelin/contracts/token/ERC20/ERC20.sol\":7865:7871  amount */\n              dup2\n                /* \"@openzeppelin/contracts/token/ERC20/ERC20.sol\":7850:7861  fromBalance */\n              dup2\n                /* \"@openzeppelin/contracts/token/ERC20/ERC20.sol\":7850:7871  fromBalance >= amount */\n              lt\n              iszero\n                /* \"@openzeppelin/contracts/token/ERC20/ERC20.sol\":7842:7914  require(fromBalance >= amount, \"ERC20: transfer amount exceeds balance\") */\n              tag_132\n              jumpi\n              mload(0x40)\n              0x08c379a000000000000000000000000000000000000000000000000000000000\n              dup2\n              mstore\n              0x04\n              add\n              tag_133\n              swap1\n              tag_134\n              jump\t// in\n            tag_133:\n              mload(0x40)\n              dup1\n              swap2\n              sub\n              swap1\n              revert\n            tag_132:\n                /* \"@openzeppelin/contracts/token/ERC20/ERC20.sol\":7980:7986  amount */\n              dup2\n                /* \"@openzeppelin/contracts/token/ERC20/ERC20.sol\":7966:7977  fromBalance */\n              dup2\n                /* \"@openzeppelin/contracts/token/ERC20/ERC20.sol\":7966:7986  fromBalance - amount */\n              sub\n                /* \"@openzeppelin/contracts/token/ERC20/ERC20.sol\":7948:7957  _balances */\n              0x00\n                /* \"@openzeppelin/contracts/token/ERC20/ERC20.sol\":7948:7963  _balances[from] */\n              dup1\n                /* \"@openzeppelin/contracts/token/ERC20/ERC20.sol\":7958:7962  from */\n              dup7\n                /* \"@openzeppelin/contracts/token/ERC20/ERC20.sol\":7948:7963  _balances[from] */\n              0xffffffffffffffffffffffffffffffffffffffff\n              and\n              0xffffffffffffffffffffffffffffffffffffffff\n              and\n              dup2\n              mstore\n              0x20\n              add\n              swap1\n              dup2\n              mstore\n              0x20\n              add\n              0x00\n              keccak256\n                /* \"@openzeppelin/contracts/token/ERC20/ERC20.sol\":7948:7986  _balances[from] = fromBalance - amount */\n              dup2\n              swap1\n              sstore\n              pop\n                /* \"@openzeppelin/contracts/token/ERC20/ERC20.sol\":8023:8029  amount */\n              dup2\n                /* \"@openzeppelin/contracts/token/ERC20/ERC20.sol\":8006:8015  _balances */\n              0x00\n                /* \"@openzeppelin/contracts/token/ERC20/ERC20.sol\":8006:8019  _balances[to] */\n              dup1\n                /* \"@openzeppelin/contracts/token/ERC20/ERC20.sol\":8016:8018  to */\n              dup6\n                /* \"@openzeppelin/contracts/token/ERC20/ERC20.sol\":8006:8019  _balances[to] */\n              0xffffffffffffffffffffffffffffffffffffffff\n              and\n              0xffffffffffffffffffffffffffffffffffffffff\n              and\n              dup2\n              mstore\n              0x20\n              add\n              swap1\n              dup2\n              mstore\n              0x20\n              add\n              0x00\n              keccak256\n              0x00\n                /* \"@openzeppelin/contracts/token/ERC20/ERC20.sol\":8006:8029  _balances[to] += amount */\n              dup3\n              dup3\n              sload\n              tag_135\n              swap2\n              swap1\n              tag_88\n              jump\t// in\n            tag_135:\n              swap3\n              pop\n              pop\n              dup2\n              swap1\n              sstore\n              pop\n                /* \"@openzeppelin/contracts/token/ERC20/ERC20.sol\":8060:8062  to */\n              dup3\n                /* \"@openzeppelin/contracts/token/ERC20/ERC20.sol\":8045:8071  Transfer(from, to, amount) */\n              0xffffffffffffffffffffffffffffffffffffffff\n              and\n                /* \"@openzeppelin/contracts/token/ERC20/ERC20.sol\":8054:8058  from */\n              dup5\n                /* \"@openzeppelin/contracts/token/ERC20/ERC20.sol\":8045:8071  Transfer(from, to, amount) */\n              0xffffffffffffffffffffffffffffffffffffffff\n              and\n              0xddf252ad1be2c89b69c2b068fc378daa952ba7f163c4a11628f55a4df523b3ef\n                /* \"@openzeppelin/contracts/token/ERC20/ERC20.sol\":8064:8070  amount */\n              dup5\n                /* \"@openzeppelin/contracts/token/ERC20/ERC20.sol\":8045:8071  Transfer(from, to, amount) */\n              mload(0x40)\n              tag_136\n              swap2\n              swap1\n              tag_28\n              jump\t// in\n            tag_136:\n              mload(0x40)\n              dup1\n              swap2\n              sub\n              swap1\n              log3\n                /* \"@openzeppelin/contracts/token/ERC20/ERC20.sol\":8082:8119  _afterTokenTransfer(from, to, amount) */\n              tag_137\n                /* \"@openzeppelin/contracts/token/ERC20/ERC20.sol\":8102:8106  from */\n              dup5\n                /* \"@openzeppelin/contracts/token/ERC20/ERC20.sol\":8108:8110  to */\n              dup5\n                /* \"@openzeppelin/contracts/token/ERC20/ERC20.sol\":8112:8118  amount */\n              dup5\n                /* \"@openzeppelin/contracts/token/ERC20/ERC20.sol\":8082:8101  _afterTokenTransfer */\n              tag_138\n                /* \"@openzeppelin/contracts/token/ERC20/ERC20.sol\":8082:8119  _afterTokenTransfer(from, to, amount) */\n              jump\t// in\n            tag_137:\n                /* \"@openzeppelin/contracts/token/ERC20/ERC20.sol\":7583:8126  {... */\n              pop\n                /* \"@openzeppelin/contracts/token/ERC20/ERC20.sol\":7475:8126  function _transfer(... */\n              pop\n              pop\n              pop\n              jump\t// out\n                /* \"@openzeppelin/contracts/token/ERC20/ERC20.sol\":11786:11907  function _beforeTokenTransfer(... */\n            tag_131:\n              pop\n              pop\n              pop\n              jump\t// out\n                /* \"@openzeppelin/contracts/token/ERC20/ERC20.sol\":12495:12615  function _afterTokenTransfer(... */\n            tag_138:\n              pop\n              pop\n              pop\n              jump\t// out\n                /* \"#utility.yul\":7:106   */\n            tag_141:\n                /* \"#utility.yul\":59:65   */\n              0x00\n                /* \"#utility.yul\":93:98   */\n              dup2\n                /* \"#utility.yul\":87:99   */\n              mload\n                /* \"#utility.yul\":77:99   */\n              swap1\n              pop\n                /* \"#utility.yul\":7:106   */\n              swap2\n              swap1\n              pop\n              jump\t// out\n                /* \"#utility.yul\":112:281   */\n            tag_142:\n                /* \"#utility.yul\":196:207   */\n              0x00\n                /* \"#utility.yul\":230:236   */\n              dup3\n                /* \"#utility.yul\":225:228   */\n              dup3\n                /* \"#utility.yul\":218:237   */\n              mstore\n                /* \"#utility.yul\":270:274   */\n              0x20\n                /* \"#utility.yul\":265:268   */\n              dup3\n                /* \"#utility.yul\":261:275   */\n              add\n                /* \"#utility.yul\":246:275   */\n              swap1\n              pop\n                /* \"#utility.yul\":112:281   */\n              swap3\n              swap2\n              pop\n              pop\n              jump\t// out\n                /* \"#utility.yul\":287:533   */\n            tag_143:\n                /* \"#utility.yul\":368:369   */\n              0x00\n                /* \"#utility.yul\":378:491   */\n            tag_181:\n                /* \"#utility.yul\":392:398   */\n              dup4\n                /* \"#utility.yul\":389:390   */\n              dup2\n                /* \"#utility.yul\":386:399   */\n              lt\n                /* \"#utility.yul\":378:491   */\n              iszero\n              tag_183\n              jumpi\n                /* \"#utility.yul\":477:478   */\n              dup1\n                /* \"#utility.yul\":472:475   */\n              dup3\n                /* \"#utility.yul\":468:479   */\n              add\n                /* \"#utility.yul\":462:480   */\n              mload\n                /* \"#utility.yul\":458:459   */\n              dup2\n                /* \"#utility.yul\":453:456   */\n              dup5\n                /* \"#utility.yul\":449:460   */\n              add\n                /* \"#utility.yul\":442:481   */\n              mstore\n                /* \"#utility.yul\":414:416   */\n              0x20\n                /* \"#utility.yul\":411:412   */\n              dup2\n                /* \"#utility.yul\":407:417   */\n              add\n                /* \"#utility.yul\":402:417   */\n              swap1\n              pop\n                /* \"#utility.yul\":378:491   */\n              jump(tag_181)\n            tag_183:\n                /* \"#utility.yul\":525:526   */\n              0x00\n                /* \"#utility.yul\":516:522   */\n              dup5\n                /* \"#utility.yul\":511:514   */\n              dup5\n                /* \"#utility.yul\":507:523   */\n              add\n                /* \"#utility.yul\":500:527   */\n              mstore\n                /* \"#utility.yul\":349:533   */\n              pop\n                /* \"#utility.yul\":287:533   */\n              pop\n              pop\n              pop\n              jump\t// out\n                /* \"#utility.yul\":539:641   */\n            tag_144:\n                /* \"#utility.yul\":580:586   */\n              0x00\n                /* \"#utility.yul\":631:633   */\n              0x1f\n                /* \"#utility.yul\":627:634   */\n              not\n                /* \"#utility.yul\":622:624   */\n              0x1f\n                /* \"#utility.yul\":615:620   */\n              dup4\n                /* \"#utility.yul\":611:625   */\n              add\n                /* \"#utility.yul\":607:635   */\n              and\n                /* \"#utility.yul\":597:635   */\n              swap1\n              pop\n                /* \"#utility.yul\":539:641   */\n              swap2\n              swap1\n              pop\n              jump\t// out\n                /* \"#utility.yul\":647:1024   */\n            tag_145:\n                /* \"#utility.yul\":735:738   */\n              0x00\n                /* \"#utility.yul\":763:802   */\n              tag_186\n                /* \"#utility.yul\":796:801   */\n              dup3\n                /* \"#utility.yul\":763:802   */\n              tag_141\n              jump\t// in\n            tag_186:\n                /* \"#utility.yul\":818:889   */\n              tag_187\n                /* \"#utility.yul\":882:888   */\n              dup2\n                /* \"#utility.yul\":877:880   */\n              dup6\n                /* \"#utility.yul\":818:889   */\n              tag_142\n              jump\t// in\n            tag_187:\n                /* \"#utility.yul\":811:889   */\n              swap4\n              pop\n                /* \"#utility.yul\":898:963   */\n              tag_188\n                /* \"#utility.yul\":956:962   */\n              dup2\n                /* \"#utility.yul\":951:954   */\n              dup6\n                /* \"#utility.yul\":944:948   */\n              0x20\n                /* \"#utility.yul\":937:942   */\n              dup7\n                /* \"#utility.yul\":933:949   */\n              add\n                /* \"#utility.yul\":898:963   */\n              tag_143\n              jump\t// in\n            tag_188:\n                /* \"#utility.yul\":988:1017   */\n              tag_189\n                /* \"#utility.yul\":1010:1016   */\n              dup2\n                /* \"#utility.yul\":988:1017   */\n              tag_144\n              jump\t// in\n            tag_189:\n                /* \"#utility.yul\":983:986   */\n              dup5\n                /* \"#utility.yul\":979:1018   */\n              add\n                /* \"#utility.yul\":972:1018   */\n              swap2\n              pop\n                /* \"#utility.yul\":739:1024   */\n              pop\n                /* \"#utility.yul\":647:1024   */\n              swap3\n              swap2\n              pop\n              pop\n              jump\t// out\n                /* \"#utility.yul\":1030:1343   */\n            tag_18:\n                /* \"#utility.yul\":1143:1147   */\n              0x00\n                /* \"#utility.yul\":1181:1183   */\n              0x20\n                /* \"#utility.yul\":1170:1179   */\n              dup3\n                /* \"#utility.yul\":1166:1184   */\n              add\n                /* \"#utility.yul\":1158:1184   */\n              swap1\n              pop\n                /* \"#utility.yul\":1230:1239   */\n              dup2\n                /* \"#utility.yul\":1224:1228   */\n              dup2\n                /* \"#utility.yul\":1220:1240   */\n              sub\n                /* \"#utility.yul\":1216:1217   */\n              0x00\n                /* \"#utility.yul\":1205:1214   */\n              dup4\n                /* \"#utility.yul\":1201:1218   */\n              add\n                /* \"#utility.yul\":1194:1241   */\n              mstore\n                /* \"#utility.yul\":1258:1336   */\n              tag_191\n                /* \"#utility.yul\":1331:1335   */\n              dup2\n                /* \"#utility.yul\":1322:1328   */\n              dup5\n                /* \"#utility.yul\":1258:1336   */\n              tag_145\n              jump\t// in\n            tag_191:\n                /* \"#utility.yul\":1250:1336   */\n              swap1\n              pop\n                /* \"#utility.yul\":1030:1343   */\n              swap3\n              swap2\n              pop\n              pop\n              jump\t// out\n                /* \"#utility.yul\":1430:1547   */\n            tag_147:\n                /* \"#utility.yul\":1539:1540   */\n              0x00\n                /* \"#utility.yul\":1536:1537   */\n              dup1\n                /* \"#utility.yul\":1529:1541   */\n              revert\n                /* \"#utility.yul\":1676:1802   */\n            tag_149:\n                /* \"#utility.yul\":1713:1720   */\n              0x00\n                /* \"#utility.yul\":1753:1795   */\n              0xffffffffffffffffffffffffffffffffffffffff\n                /* \"#utility.yul\":1746:1751   */\n              dup3\n                /* \"#utility.yul\":1742:1796   */\n              and\n                /* \"#utility.yul\":1731:1796   */\n              swap1\n              pop\n                /* \"#utility.yul\":1676:1802   */\n              swap2\n              swap1\n              pop\n              jump\t// out\n                /* \"#utility.yul\":1808:1904   */\n            tag_150:\n                /* \"#utility.yul\":1845:1852   */\n              0x00\n                /* \"#utility.yul\":1874:1898   */\n              tag_197\n                /* \"#utility.yul\":1892:1897   */\n              dup3\n                /* \"#utility.yul\":1874:1898   */\n              tag_149\n              jump\t// in\n            tag_197:\n                /* \"#utility.yul\":1863:1898   */\n              swap1\n              pop\n                /* \"#utility.yul\":1808:1904   */\n              swap2\n              swap1\n              pop\n              jump\t// out\n                /* \"#utility.yul\":1910:2032   */\n            tag_151:\n                /* \"#utility.yul\":1983:2007   */\n              tag_199\n                /* \"#utility.yul\":2001:2006   */\n              dup2\n                /* \"#utility.yul\":1983:2007   */\n              tag_150\n              jump\t// in\n            tag_199:\n                /* \"#utility.yul\":1976:1981   */\n              dup2\n                /* \"#utility.yul\":1973:2008   */\n              eq\n                /* \"#utility.yul\":1963:2026   */\n              tag_200\n              jumpi\n                /* \"#utility.yul\":2022:2023   */\n              0x00\n                /* \"#utility.yul\":2019:2020   */\n              dup1\n                /* \"#utility.yul\":2012:2024   */\n              revert\n                /* \"#utility.yul\":1963:2026   */\n            tag_200:\n                /* \"#utility.yul\":1910:2032   */\n              pop\n              jump\t// out\n                /* \"#utility.yul\":2038:2177   */\n            tag_152:\n                /* \"#utility.yul\":2084:2089   */\n              0x00\n                /* \"#utility.yul\":2122:2128   */\n              dup2\n                /* \"#utility.yul\":2109:2129   */\n              calldataload\n                /* \"#utility.yul\":2100:2129   */\n              swap1\n              pop\n                /* \"#utility.yul\":2138:2171   */\n              tag_202\n                /* \"#utility.yul\":2165:2170   */\n              dup2\n                /* \"#utility.yul\":2138:2171   */\n              tag_151\n              jump\t// in\n            tag_202:\n                /* \"#utility.yul\":2038:2177   */\n              swap3\n              swap2\n              pop\n              pop\n              jump\t// out\n                /* \"#utility.yul\":2183:2260   */\n            tag_153:\n                /* \"#utility.yul\":2220:2227   */\n              0x00\n                /* \"#utility.yul\":2249:2254   */\n              dup2\n                /* \"#utility.yul\":2238:2254   */\n              swap1\n              pop\n                /* \"#utility.yul\":2183:2260   */\n              swap2\n              swap1\n              pop\n              jump\t// out\n                /* \"#utility.yul\":2266:2388   */\n            tag_154:\n                /* \"#utility.yul\":2339:2363   */\n              tag_205\n                /* \"#utility.yul\":2357:2362   */\n              dup2\n                /* \"#utility.yul\":2339:2363   */\n              tag_153\n              jump\t// in\n            tag_205:\n                /* \"#utility.yul\":2332:2337   */\n              dup2\n                /* \"#utility.yul\":2329:2364   */\n              eq\n                /* \"#utility.yul\":2319:2382   */\n              tag_206\n              jumpi\n                /* \"#utility.yul\":2378:2379   */\n              0x00\n                /* \"#utility.yul\":2375:2376   */\n              dup1\n                /* \"#utility.yul\":2368:2380   */\n              revert\n                /* \"#utility.yul\":2319:2382   */\n            tag_206:\n                /* \"#utility.yul\":2266:2388   */\n              pop\n              jump\t// out\n                /* \"#utility.yul\":2394:2533   */\n            tag_155:\n                /* \"#utility.yul\":2440:2445   */\n              0x00\n                /* \"#utility.yul\":2478:2484   */\n              dup2\n                /* \"#utility.yul\":2465:2485   */\n              calldataload\n                /* \"#utility.yul\":2456:2485   */\n              swap1\n              pop\n                /* \"#utility.yul\":2494:2527   */\n              tag_208\n                /* \"#utility.yul\":2521:2526   */\n              dup2\n                /* \"#utility.yul\":2494:2527   */\n              tag_154\n              jump\t// in\n            tag_208:\n                /* \"#utility.yul\":2394:2533   */\n              swap3\n              swap2\n              pop\n              pop\n              jump\t// out\n                /* \"#utility.yul\":2539:3013   */\n            tag_21:\n                /* \"#utility.yul\":2607:2613   */\n              0x00\n                /* \"#utility.yul\":2615:2621   */\n              dup1\n                /* \"#utility.yul\":2664:2666   */\n              0x40\n                /* \"#utility.yul\":2652:2661   */\n              dup4\n                /* \"#utility.yul\":2643:2650   */\n              dup6\n                /* \"#utility.yul\":2639:2662   */\n              sub\n                /* \"#utility.yul\":2635:2667   */\n              slt\n                /* \"#utility.yul\":2632:2751   */\n              iszero\n              tag_210\n              jumpi\n                /* \"#utility.yul\":2670:2749   */\n              tag_211\n              tag_147\n              jump\t// in\n            tag_211:\n                /* \"#utility.yul\":2632:2751   */\n            tag_210:\n                /* \"#utility.yul\":2790:2791   */\n              0x00\n                /* \"#utility.yul\":2815:2868   */\n              tag_212\n                /* \"#utility.yul\":2860:2867   */\n              dup6\n                /* \"#utility.yul\":2851:2857   */\n              dup3\n                /* \"#utility.yul\":2840:2849   */\n              dup7\n                /* \"#utility.yul\":2836:2858   */\n              add\n                /* \"#utility.yul\":2815:2868   */\n              tag_152\n              jump\t// in\n            tag_212:\n                /* \"#utility.yul\":2805:2868   */\n              swap3\n              pop\n                /* \"#utility.yul\":2761:2878   */\n              pop\n                /* \"#utility.yul\":2917:2919   */\n              0x20\n                /* \"#utility.yul\":2943:2996   */\n              tag_213\n                /* \"#utility.yul\":2988:2995   */\n              dup6\n                /* \"#utility.yul\":2979:2985   */\n              dup3\n                /* \"#utility.yul\":2968:2977   */\n              dup7\n                /* \"#utility.yul\":2964:2986   */\n              add\n                /* \"#utility.yul\":2943:2996   */\n              tag_155\n              jump\t// in\n            tag_213:\n                /* \"#utility.yul\":2933:2996   */\n              swap2\n              pop\n                /* \"#utility.yul\":2888:3006   */\n              pop\n                /* \"#utility.yul\":2539:3013   */\n              swap3\n              pop\n              swap3\n              swap1\n              pop\n              jump\t// out\n                /* \"#utility.yul\":3019:3109   */\n            tag_156:\n                /* \"#utility.yul\":3053:3060   */\n              0x00\n                /* \"#utility.yul\":3096:3101   */\n              dup2\n                /* \"#utility.yul\":3089:3102   */\n              iszero\n                /* \"#utility.yul\":3082:3103   */\n              iszero\n                /* \"#utility.yul\":3071:3103   */\n              swap1\n              pop\n                /* \"#utility.yul\":3019:3109   */\n              swap2\n              swap1\n              pop\n              jump\t// out\n                /* \"#utility.yul\":3115:3224   */\n            tag_157:\n                /* \"#utility.yul\":3196:3217   */\n              tag_216\n                /* \"#utility.yul\":3211:3216   */\n              dup2\n                /* \"#utility.yul\":3196:3217   */\n              tag_156\n              jump\t// in\n            tag_216:\n                /* \"#utility.yul\":3191:3194   */\n              dup3\n                /* \"#utility.yul\":3184:3218   */\n              mstore\n                /* \"#utility.yul\":3115:3224   */\n              pop\n              pop\n              jump\t// out\n                /* \"#utility.yul\":3230:3440   */\n            tag_24:\n                /* \"#utility.yul\":3317:3321   */\n              0x00\n                /* \"#utility.yul\":3355:3357   */\n              0x20\n                /* \"#utility.yul\":3344:3353   */\n              dup3\n                /* \"#utility.yul\":3340:3358   */\n              add\n                /* \"#utility.yul\":3332:3358   */\n              swap1\n              pop\n                /* \"#utility.yul\":3368:3433   */\n              tag_218\n                /* \"#utility.yul\":3430:3431   */\n              0x00\n                /* \"#utility.yul\":3419:3428   */\n              dup4\n                /* \"#utility.yul\":3415:3432   */\n              add\n                /* \"#utility.yul\":3406:3412   */\n              dup5\n                /* \"#utility.yul\":3368:3433   */\n              tag_157\n              jump\t// in\n            tag_218:\n                /* \"#utility.yul\":3230:3440   */\n              swap3\n              swap2\n              pop\n              pop\n              jump\t// out\n                /* \"#utility.yul\":3446:3564   */\n            tag_158:\n                /* \"#utility.yul\":3533:3557   */\n              tag_220\n                /* \"#utility.yul\":3551:3556   */\n              dup2\n                /* \"#utility.yul\":3533:3557   */\n              tag_153\n              jump\t// in\n            tag_220:\n                /* \"#utility.yul\":3528:3531   */\n              dup3\n                /* \"#utility.yul\":3521:3558   */\n              mstore\n                /* \"#utility.yul\":3446:3564   */\n              pop\n              pop\n              jump\t// out\n                /* \"#utility.yul\":3570:3792   */\n            tag_28:\n                /* \"#utility.yul\":3663:3667   */\n              0x00\n                /* \"#utility.yul\":3701:3703   */\n              0x20\n                /* \"#utility.yul\":3690:3699   */\n              dup3\n                /* \"#utility.yul\":3686:3704   */\n              add\n                /* \"#utility.yul\":3678:3704   */\n              swap1\n              pop\n                /* \"#utility.yul\":3714:3785   */\n              tag_222\n                /* \"#utility.yul\":3782:3783   */\n              0x00\n                /* \"#utility.yul\":3771:3780   */\n              dup4\n                /* \"#utility.yul\":3767:3784   */\n              add\n                /* \"#utility.yul\":3758:3764   */\n              dup5\n                /* \"#utility.yul\":3714:3785   */\n              tag_158\n              jump\t// in\n            tag_222:\n                /* \"#utility.yul\":3570:3792   */\n              swap3\n              swap2\n              pop\n              pop\n              jump\t// out\n                /* \"#utility.yul\":3798:4417   */\n            tag_31:\n                /* \"#utility.yul\":3875:3881   */\n              0x00\n                /* \"#utility.yul\":3883:3889   */\n              dup1\n                /* \"#utility.yul\":3891:3897   */\n              0x00\n                /* \"#utility.yul\":3940:3942   */\n              0x60\n                /* \"#utility.yul\":3928:3937   */\n              dup5\n                /* \"#utility.yul\":3919:3926   */\n              dup7\n                /* \"#utility.yul\":3915:3938   */\n              sub\n                /* \"#utility.yul\":3911:3943   */\n              slt\n                /* \"#utility.yul\":3908:4027   */\n              iszero\n              tag_224\n              jumpi\n                /* \"#utility.yul\":3946:4025   */\n              tag_225\n              tag_147\n              jump\t// in\n            tag_225:\n                /* \"#utility.yul\":3908:4027   */\n            tag_224:\n                /* \"#utility.yul\":4066:4067   */\n              0x00\n                /* \"#utility.yul\":4091:4144   */\n              tag_226\n                /* \"#utility.yul\":4136:4143   */\n              dup7\n                /* \"#utility.yul\":4127:4133   */\n              dup3\n                /* \"#utility.yul\":4116:4125   */\n              dup8\n                /* \"#utility.yul\":4112:4134   */\n              add\n                /* \"#utility.yul\":4091:4144   */\n              tag_152\n              jump\t// in\n            tag_226:\n                /* \"#utility.yul\":4081:4144   */\n              swap4\n              pop\n                /* \"#utility.yul\":4037:4154   */\n              pop\n                /* \"#utility.yul\":4193:4195   */\n              0x20\n                /* \"#utility.yul\":4219:4272   */\n              tag_227\n                /* \"#utility.yul\":4264:4271   */\n              dup7\n                /* \"#utility.yul\":4255:4261   */\n              dup3\n                /* \"#utility.yul\":4244:4253   */\n              dup8\n                /* \"#utility.yul\":4240:4262   */\n              add\n                /* \"#utility.yul\":4219:4272   */\n              tag_152\n              jump\t// in\n            tag_227:\n                /* \"#utility.yul\":4209:4272   */\n              swap3\n              pop\n                /* \"#utility.yul\":4164:4282   */\n              pop\n                /* \"#utility.yul\":4321:4323   */\n              0x40\n                /* \"#utility.yul\":4347:4400   */\n              tag_228\n                /* \"#utility.yul\":4392:4399   */\n              dup7\n                /* \"#utility.yul\":4383:4389   */\n              dup3\n                /* \"#utility.yul\":4372:4381   */\n              dup8\n                /* \"#utility.yul\":4368:4390   */\n              add\n                /* \"#utility.yul\":4347:4400   */\n              tag_155\n              jump\t// in\n            tag_228:\n                /* \"#utility.yul\":4337:4400   */\n              swap2\n              pop\n                /* \"#utility.yul\":4292:4410   */\n              pop\n                /* \"#utility.yul\":3798:4417   */\n              swap3\n              pop\n              swap3\n              pop\n              swap3\n              jump\t// out\n                /* \"#utility.yul\":4423:4509   */\n            tag_159:\n                /* \"#utility.yul\":4458:4465   */\n              0x00\n                /* \"#utility.yul\":4498:4502   */\n              0xff\n                /* \"#utility.yul\":4491:4496   */\n              dup3\n                /* \"#utility.yul\":4487:4503   */\n              and\n                /* \"#utility.yul\":4476:4503   */\n              swap1\n              pop\n                /* \"#utility.yul\":4423:4509   */\n              swap2\n              swap1\n              pop\n              jump\t// out\n                /* \"#utility.yul\":4515:4627   */\n            tag_160:\n                /* \"#utility.yul\":4598:4620   */\n              tag_231\n                /* \"#utility.yul\":4614:4619   */\n              dup2\n                /* \"#utility.yul\":4598:4620   */\n              tag_159\n              jump\t// in\n            tag_231:\n                /* \"#utility.yul\":4593:4596   */\n              dup3\n                /* \"#utility.yul\":4586:4621   */\n              mstore\n                /* \"#utility.yul\":4515:4627   */\n              pop\n              pop\n              jump\t// out\n                /* \"#utility.yul\":4633:4847   */\n            tag_37:\n                /* \"#utility.yul\":4722:4726   */\n              0x00\n                /* \"#utility.yul\":4760:4762   */\n              0x20\n                /* \"#utility.yul\":4749:4758   */\n              dup3\n                /* \"#utility.yul\":4745:4763   */\n              add\n                /* \"#utility.yul\":4737:4763   */\n              swap1\n              pop\n                /* \"#utility.yul\":4773:4840   */\n              tag_233\n                /* \"#utility.yul\":4837:4838   */\n              0x00\n                /* \"#utility.yul\":4826:4835   */\n              dup4\n                /* \"#utility.yul\":4822:4839   */\n              add\n                /* \"#utility.yul\":4813:4819   */\n              dup5\n                /* \"#utility.yul\":4773:4840   */\n              tag_160\n              jump\t// in\n            tag_233:\n                /* \"#utility.yul\":4633:4847   */\n              swap3\n              swap2\n              pop\n              pop\n              jump\t// out\n                /* \"#utility.yul\":4853:5182   */\n            tag_44:\n                /* \"#utility.yul\":4912:4918   */\n              0x00\n                /* \"#utility.yul\":4961:4963   */\n              0x20\n                /* \"#utility.yul\":4949:4958   */\n              dup3\n                /* \"#utility.yul\":4940:4947   */\n              dup5\n                /* \"#utility.yul\":4936:4959   */\n              sub\n                /* \"#utility.yul\":4932:4964   */\n              slt\n                /* \"#utility.yul\":4929:5048   */\n              iszero\n              tag_235\n              jumpi\n                /* \"#utility.yul\":4967:5046   */\n              tag_236\n              tag_147\n              jump\t// in\n            tag_236:\n                /* \"#utility.yul\":4929:5048   */\n            tag_235:\n                /* \"#utility.yul\":5087:5088   */\n              0x00\n                /* \"#utility.yul\":5112:5165   */\n              tag_237\n                /* \"#utility.yul\":5157:5164   */\n              dup5\n                /* \"#utility.yul\":5148:5154   */\n              dup3\n                /* \"#utility.yul\":5137:5146   */\n              dup6\n                /* \"#utility.yul\":5133:5155   */\n              add\n                /* \"#utility.yul\":5112:5165   */\n              tag_152\n              jump\t// in\n            tag_237:\n                /* \"#utility.yul\":5102:5165   */\n              swap2\n              pop\n                /* \"#utility.yul\":5058:5175   */\n              pop\n                /* \"#utility.yul\":4853:5182   */\n              swap3\n              swap2\n              pop\n              pop\n              jump\t// out\n                /* \"#utility.yul\":5188:5662   */\n            tag_60:\n                /* \"#utility.yul\":5256:5262   */\n              0x00\n                /* \"#utility.yul\":5264:5270   */\n              dup1\n                /* \"#utility.yul\":5313:5315   */\n              0x40\n                /* \"#utility.yul\":5301:5310   */\n              dup4\n                /* \"#utility.yul\":5292:5299   */\n              dup6\n                /* \"#utility.yul\":5288:5311   */\n              sub\n                /* \"#utility.yul\":5284:5316   */\n              slt\n                /* \"#utility.yul\":5281:5400   */\n              iszero\n              tag_239\n              jumpi\n                /* \"#utility.yul\":5319:5398   */\n              tag_240\n              tag_147\n              jump\t// in\n            tag_240:\n                /* \"#utility.yul\":5281:5400   */\n            tag_239:\n                /* \"#utility.yul\":5439:5440   */\n              0x00\n                /* \"#utility.yul\":5464:5517   */\n              tag_241\n                /* \"#utility.yul\":5509:5516   */\n              dup6\n                /* \"#utility.yul\":5500:5506   */\n              dup3\n                /* \"#utility.yul\":5489:5498   */\n              dup7\n                /* \"#utility.yul\":5485:5507   */\n              add\n                /* \"#utility.yul\":5464:5517   */\n              tag_152\n              jump\t// in\n            tag_241:\n                /* \"#utility.yul\":5454:5517   */\n              swap3\n              pop\n                /* \"#utility.yul\":5410:5527   */\n              pop\n                /* \"#utility.yul\":5566:5568   */\n              0x20\n                /* \"#utility.yul\":5592:5645   */\n              tag_242\n                /* \"#utility.yul\":5637:5644   */\n              dup6\n                /* \"#utility.yul\":5628:5634   */\n              dup3\n                /* \"#utility.yul\":5617:5626   */\n              dup7\n                /* \"#utility.yul\":5613:5635   */\n              add\n                /* \"#utility.yul\":5592:5645   */\n              tag_152\n              jump\t// in\n            tag_242:\n                /* \"#utility.yul\":5582:5645   */\n              swap2\n              pop\n                /* \"#utility.yul\":5537:5655   */\n              pop\n                /* \"#utility.yul\":5188:5662   */\n              swap3\n              pop\n              swap3\n              swap1\n              pop\n              jump\t// out\n                /* \"#utility.yul\":5668:5848   */\n            tag_161:\n                /* \"#utility.yul\":5716:5793   */\n              0x4e487b7100000000000000000000000000000000000000000000000000000000\n                /* \"#utility.yul\":5713:5714   */\n              0x00\n                /* \"#utility.yul\":5706:5794   */\n              mstore\n                /* \"#utility.yul\":5813:5817   */\n              0x22\n                /* \"#utility.yul\":5810:5811   */\n              0x04\n                /* \"#utility.yul\":5803:5818   */\n              mstore\n                /* \"#utility.yul\":5837:5841   */\n              0x24\n                /* \"#utility.yul\":5834:5835   */\n              0x00\n                /* \"#utility.yul\":5827:5842   */\n              revert\n                /* \"#utility.yul\":5854:6174   */\n            tag_65:\n                /* \"#utility.yul\":5898:5904   */\n              0x00\n                /* \"#utility.yul\":5935:5936   */\n              0x02\n                /* \"#utility.yul\":5929:5933   */\n              dup3\n                /* \"#utility.yul\":5925:5937   */\n              div\n                /* \"#utility.yul\":5915:5937   */\n              swap1\n              pop\n                /* \"#utility.yul\":5982:5983   */\n              0x01\n                /* \"#utility.yul\":5976:5980   */\n              dup3\n                /* \"#utility.yul\":5972:5984   */\n              and\n                /* \"#utility.yul\":6003:6021   */\n              dup1\n                /* \"#utility.yul\":5993:6074   */\n              tag_245\n              jumpi\n                /* \"#utility.yul\":6059:6063   */\n              0x7f\n                /* \"#utility.yul\":6051:6057   */\n              dup3\n                /* \"#utility.yul\":6047:6064   */\n              and\n                /* \"#utility.yul\":6037:6064   */\n              swap2\n              pop\n                /* \"#utility.yul\":5993:6074   */\n            tag_245:\n                /* \"#utility.yul\":6121:6123   */\n              0x20\n                /* \"#utility.yul\":6113:6119   */\n              dup3\n                /* \"#utility.yul\":6110:6124   */\n              lt\n                /* \"#utility.yul\":6090:6108   */\n              dup2\n                /* \"#utility.yul\":6087:6125   */\n              sub\n                /* \"#utility.yul\":6084:6168   */\n              tag_246\n              jumpi\n                /* \"#utility.yul\":6140:6158   */\n              tag_247\n              tag_161\n              jump\t// in\n            tag_247:\n                /* \"#utility.yul\":6084:6168   */\n            tag_246:\n                /* \"#utility.yul\":5905:6174   */\n              pop\n                /* \"#utility.yul\":5854:6174   */\n              swap2\n              swap1\n              pop\n              jump\t// out\n                /* \"#utility.yul\":6180:6360   */\n            tag_162:\n                /* \"#utility.yul\":6228:6305   */\n              0x4e487b7100000000000000000000000000000000000000000000000000000000\n                /* \"#utility.yul\":6225:6226   */\n              0x00\n                /* \"#utility.yul\":6218:6306   */\n              mstore\n                /* \"#utility.yul\":6325:6329   */\n              0x11\n                /* \"#utility.yul\":6322:6323   */\n              0x04\n                /* \"#utility.yul\":6315:6330   */\n              mstore\n                /* \"#utility.yul\":6349:6353   */\n              0x24\n                /* \"#utility.yul\":6346:6347   */\n              0x00\n                /* \"#utility.yul\":6339:6354   */\n              revert\n                /* \"#utility.yul\":6366:6557   */\n            tag_88:\n                /* \"#utility.yul\":6406:6409   */\n              0x00\n                /* \"#utility.yul\":6425:6445   */\n              tag_250\n                /* \"#utility.yul\":6443:6444   */\n              dup3\n                /* \"#utility.yul\":6425:6445   */\n              tag_153\n              jump\t// in\n            tag_250:\n                /* \"#utility.yul\":6420:6445   */\n              swap2\n              pop\n                /* \"#utility.yul\":6459:6479   */\n              tag_251\n                /* \"#utility.yul\":6477:6478   */\n              dup4\n                /* \"#utility.yul\":6459:6479   */\n              tag_153\n              jump\t// in\n            tag_251:\n                /* \"#utility.yul\":6454:6479   */\n              swap3\n              pop\n                /* \"#utility.yul\":6502:6503   */\n              dup3\n                /* \"#utility.yul\":6499:6500   */\n              dup3\n                /* \"#utility.yul\":6495:6504   */\n              add\n                /* \"#utility.yul\":6488:6504   */\n              swap1\n              pop\n                /* \"#utility.yul\":6523:6526   */\n              dup1\n                /* \"#utility.yul\":6520:6521   */\n              dup3\n                /* \"#utility.yul\":6517:6527   */\n              gt\n                /* \"#utility.yul\":6514:6550   */\n              iszero\n              tag_252\n              jumpi\n                /* \"#utility.yul\":6530:6548   */\n              tag_253\n              tag_162\n              jump\t// in\n            tag_253:\n                /* \"#utility.yul\":6514:6550   */\n            tag_252:\n                /* \"#utility.yul\":6366:6557   */\n              swap3\n              swap2\n              pop\n              pop\n              jump\t// out\n                /* \"#utility.yul\":6563:6787   */\n            tag_163:\n                /* \"#utility.yul\":6703:6737   */\n              0x45524332303a2064656372656173656420616c6c6f77616e63652062656c6f77\n                /* \"#utility.yul\":6699:6700   */\n              0x00\n                /* \"#utility.yul\":6691:6697   */\n              dup3\n                /* \"#utility.yul\":6687:6701   */\n              add\n                /* \"#utility.yul\":6680:6738   */\n              mstore\n                /* \"#utility.yul\":6772:6779   */\n              0x207a65726f000000000000000000000000000000000000000000000000000000\n                /* \"#utility.yul\":6767:6769   */\n              0x20\n                /* \"#utility.yul\":6759:6765   */\n              dup3\n                /* \"#utility.yul\":6755:6770   */\n              add\n                /* \"#utility.yul\":6748:6780   */\n              mstore\n                /* \"#utility.yul\":6563:6787   */\n              pop\n              jump\t// out\n                /* \"#utility.yul\":6793:7159   */\n            tag_164:\n                /* \"#utility.yul\":6935:6938   */\n              0x00\n                /* \"#utility.yul\":6956:7023   */\n              tag_256\n                /* \"#utility.yul\":7020:7022   */\n              0x25\n                /* \"#utility.yul\":7015:7018   */\n              dup4\n                /* \"#utility.yul\":6956:7023   */\n              tag_142\n              jump\t// in\n            tag_256:\n                /* \"#utility.yul\":6949:7023   */\n              swap2\n              pop\n                /* \"#utility.yul\":7032:7125   */\n              tag_257\n                /* \"#utility.yul\":7121:7124   */\n              dup3\n                /* \"#utility.yul\":7032:7125   */\n              tag_163\n              jump\t// in\n            tag_257:\n                /* \"#utility.yul\":7150:7152   */\n              0x40\n                /* \"#utility.yul\":7145:7148   */\n              dup3\n                /* \"#utility.yul\":7141:7153   */\n              add\n                /* \"#utility.yul\":7134:7153   */\n              swap1\n              pop\n                /* \"#utility.yul\":6793:7159   */\n              swap2\n              swap1\n              pop\n              jump\t// out\n                /* \"#utility.yul\":7165:7584   */\n            tag_101:\n                /* \"#utility.yul\":7331:7335   */\n              0x00\n                /* \"#utility.yul\":7369:7371   */\n              0x20\n                /* \"#utility.yul\":7358:7367   */\n              dup3\n                /* \"#utility.yul\":7354:7372   */\n              add\n                /* \"#utility.yul\":7346:7372   */\n              swap1\n              pop\n                /* \"#utility.yul\":7418:7427   */\n              dup2\n                /* \"#utility.yul\":7412:7416   */\n              dup2\n                /* \"#utility.yul\":7408:7428   */\n              sub\n                /* \"#utility.yul\":7404:7405   */\n              0x00\n                /* \"#utility.yul\":7393:7402   */\n              dup4\n                /* \"#utility.yul\":7389:7406   */\n              add\n                /* \"#utility.yul\":7382:7429   */\n              mstore\n                /* \"#utility.yul\":7446:7577   */\n              tag_259\n                /* \"#utility.yul\":7572:7576   */\n              dup2\n                /* \"#utility.yul\":7446:7577   */\n              tag_164\n              jump\t// in\n            tag_259:\n                /* \"#utility.yul\":7438:7577   */\n              swap1\n              pop\n                /* \"#utility.yul\":7165:7584   */\n              swap2\n              swap1\n              pop\n              jump\t// out\n                /* \"#utility.yul\":7590:7813   */\n            tag_165:\n                /* \"#utility.yul\":7730:7764   */\n              0x45524332303a20617070726f76652066726f6d20746865207a65726f20616464\n                /* \"#utility.yul\":7726:7727   */\n              0x00\n                /* \"#utility.yul\":7718:7724   */\n              dup3\n                /* \"#utility.yul\":7714:7728   */\n              add\n                /* \"#utility.yul\":7707:7765   */\n              mstore\n                /* \"#utility.yul\":7799:7805   */\n              0x7265737300000000000000000000000000000000000000000000000000000000\n                /* \"#utility.yul\":7794:7796   */\n              0x20\n                /* \"#utility.yul\":7786:7792   */\n              dup3\n                /* \"#utility.yul\":7782:7797   */\n              add\n                /* \"#utility.yul\":7775:7806   */\n              mstore\n                /* \"#utility.yul\":7590:7813   */\n              pop\n              jump\t// out\n                /* \"#utility.yul\":7819:8185   */\n            tag_166:\n                /* \"#utility.yul\":7961:7964   */\n              0x00\n                /* \"#utility.yul\":7982:8049   */\n              tag_262\n                /* \"#utility.yul\":8046:8048   */\n              0x24\n                /* \"#utility.yul\":8041:8044   */\n              dup4\n                /* \"#utility.yul\":7982:8049   */\n              tag_142\n              jump\t// in\n            tag_262:\n                /* \"#utility.yul\":7975:8049   */\n              swap2\n              pop\n                /* \"#utility.yul\":8058:8151   */\n              tag_263\n                /* \"#utility.yul\":8147:8150   */\n              dup3\n                /* \"#utility.yul\":8058:8151   */\n              tag_165\n              jump\t// in\n            tag_263:\n                /* \"#utility.yul\":8176:8178   */\n              0x40\n                /* \"#utility.yul\":8171:8174   */\n              dup3\n                /* \"#utility.yul\":8167:8179   */\n              add\n                /* \"#utility.yul\":8160:8179   */\n              swap1\n              pop\n                /* \"#utility.yul\":7819:8185   */\n              swap2\n              swap1\n              pop\n              jump\t// out\n                /* \"#utility.yul\":8191:8610   */\n            tag_111:\n                /* \"#utility.yul\":8357:8361   */\n              0x00\n                /* \"#utility.yul\":8395:8397   */\n              0x20\n                /* \"#utility.yul\":8384:8393   */\n              dup3\n                /* \"#utility.yul\":8380:8398   */\n              add\n                /* \"#utility.yul\":8372:8398   */\n              swap1\n              pop\n                /* \"#utility.yul\":8444:8453   */\n              dup2\n                /* \"#utility.yul\":8438:8442   */\n              dup2\n                /* \"#utility.yul\":8434:8454   */\n              sub\n                /* \"#utility.yul\":8430:8431   */\n              0x00\n                /* \"#utility.yul\":8419:8428   */\n              dup4\n                /* \"#utility.yul\":8415:8432   */\n              add\n                /* \"#utility.yul\":8408:8455   */\n              mstore\n                /* \"#utility.yul\":8472:8603   */\n              tag_265\n                /* \"#utility.yul\":8598:8602   */\n              dup2\n                /* \"#utility.yul\":8472:8603   */\n              tag_166\n              jump\t// in\n            tag_265:\n                /* \"#utility.yul\":8464:8603   */\n              swap1\n              pop\n                /* \"#utility.yul\":8191:8610   */\n              swap2\n              swap1\n              pop\n              jump\t// out\n                /* \"#utility.yul\":8616:8837   */\n            tag_167:\n                /* \"#utility.yul\":8756:8790   */\n              0x45524332303a20617070726f766520746f20746865207a65726f206164647265\n                /* \"#utility.yul\":8752:8753   */\n              0x00\n                /* \"#utility.yul\":8744:8750   */\n              dup3\n                /* \"#utility.yul\":8740:8754   */\n              add\n                /* \"#utility.yul\":8733:8791   */\n              mstore\n                /* \"#utility.yul\":8825:8829   */\n              0x7373000000000000000000000000000000000000000000000000000000000000\n                /* \"#utility.yul\":8820:8822   */\n              0x20\n                /* \"#utility.yul\":8812:8818   */\n              dup3\n                /* \"#utility.yul\":8808:8823   */\n              add\n                /* \"#utility.yul\":8801:8830   */\n              mstore\n                /* \"#utility.yul\":8616:8837   */\n              pop\n              jump\t// out\n                /* \"#utility.yul\":8843:9209   */\n            tag_168:\n                /* \"#utility.yul\":8985:8988   */\n              0x00\n                /* \"#utility.yul\":9006:9073   */\n              tag_268\n                /* \"#utility.yul\":9070:9072   */\n              0x22\n                /* \"#utility.yul\":9065:9068   */\n              dup4\n                /* \"#utility.yul\":9006:9073   */\n              tag_142\n              jump\t// in\n            tag_268:\n                /* \"#utility.yul\":8999:9073   */\n              swap2\n              pop\n                /* \"#utility.yul\":9082:9175   */\n              tag_269\n                /* \"#utility.yul\":9171:9174   */\n              dup3\n                /* \"#utility.yul\":9082:9175   */\n              tag_167\n              jump\t// in\n            tag_269:\n                /* \"#utility.yul\":9200:9202   */\n              0x40\n                /* \"#utility.yul\":9195:9198   */\n              dup3\n                /* \"#utility.yul\":9191:9203   */\n              add\n                /* \"#utility.yul\":9184:9203   */\n              swap1\n              pop\n                /* \"#utility.yul\":8843:9209   */\n              swap2\n              swap1\n              pop\n              jump\t// out\n                /* \"#utility.yul\":9215:9634   */\n            tag_114:\n                /* \"#utility.yul\":9381:9385   */\n              0x00\n                /* \"#utility.yul\":9419:9421   */\n              0x20\n                /* \"#utility.yul\":9408:9417   */\n              dup3\n                /* \"#utility.yul\":9404:9422   */\n              add\n                /* \"#utility.yul\":9396:9422   */\n              swap1\n              pop\n                /* \"#utility.yul\":9468:9477   */\n              dup2\n                /* \"#utility.yul\":9462:9466   */\n              dup2\n                /* \"#utility.yul\":9458:9478   */\n              sub\n                /* \"#utility.yul\":9454:9455   */\n              0x00\n                /* \"#utility.yul\":9443:9452   */\n              dup4\n                /* \"#utility.yul\":9439:9456   */\n              add\n                /* \"#utility.yul\":9432:9479   */\n              mstore\n                /* \"#utility.yul\":9496:9627   */\n              tag_271\n                /* \"#utility.yul\":9622:9626   */\n              dup2\n                /* \"#utility.yul\":9496:9627   */\n              tag_168\n              jump\t// in\n            tag_271:\n                /* \"#utility.yul\":9488:9627   */\n              swap1\n              pop\n                /* \"#utility.yul\":9215:9634   */\n              swap2\n              swap1\n              pop\n              jump\t// out\n                /* \"#utility.yul\":9640:9819   */\n            tag_169:\n                /* \"#utility.yul\":9780:9811   */\n              0x45524332303a20696e73756666696369656e7420616c6c6f77616e6365000000\n                /* \"#utility.yul\":9776:9777   */\n              0x00\n                /* \"#utility.yul\":9768:9774   */\n              dup3\n                /* \"#utility.yul\":9764:9778   */\n              add\n                /* \"#utility.yul\":9757:9812   */\n              mstore\n                /* \"#utility.yul\":9640:9819   */\n              pop\n              jump\t// out\n                /* \"#utility.yul\":9825:10191   */\n            tag_170:\n                /* \"#utility.yul\":9967:9970   */\n              0x00\n                /* \"#utility.yul\":9988:10055   */\n              tag_274\n                /* \"#utility.yul\":10052:10054   */\n              0x1d\n                /* \"#utility.yul\":10047:10050   */\n              dup4\n                /* \"#utility.yul\":9988:10055   */\n              tag_142\n              jump\t// in\n            tag_274:\n                /* \"#utility.yul\":9981:10055   */\n              swap2\n              pop\n                /* \"#utility.yul\":10064:10157   */\n              tag_275\n                /* \"#utility.yul\":10153:10156   */\n              dup3\n                /* \"#utility.yul\":10064:10157   */\n              tag_169\n              jump\t// in\n            tag_275:\n                /* \"#utility.yul\":10182:10184   */\n              0x20\n                /* \"#utility.yul\":10177:10180   */\n              dup3\n                /* \"#utility.yul\":10173:10185   */\n              add\n                /* \"#utility.yul\":10166:10185   */\n              swap1\n              pop\n                /* \"#utility.yul\":9825:10191   */\n              swap2\n              swap1\n              pop\n              jump\t// out\n                /* \"#utility.yul\":10197:10616   */\n            tag_121:\n                /* \"#utility.yul\":10363:10367   */\n              0x00\n                /* \"#utility.yul\":10401:10403   */\n              0x20\n                /* \"#utility.yul\":10390:10399   */\n              dup3\n                /* \"#utility.yul\":10386:10404   */\n              add\n                /* \"#utility.yul\":10378:10404   */\n              swap1\n              pop\n                /* \"#utility.yul\":10450:10459   */\n              dup2\n                /* \"#utility.yul\":10444:10448   */\n              dup2\n                /* \"#utility.yul\":10440:10460   */\n              sub\n                /* \"#utility.yul\":10436:10437   */\n              0x00\n                /* \"#utility.yul\":10425:10434   */\n              dup4\n                /* \"#utility.yul\":10421:10438   */\n              add\n                /* \"#utility.yul\":10414:10461   */\n              mstore\n                /* \"#utility.yul\":10478:10609   */\n              tag_277\n                /* \"#utility.yul\":10604:10608   */\n              dup2\n                /* \"#utility.yul\":10478:10609   */\n              tag_170\n              jump\t// in\n            tag_277:\n                /* \"#utility.yul\":10470:10609   */\n              swap1\n              pop\n                /* \"#utility.yul\":10197:10616   */\n              swap2\n              swap1\n              pop\n              jump\t// out\n                /* \"#utility.yul\":10622:10846   */\n            tag_171:\n                /* \"#utility.yul\":10762:10796   */\n              0x45524332303a207472616e736665722066726f6d20746865207a65726f206164\n                /* \"#utility.yul\":10758:10759   */\n              0x00\n                /* \"#utility.yul\":10750:10756   */\n              dup3\n                /* \"#utility.yul\":10746:10760   */\n              add\n                /* \"#utility.yul\":10739:10797   */\n              mstore\n                /* \"#utility.yul\":10831:10838   */\n              0x6472657373000000000000000000000000000000000000000000000000000000\n                /* \"#utility.yul\":10826:10828   */\n              0x20\n                /* \"#utility.yul\":10818:10824   */\n              dup3\n                /* \"#utility.yul\":10814:10829   */\n              add\n                /* \"#utility.yul\":10807:10839   */\n              mstore\n                /* \"#utility.yul\":10622:10846   */\n              pop\n              jump\t// out\n                /* \"#utility.yul\":10852:11218   */\n            tag_172:\n                /* \"#utility.yul\":10994:10997   */\n              0x00\n                /* \"#utility.yul\":11015:11082   */\n              tag_280\n                /* \"#utility.yul\":11079:11081   */\n              0x25\n                /* \"#utility.yul\":11074:11077   */\n              dup4\n                /* \"#utility.yul\":11015:11082   */\n              tag_142\n              jump\t// in\n            tag_280:\n                /* \"#utility.yul\":11008:11082   */\n              swap2\n              pop\n                /* \"#utility.yul\":11091:11184   */\n              tag_281\n                /* \"#utility.yul\":11180:11183   */\n              dup3\n                /* \"#utility.yul\":11091:11184   */\n              tag_171\n              jump\t// in\n            tag_281:\n                /* \"#utility.yul\":11209:11211   */\n              0x40\n                /* \"#utility.yul\":11204:11207   */\n              dup3\n                /* \"#utility.yul\":11200:11212   */\n              add\n                /* \"#utility.yul\":11193:11212   */\n              swap1\n              pop\n                /* \"#utility.yul\":10852:11218   */\n              swap2\n              swap1\n              pop\n              jump\t// out\n                /* \"#utility.yul\":11224:11643   */\n            tag_126:\n                /* \"#utility.yul\":11390:11394   */\n              0x00\n                /* \"#utility.yul\":11428:11430   */\n              0x20\n                /* \"#utility.yul\":11417:11426   */\n              dup3\n                /* \"#utility.yul\":11413:11431   */\n              add\n                /* \"#utility.yul\":11405:11431   */\n              swap1\n              pop\n                /* \"#utility.yul\":11477:11486   */\n              dup2\n                /* \"#utility.yul\":11471:11475   */\n              dup2\n                /* \"#utility.yul\":11467:11487   */\n              sub\n                /* \"#utility.yul\":11463:11464   */\n              0x00\n                /* \"#utility.yul\":11452:11461   */\n              dup4\n                /* \"#utility.yul\":11448:11465   */\n              add\n                /* \"#utility.yul\":11441:11488   */\n              mstore\n                /* \"#utility.yul\":11505:11636   */\n              tag_283\n                /* \"#utility.yul\":11631:11635   */\n              dup2\n                /* \"#utility.yul\":11505:11636   */\n              tag_172\n              jump\t// in\n            tag_283:\n                /* \"#utility.yul\":11497:11636   */\n              swap1\n              pop\n                /* \"#utility.yul\":11224:11643   */\n              swap2\n              swap1\n              pop\n              jump\t// out\n                /* \"#utility.yul\":11649:11871   */\n            tag_173:\n                /* \"#utility.yul\":11789:11823   */\n              0x45524332303a207472616e7366657220746f20746865207a65726f2061646472\n                /* \"#utility.yul\":11785:11786   */\n              0x00\n                /* \"#utility.yul\":11777:11783   */\n              dup3\n                /* \"#utility.yul\":11773:11787   */\n              add\n                /* \"#utility.yul\":11766:11824   */\n              mstore\n                /* \"#utility.yul\":11858:11863   */\n              0x6573730000000000000000000000000000000000000000000000000000000000\n                /* \"#utility.yul\":11853:11855   */\n              0x20\n                /* \"#utility.yul\":11845:11851   */\n              dup3\n                /* \"#utility.yul\":11841:11856   */\n              add\n                /* \"#utility.yul\":11834:11864   */\n              mstore\n                /* \"#utility.yul\":11649:11871   */\n              pop\n              jump\t// out\n                /* \"#utility.yul\":11877:12243   */\n            tag_174:\n                /* \"#utility.yul\":12019:12022   */\n              0x00\n                /* \"#utility.yul\":12040:12107   */\n              tag_286\n                /* \"#utility.yul\":12104:12106   */\n              0x23\n                /* \"#utility.yul\":12099:12102   */\n              dup4\n                /* \"#utility.yul\":12040:12107   */\n              tag_142\n              jump\t// in\n            tag_286:\n                /* \"#utility.yul\":12033:12107   */\n              swap2\n              pop\n                /* \"#utility.yul\":12116:12209   */\n              tag_287\n                /* \"#utility.yul\":12205:12208   */\n              dup3\n                /* \"#utility.yul\":12116:12209   */\n              tag_173\n              jump\t// in\n            tag_287:\n                /* \"#utility.yul\":12234:12236   */\n              0x40\n                /* \"#utility.yul\":12229:12232   */\n              dup3\n                /* \"#utility.yul\":12225:12237   */\n              add\n                /* \"#utility.yul\":12218:12237   */\n              swap1\n              pop\n                /* \"#utility.yul\":11877:12243   */\n              swap2\n              swap1\n              pop\n              jump\t// out\n                /* \"#utility.yul\":12249:12668   */\n            tag_129:\n                /* \"#utility.yul\":12415:12419   */\n              0x00\n                /* \"#utility.yul\":12453:12455   */\n              0x20\n                /* \"#utility.yul\":12442:12451   */\n              dup3\n                /* \"#utility.yul\":12438:12456   */\n              add\n                /* \"#utility.yul\":12430:12456   */\n              swap1\n              pop\n                /* \"#utility.yul\":12502:12511   */\n              dup2\n                /* \"#utility.yul\":12496:12500   */\n              dup2\n                /* \"#utility.yul\":12492:12512   */\n              sub\n                /* \"#utility.yul\":12488:12489   */\n              0x00\n                /* \"#utility.yul\":12477:12486   */\n              dup4\n                /* \"#utility.yul\":12473:12490   */\n              add\n                /* \"#utility.yul\":12466:12513   */\n              mstore\n                /* \"#utility.yul\":12530:12661   */\n              tag_289\n                /* \"#utility.yul\":12656:12660   */\n              dup2\n                /* \"#utility.yul\":12530:12661   */\n              tag_174\n              jump\t// in\n            tag_289:\n                /* \"#utility.yul\":12522:12661   */\n              swap1\n              pop\n                /* \"#utility.yul\":12249:12668   */\n              swap2\n              swap1\n              pop\n              jump\t// out\n                /* \"#utility.yul\":12674:12899   */\n            tag_175:\n                /* \"#utility.yul\":12814:12848   */\n              0x45524332303a207472616e7366657220616d6f756e7420657863656564732062\n                /* \"#utility.yul\":12810:12811   */\n              0x00\n                /* \"#utility.yul\":12802:12808   */\n              dup3\n                /* \"#utility.yul\":12798:12812   */\n              add\n                /* \"#utility.yul\":12791:12849   */\n              mstore\n                /* \"#utility.yul\":12883:12891   */\n              0x616c616e63650000000000000000000000000000000000000000000000000000\n                /* \"#utility.yul\":12878:12880   */\n              0x20\n                /* \"#utility.yul\":12870:12876   */\n              dup3\n                /* \"#utility.yul\":12866:12881   */\n              add\n                /* \"#utility.yul\":12859:12892   */\n              mstore\n                /* \"#utility.yul\":12674:12899   */\n              pop\n              jump\t// out\n                /* \"#utility.yul\":12905:13271   */\n            tag_176:\n                /* \"#utility.yul\":13047:13050   */\n              0x00\n                /* \"#utility.yul\":13068:13135   */\n              tag_292\n                /* \"#utility.yul\":13132:13134   */\n              0x26\n                /* \"#utility.yul\":13127:13130   */\n              dup4\n                /* \"#utility.yul\":13068:13135   */\n              tag_142\n              jump\t// in\n            tag_292:\n                /* \"#utility.yul\":13061:13135   */\n              swap2\n              pop\n                /* \"#utility.yul\":13144:13237   */\n              tag_293\n                /* \"#utility.yul\":13233:13236   */\n              dup3\n                /* \"#utility.yul\":13144:13237   */\n              tag_175\n              jump\t// in\n            tag_293:\n                /* \"#utility.yul\":13262:13264   */\n              0x40\n                /* \"#utility.yul\":13257:13260   */\n              dup3\n                /* \"#utility.yul\":13253:13265   */\n              add\n                /* \"#utility.yul\":13246:13265   */\n              swap1\n              pop\n                /* \"#utility.yul\":12905:13271   */\n              swap2\n              swap1\n              pop\n              jump\t// out\n                /* \"#utility.yul\":13277:13696   */\n            tag_134:\n                /* \"#utility.yul\":13443:13447   */\n              0x00\n                /* \"#utility.yul\":13481:13483   */\n              0x20\n                /* \"#utility.yul\":13470:13479   */\n              dup3\n                /* \"#utility.yul\":13466:13484   */\n              add\n                /* \"#utility.yul\":13458:13484   */\n              swap1\n              pop\n                /* \"#utility.yul\":13530:13539   */\n              dup2\n                /* \"#utility.yul\":13524:13528   */\n              dup2\n                /* \"#utility.yul\":13520:13540   */\n              sub\n                /* \"#utility.yul\":13516:13517   */\n              0x00\n                /* \"#utility.yul\":13505:13514   */\n              dup4\n                /* \"#utility.yul\":13501:13518   */\n              add\n                /* \"#utility.yul\":13494:13541   */\n              mstore\n                /* \"#utility.yul\":13558:13689   */\n              tag_295\n                /* \"#utility.yul\":13684:13688   */\n              dup2\n                /* \"#utility.yul\":13558:13689   */\n              tag_176\n              jump\t// in\n            tag_295:\n                /* \"#utility.yul\":13550:13689   */\n              swap1\n              pop\n                /* \"#utility.yul\":13277:13696   */\n              swap2\n              swap1\n              pop\n              jump\t// out\n\n            auxdata: 0xa26469706673582212202322dfe16b8a34b4f4cf3d473f03eaa9f4aa8590c3e40d636f6343bb0230714664736f6c63430008110033\n        }\n    }\n\n    auxdata: 0xa26469706673582212209fda8b1627f71266fb2fe643121aff85d9a77ed6a61c20ea1da2d4ff6ad3fef764736f6c63430008110033\n}\n",
				"bytecode": {
					"linkReferences": {},
					"object": "608060405234801561001057600080fd5b5061002d61002261003260201b60201c565b61003a60201b60201c565b6100fe565b600033905090565b60008060009054906101000a900473ffffffffffffffffffffffffffffffffffffffff169050816000806101000a81548173ffffffffffffffffffffffffffffffffffffffff021916908373ffffffffffffffffffffffffffffffffffffffff1602179055508173ffffffffffffffffffffffffffffffffffffffff168173ffffffffffffffffffffffffffffffffffffffff167f8be0079c531659141344cd1fd0a4f28419497f9722a3daafe3b4186f6b6457e060405160405180910390a35050565b6122d48061010d6000396000f3fe60806040523480156200001157600080fd5b50600436106200005e5760003560e01c80632f2f2d561462000063578063715018a614620000835780638da5cb5b146200008f578063c1733f6814620000b1578063f2fde38b14620000e7575b600080fd5b6200008160048036038101906200007b9190620005d1565b62000107565b005b6200008d620002e2565b005b62000099620002fa565b604051620000a89190620006a4565b60405180910390f35b620000cf6004803603810190620000c99190620006c1565b62000323565b604051620000de9190620006a4565b60405180910390f35b620001056004803603810190620000ff919062000747565b62000370565b005b62000111620003fa565b600073ffffffffffffffffffffffffffffffffffffffff16600185856040516200013d929190620007bc565b908152602001604051809103902060009054906101000a900473ffffffffffffffffffffffffffffffffffffffff1673ffffffffffffffffffffffffffffffffffffffff1614620001c5576040517f08c379a0000000000000000000000000000000000000000000000000000000008152600401620001bc906200085e565b60405180910390fd5b600084848484604051620001d9906200054b565b620001e89493929190620008c4565b604051809103906000f08015801562000205573d6000803e3d6000fd5b509050600073ffffffffffffffffffffffffffffffffffffffff168173ffffffffffffffffffffffffffffffffffffffff16036200027a576040517f08c379a0000000000000000000000000000000000000000000000000000000008152600401620002719062000979565b60405180910390fd5b80600186866040516200028f929190620007bc565b908152602001604051809103902060006101000a81548173ffffffffffffffffffffffffffffffffffffffff021916908373ffffffffffffffffffffffffffffffffffffffff1602179055505050505050565b620002ec620003fa565b620002f860006200047f565b565b60008060009054906101000a900473ffffffffffffffffffffffffffffffffffffffff16905090565b60006001838360405162000339929190620007bc565b908152602001604051809103902060009054906101000a900473ffffffffffffffffffffffffffffffffffffffff16905092915050565b6200037a620003fa565b600073ffffffffffffffffffffffffffffffffffffffff168173ffffffffffffffffffffffffffffffffffffffff1603620003ec576040517f08c379a0000000000000000000000000000000000000000000000000000000008152600401620003e39062000a11565b60405180910390fd5b620003f7816200047f565b50565b6200040462000543565b73ffffffffffffffffffffffffffffffffffffffff1662000424620002fa565b73ffffffffffffffffffffffffffffffffffffffff16146200047d576040517f08c379a0000000000000000000000000000000000000000000000000000000008152600401620004749062000a83565b60405180910390fd5b565b60008060009054906101000a900473ffffffffffffffffffffffffffffffffffffffff169050816000806101000a81548173ffffffffffffffffffffffffffffffffffffffff021916908373ffffffffffffffffffffffffffffffffffffffff1602179055508173ffffffffffffffffffffffffffffffffffffffff168173ffffffffffffffffffffffffffffffffffffffff167f8be0079c531659141344cd1fd0a4f28419497f9722a3daafe3b4186f6b6457e060405160405180910390a35050565b600033905090565b6117f98062000aa683390190565b600080fd5b600080fd5b600080fd5b600080fd5b600080fd5b60008083601f8401126200058b576200058a62000563565b5b8235905067ffffffffffffffff811115620005ab57620005aa62000568565b5b602083019150836001820283011115620005ca57620005c96200056d565b5b9250929050565b60008060008060408587031215620005ee57620005ed62000559565b5b600085013567ffffffffffffffff8111156200060f576200060e6200055e565b5b6200061d8782880162000572565b9450945050602085013567ffffffffffffffff8111156200064357620006426200055e565b5b620006518782880162000572565b925092505092959194509250565b600073ffffffffffffffffffffffffffffffffffffffff82169050919050565b60006200068c826200065f565b9050919050565b6200069e816200067f565b82525050565b6000602082019050620006bb600083018462000693565b92915050565b60008060208385031215620006db57620006da62000559565b5b600083013567ffffffffffffffff811115620006fc57620006fb6200055e565b5b6200070a8582860162000572565b92509250509250929050565b62000721816200067f565b81146200072d57600080fd5b50565b600081359050620007418162000716565b92915050565b60006020828403121562000760576200075f62000559565b5b6000620007708482850162000730565b91505092915050565b600081905092915050565b82818337600083830152505050565b6000620007a1838562000779565b9350620007b083858462000784565b82840190509392505050565b6000620007cb82848662000793565b91508190509392505050565b600082825260208201905092915050565b7f546f6b656e466163746f72793a20546f6b656e20616c7265616479206578697360008201527f7473000000000000000000000000000000000000000000000000000000000000602082015250565b600062000846602283620007d7565b91506200085382620007e8565b604082019050919050565b60006020820190508181036000830152620008798162000837565b9050919050565b6000601f19601f8301169050919050565b60006200089f8385620007d7565b9350620008ae83858462000784565b620008b98362000880565b840190509392505050565b60006040820190508181036000830152620008e181868862000891565b90508181036020830152620008f881848662000891565b905095945050505050565b7f546f6b656e466163746f72793a20546f6b656e206465706c6f796d656e74207560008201527f6e7375636365737366756c6c0000000000000000000000000000000000000000602082015250565b600062000961602c83620007d7565b91506200096e8262000903565b604082019050919050565b60006020820190508181036000830152620009948162000952565b9050919050565b7f4f776e61626c653a206e6577206f776e657220697320746865207a65726f206160008201527f6464726573730000000000000000000000000000000000000000000000000000602082015250565b6000620009f9602683620007d7565b915062000a06826200099b565b604082019050919050565b6000602082019050818103600083015262000a2c81620009ea565b9050919050565b7f4f776e61626c653a2063616c6c6572206973206e6f7420746865206f776e6572600082015250565b600062000a6b602083620007d7565b915062000a788262000a33565b602082019050919050565b6000602082019050818103600083015262000a9e8162000a5c565b905091905056fe60806040523480156200001157600080fd5b50604051620017f9380380620017f98339818101604052810190620000379190620001fa565b818181600390816200004a9190620004ca565b5080600490816200005c9190620004ca565b5050505050620005b1565b6000604051905090565b600080fd5b600080fd5b600080fd5b600080fd5b6000601f19601f8301169050919050565b7f4e487b7100000000000000000000000000000000000000000000000000000000600052604160045260246000fd5b620000d08262000085565b810181811067ffffffffffffffff82111715620000f257620000f162000096565b5b80604052505050565b60006200010762000067565b9050620001158282620000c5565b919050565b600067ffffffffffffffff82111562000138576200013762000096565b5b620001438262000085565b9050602081019050919050565b60005b838110156200017057808201518184015260208101905062000153565b60008484015250505050565b6000620001936200018d846200011a565b620000fb565b905082815260208101848484011115620001b257620001b162000080565b5b620001bf84828562000150565b509392505050565b600082601f830112620001df57620001de6200007b565b5b8151620001f18482602086016200017c565b91505092915050565b6000806040838503121562000214576200021362000071565b5b600083015167ffffffffffffffff81111562000235576200023462000076565b5b6200024385828601620001c7565b925050602083015167ffffffffffffffff81111562000267576200026662000076565b5b6200027585828601620001c7565b9150509250929050565b600081519050919050565b7f4e487b7100000000000000000000000000000000000000000000000000000000600052602260045260246000fd5b60006002820490506001821680620002d257607f821691505b602082108103620002e857620002e76200028a565b5b50919050565b60008190508160005260206000209050919050565b60006020601f8301049050919050565b600082821b905092915050565b600060088302620003527fffffffffffffffffffffffffffffffffffffffffffffffffffffffffffffffff8262000313565b6200035e868362000313565b95508019841693508086168417925050509392505050565b6000819050919050565b6000819050919050565b6000620003ab620003a56200039f8462000376565b62000380565b62000376565b9050919050565b6000819050919050565b620003c7836200038a565b620003df620003d682620003b2565b84845462000320565b825550505050565b600090565b620003f6620003e7565b62000403818484620003bc565b505050565b5b818110156200042b576200041f600082620003ec565b60018101905062000409565b5050565b601f8211156200047a576200044481620002ee565b6200044f8462000303565b810160208510156200045f578190505b620004776200046e8562000303565b83018262000408565b50505b505050565b600082821c905092915050565b60006200049f600019846008026200047f565b1980831691505092915050565b6000620004ba83836200048c565b9150826002028217905092915050565b620004d5826200027f565b67ffffffffffffffff811115620004f157620004f062000096565b5b620004fd8254620002b9565b6200050a8282856200042f565b600060209050601f8311600181146200054257600084156200052d578287015190505b620005398582620004ac565b865550620005a9565b601f1984166200055286620002ee565b60005b828110156200057c5784890151825560018201915060208501945060208101905062000555565b868310156200059c578489015162000598601f8916826200048c565b8355505b6001600288020188555050505b505050505050565b61123880620005c16000396000f3fe608060405234801561001057600080fd5b50600436106100a95760003560e01c80633950935111610071578063395093511461016857806370a082311461019857806395d89b41146101c8578063a457c2d7146101e6578063a9059cbb14610216578063dd62ed3e14610246576100a9565b806306fdde03146100ae578063095ea7b3146100cc57806318160ddd146100fc57806323b872dd1461011a578063313ce5671461014a575b600080fd5b6100b6610276565b6040516100c39190610b15565b60405180910390f35b6100e660048036038101906100e19190610bd0565b610308565b6040516100f39190610c2b565b60405180910390f35b61010461032b565b6040516101119190610c55565b60405180910390f35b610134600480360381019061012f9190610c70565b610335565b6040516101419190610c2b565b60405180910390f35b610152610364565b60405161015f9190610cdf565b60405180910390f35b610182600480360381019061017d9190610bd0565b61036d565b60405161018f9190610c2b565b60405180910390f35b6101b260048036038101906101ad9190610cfa565b6103a4565b6040516101bf9190610c55565b60405180910390f35b6101d06103ec565b6040516101dd9190610b15565b60405180910390f35b61020060048036038101906101fb9190610bd0565b61047e565b60405161020d9190610c2b565b60405180910390f35b610230600480360381019061022b9190610bd0565b6104f5565b60405161023d9190610c2b565b60405180910390f35b610260600480360381019061025b9190610d27565b610518565b60405161026d9190610c55565b60405180910390f35b60606003805461028590610d96565b80601f01602080910402602001604051908101604052809291908181526020018280546102b190610d96565b80156102fe5780601f106102d3576101008083540402835291602001916102fe565b820191906000526020600020905b8154815290600101906020018083116102e157829003601f168201915b5050505050905090565b60008061031361059f565b90506103208185856105a7565b600191505092915050565b6000600254905090565b60008061034061059f565b905061034d858285610770565b6103588585856107fc565b60019150509392505050565b60006012905090565b60008061037861059f565b905061039981858561038a8589610518565b6103949190610df6565b6105a7565b600191505092915050565b60008060008373ffffffffffffffffffffffffffffffffffffffff1673ffffffffffffffffffffffffffffffffffffffff168152602001908152602001600020549050919050565b6060600480546103fb90610d96565b80601f016020809104026020016040519081016040528092919081815260200182805461042790610d96565b80156104745780601f1061044957610100808354040283529160200191610474565b820191906000526020600020905b81548152906001019060200180831161045757829003601f168201915b5050505050905090565b60008061048961059f565b905060006104978286610518565b9050838110156104dc576040517f08c379a00000000000000000000000000000000000000000000000000000000081526004016104d390610e9c565b60405180910390fd5b6104e982868684036105a7565b60019250505092915050565b60008061050061059f565b905061050d8185856107fc565b600191505092915050565b6000600160008473ffffffffffffffffffffffffffffffffffffffff1673ffffffffffffffffffffffffffffffffffffffff16815260200190815260200160002060008373ffffffffffffffffffffffffffffffffffffffff1673ffffffffffffffffffffffffffffffffffffffff16815260200190815260200160002054905092915050565b600033905090565b600073ffffffffffffffffffffffffffffffffffffffff168373ffffffffffffffffffffffffffffffffffffffff1603610616576040517f08c379a000000000000000000000000000000000000000000000000000000000815260040161060d90610f2e565b60405180910390fd5b600073ffffffffffffffffffffffffffffffffffffffff168273ffffffffffffffffffffffffffffffffffffffff1603610685576040517f08c379a000000000000000000000000000000000000000000000000000000000815260040161067c90610fc0565b60405180910390fd5b80600160008573ffffffffffffffffffffffffffffffffffffffff1673ffffffffffffffffffffffffffffffffffffffff16815260200190815260200160002060008473ffffffffffffffffffffffffffffffffffffffff1673ffffffffffffffffffffffffffffffffffffffff168152602001908152602001600020819055508173ffffffffffffffffffffffffffffffffffffffff168373ffffffffffffffffffffffffffffffffffffffff167f8c5be1e5ebec7d5bd14f71427d1e84f3dd0314c0f7b2291e5b200ac8c7c3b925836040516107639190610c55565b60405180910390a3505050565b600061077c8484610518565b90507fffffffffffffffffffffffffffffffffffffffffffffffffffffffffffffffff81146107f657818110156107e8576040517f08c379a00000000000000000000000000000000000000000000000000000000081526004016107df9061102c565b60405180910390fd5b6107f584848484036105a7565b5b50505050565b600073ffffffffffffffffffffffffffffffffffffffff168373ffffffffffffffffffffffffffffffffffffffff160361086b576040517f08c379a0000000000000000000000000000000000000000000000000000000008152600401610862906110be565b60405180910390fd5b600073ffffffffffffffffffffffffffffffffffffffff168273ffffffffffffffffffffffffffffffffffffffff16036108da576040517f08c379a00000000000000000000000000000000000000000000000000000000081526004016108d190611150565b60405180910390fd5b6108e5838383610a7b565b60008060008573ffffffffffffffffffffffffffffffffffffffff1673ffffffffffffffffffffffffffffffffffffffff1681526020019081526020016000205490508181101561096b576040517f08c379a0000000000000000000000000000000000000000000000000000000008152600401610962906111e2565b60405180910390fd5b8181036000808673ffffffffffffffffffffffffffffffffffffffff1673ffffffffffffffffffffffffffffffffffffffff16815260200190815260200160002081905550816000808573ffffffffffffffffffffffffffffffffffffffff1673ffffffffffffffffffffffffffffffffffffffff16815260200190815260200160002060008282546109fe9190610df6565b925050819055508273ffffffffffffffffffffffffffffffffffffffff168473ffffffffffffffffffffffffffffffffffffffff167fddf252ad1be2c89b69c2b068fc378daa952ba7f163c4a11628f55a4df523b3ef84604051610a629190610c55565b60405180910390a3610a75848484610a80565b50505050565b505050565b505050565b600081519050919050565b600082825260208201905092915050565b60005b83811015610abf578082015181840152602081019050610aa4565b60008484015250505050565b6000601f19601f8301169050919050565b6000610ae782610a85565b610af18185610a90565b9350610b01818560208601610aa1565b610b0a81610acb565b840191505092915050565b60006020820190508181036000830152610b2f8184610adc565b905092915050565b600080fd5b600073ffffffffffffffffffffffffffffffffffffffff82169050919050565b6000610b6782610b3c565b9050919050565b610b7781610b5c565b8114610b8257600080fd5b50565b600081359050610b9481610b6e565b92915050565b6000819050919050565b610bad81610b9a565b8114610bb857600080fd5b50565b600081359050610bca81610ba4565b92915050565b60008060408385031215610be757610be6610b37565b5b6000610bf585828601610b85565b9250506020610c0685828601610bbb565b9150509250929050565b60008115159050919050565b610c2581610c10565b82525050565b6000602082019050610c406000830184610c1c565b92915050565b610c4f81610b9a565b82525050565b6000602082019050610c6a6000830184610c46565b92915050565b600080600060608486031215610c8957610c88610b37565b5b6000610c9786828701610b85565b9350506020610ca886828701610b85565b9250506040610cb986828701610bbb565b9150509250925092565b600060ff82169050919050565b610cd981610cc3565b82525050565b6000602082019050610cf46000830184610cd0565b92915050565b600060208284031215610d1057610d0f610b37565b5b6000610d1e84828501610b85565b91505092915050565b60008060408385031215610d3e57610d3d610b37565b5b6000610d4c85828601610b85565b9250506020610d5d85828601610b85565b9150509250929050565b7f4e487b7100000000000000000000000000000000000000000000000000000000600052602260045260246000fd5b60006002820490506001821680610dae57607f821691505b602082108103610dc157610dc0610d67565b5b50919050565b7f4e487b7100000000000000000000000000000000000000000000000000000000600052601160045260246000fd5b6000610e0182610b9a565b9150610e0c83610b9a565b9250828201905080821115610e2457610e23610dc7565b5b92915050565b7f45524332303a2064656372656173656420616c6c6f77616e63652062656c6f7760008201527f207a65726f000000000000000000000000000000000000000000000000000000602082015250565b6000610e86602583610a90565b9150610e9182610e2a565b604082019050919050565b60006020820190508181036000830152610eb581610e79565b9050919050565b7f45524332303a20617070726f76652066726f6d20746865207a65726f2061646460008201527f7265737300000000000000000000000000000000000000000000000000000000602082015250565b6000610f18602483610a90565b9150610f2382610ebc565b604082019050919050565b60006020820190508181036000830152610f4781610f0b565b9050919050565b7f45524332303a20617070726f766520746f20746865207a65726f20616464726560008201527f7373000000000000000000000000000000000000000000000000000000000000602082015250565b6000610faa602283610a90565b9150610fb582610f4e565b604082019050919050565b60006020820190508181036000830152610fd981610f9d565b9050919050565b7f45524332303a20696e73756666696369656e7420616c6c6f77616e6365000000600082015250565b6000611016601d83610a90565b915061102182610fe0565b602082019050919050565b6000602082019050818103600083015261104581611009565b9050919050565b7f45524332303a207472616e736665722066726f6d20746865207a65726f20616460008201527f6472657373000000000000000000000000000000000000000000000000000000602082015250565b60006110a8602583610a90565b91506110b38261104c565b604082019050919050565b600060208201905081810360008301526110d78161109b565b9050919050565b7f45524332303a207472616e7366657220746f20746865207a65726f206164647260008201527f6573730000000000000000000000000000000000000000000000000000000000602082015250565b600061113a602383610a90565b9150611145826110de565b604082019050919050565b600060208201905081810360008301526111698161112d565b9050919050565b7f45524332303a207472616e7366657220616d6f756e742065786365656473206260008201527f616c616e63650000000000000000000000000000000000000000000000000000602082015250565b60006111cc602683610a90565b91506111d782611170565b604082019050919050565b600060208201905081810360008301526111fb816111bf565b905091905056fea26469706673582212202322dfe16b8a34b4f4cf3d473f03eaa9f4aa8590c3e40d636f6343bb0230714664736f6c63430008110033a26469706673582212209fda8b1627f71266fb2fe643121aff85d9a77ed6a61c20ea1da2d4ff6ad3fef764736f6c63430008110033",
					"opcodes": "PUSH1 0x80 PUSH1 0x40 MSTORE CALLVALUE DUP1 ISZERO PUSH2 0x10 JUMPI PUSH1 0x0 DUP1 REVERT JUMPDEST POP PUSH2 0x2D PUSH2 0x22 PUSH2 0x32 PUSH1 0x20 SHL PUSH1 0x20 SHR JUMP JUMPDEST PUSH2 0x3A PUSH1 0x20 SHL PUSH1 0x20 SHR JUMP JUMPDEST PUSH2 0xFE JUMP JUMPDEST PUSH1 0x0 CALLER SWAP1 POP SWAP1 JUMP JUMPDEST PUSH1 0x0 DUP1 PUSH1 0x0 SWAP1 SLOAD SWAP1 PUSH2 0x100 EXP SWAP1 DIV PUSH20 0xFFFFFFFFFFFFFFFFFFFFFFFFFFFFFFFFFFFFFFFF AND SWAP1 POP DUP2 PUSH1 0x0 DUP1 PUSH2 0x100 EXP DUP2 SLOAD DUP2 PUSH20 0xFFFFFFFFFFFFFFFFFFFFFFFFFFFFFFFFFFFFFFFF MUL NOT AND SWAP1 DUP4 PUSH20 0xFFFFFFFFFFFFFFFFFFFFFFFFFFFFFFFFFFFFFFFF AND MUL OR SWAP1 SSTORE POP DUP2 PUSH20 0xFFFFFFFFFFFFFFFFFFFFFFFFFFFFFFFFFFFFFFFF AND DUP2 PUSH20 0xFFFFFFFFFFFFFFFFFFFFFFFFFFFFFFFFFFFFFFFF AND PUSH32 0x8BE0079C531659141344CD1FD0A4F28419497F9722A3DAAFE3B4186F6B6457E0 PUSH1 0x40 MLOAD PUSH1 0x40 MLOAD DUP1 SWAP2 SUB SWAP1 LOG3 POP POP JUMP JUMPDEST PUSH2 0x22D4 DUP1 PUSH2 0x10D PUSH1 0x0 CODECOPY PUSH1 0x0 RETURN INVALID PUSH1 0x80 PUSH1 0x40 MSTORE CALLVALUE DUP1 ISZERO PUSH3 0x11 JUMPI PUSH1 0x0 DUP1 REVERT JUMPDEST POP PUSH1 0x4 CALLDATASIZE LT PUSH3 0x5E JUMPI PUSH1 0x0 CALLDATALOAD PUSH1 0xE0 SHR DUP1 PUSH4 0x2F2F2D56 EQ PUSH3 0x63 JUMPI DUP1 PUSH4 0x715018A6 EQ PUSH3 0x83 JUMPI DUP1 PUSH4 0x8DA5CB5B EQ PUSH3 0x8F JUMPI DUP1 PUSH4 0xC1733F68 EQ PUSH3 0xB1 JUMPI DUP1 PUSH4 0xF2FDE38B EQ PUSH3 0xE7 JUMPI JUMPDEST PUSH1 0x0 DUP1 REVERT JUMPDEST PUSH3 0x81 PUSH1 0x4 DUP1 CALLDATASIZE SUB DUP2 ADD SWAP1 PUSH3 0x7B SWAP2 SWAP1 PUSH3 0x5D1 JUMP JUMPDEST PUSH3 0x107 JUMP JUMPDEST STOP JUMPDEST PUSH3 0x8D PUSH3 0x2E2 JUMP JUMPDEST STOP JUMPDEST PUSH3 0x99 PUSH3 0x2FA JUMP JUMPDEST PUSH1 0x40 MLOAD PUSH3 0xA8 SWAP2 SWAP1 PUSH3 0x6A4 JUMP JUMPDEST PUSH1 0x40 MLOAD DUP1 SWAP2 SUB SWAP1 RETURN JUMPDEST PUSH3 0xCF PUSH1 0x4 DUP1 CALLDATASIZE SUB DUP2 ADD SWAP1 PUSH3 0xC9 SWAP2 SWAP1 PUSH3 0x6C1 JUMP JUMPDEST PUSH3 0x323 JUMP JUMPDEST PUSH1 0x40 MLOAD PUSH3 0xDE SWAP2 SWAP1 PUSH3 0x6A4 JUMP JUMPDEST PUSH1 0x40 MLOAD DUP1 SWAP2 SUB SWAP1 RETURN JUMPDEST PUSH3 0x105 PUSH1 0x4 DUP1 CALLDATASIZE SUB DUP2 ADD SWAP1 PUSH3 0xFF SWAP2 SWAP1 PUSH3 0x747 JUMP JUMPDEST PUSH3 0x370 JUMP JUMPDEST STOP JUMPDEST PUSH3 0x111 PUSH3 0x3FA JUMP JUMPDEST PUSH1 0x0 PUSH20 0xFFFFFFFFFFFFFFFFFFFFFFFFFFFFFFFFFFFFFFFF AND PUSH1 0x1 DUP6 DUP6 PUSH1 0x40 MLOAD PUSH3 0x13D SWAP3 SWAP2 SWAP1 PUSH3 0x7BC JUMP JUMPDEST SWAP1 DUP2 MSTORE PUSH1 0x20 ADD PUSH1 0x40 MLOAD DUP1 SWAP2 SUB SWAP1 KECCAK256 PUSH1 0x0 SWAP1 SLOAD SWAP1 PUSH2 0x100 EXP SWAP1 DIV PUSH20 0xFFFFFFFFFFFFFFFFFFFFFFFFFFFFFFFFFFFFFFFF AND PUSH20 0xFFFFFFFFFFFFFFFFFFFFFFFFFFFFFFFFFFFFFFFF AND EQ PUSH3 0x1C5 JUMPI PUSH1 0x40 MLOAD PUSH32 0x8C379A000000000000000000000000000000000000000000000000000000000 DUP2 MSTORE PUSH1 0x4 ADD PUSH3 0x1BC SWAP1 PUSH3 0x85E JUMP JUMPDEST PUSH1 0x40 MLOAD DUP1 SWAP2 SUB SWAP1 REVERT JUMPDEST PUSH1 0x0 DUP5 DUP5 DUP5 DUP5 PUSH1 0x40 MLOAD PUSH3 0x1D9 SWAP1 PUSH3 0x54B JUMP JUMPDEST PUSH3 0x1E8 SWAP5 SWAP4 SWAP3 SWAP2 SWAP1 PUSH3 0x8C4 JUMP JUMPDEST PUSH1 0x40 MLOAD DUP1 SWAP2 SUB SWAP1 PUSH1 0x0 CREATE DUP1 ISZERO DUP1 ISZERO PUSH3 0x205 JUMPI RETURNDATASIZE PUSH1 0x0 DUP1 RETURNDATACOPY RETURNDATASIZE PUSH1 0x0 REVERT JUMPDEST POP SWAP1 POP PUSH1 0x0 PUSH20 0xFFFFFFFFFFFFFFFFFFFFFFFFFFFFFFFFFFFFFFFF AND DUP2 PUSH20 0xFFFFFFFFFFFFFFFFFFFFFFFFFFFFFFFFFFFFFFFF AND SUB PUSH3 0x27A JUMPI PUSH1 0x40 MLOAD PUSH32 0x8C379A000000000000000000000000000000000000000000000000000000000 DUP2 MSTORE PUSH1 0x4 ADD PUSH3 0x271 SWAP1 PUSH3 0x979 JUMP JUMPDEST PUSH1 0x40 MLOAD DUP1 SWAP2 SUB SWAP1 REVERT JUMPDEST DUP1 PUSH1 0x1 DUP7 DUP7 PUSH1 0x40 MLOAD PUSH3 0x28F SWAP3 SWAP2 SWAP1 PUSH3 0x7BC JUMP JUMPDEST SWAP1 DUP2 MSTORE PUSH1 0x20 ADD PUSH1 0x40 MLOAD DUP1 SWAP2 SUB SWAP1 KECCAK256 PUSH1 0x0 PUSH2 0x100 EXP DUP2 SLOAD DUP2 PUSH20 0xFFFFFFFFFFFFFFFFFFFFFFFFFFFFFFFFFFFFFFFF MUL NOT AND SWAP1 DUP4 PUSH20 0xFFFFFFFFFFFFFFFFFFFFFFFFFFFFFFFFFFFFFFFF AND MUL OR SWAP1 SSTORE POP POP POP POP POP POP JUMP JUMPDEST PUSH3 0x2EC PUSH3 0x3FA JUMP JUMPDEST PUSH3 0x2F8 PUSH1 0x0 PUSH3 0x47F JUMP JUMPDEST JUMP JUMPDEST PUSH1 0x0 DUP1 PUSH1 0x0 SWAP1 SLOAD SWAP1 PUSH2 0x100 EXP SWAP1 DIV PUSH20 0xFFFFFFFFFFFFFFFFFFFFFFFFFFFFFFFFFFFFFFFF AND SWAP1 POP SWAP1 JUMP JUMPDEST PUSH1 0x0 PUSH1 0x1 DUP4 DUP4 PUSH1 0x40 MLOAD PUSH3 0x339 SWAP3 SWAP2 SWAP1 PUSH3 0x7BC JUMP JUMPDEST SWAP1 DUP2 MSTORE PUSH1 0x20 ADD PUSH1 0x40 MLOAD DUP1 SWAP2 SUB SWAP1 KECCAK256 PUSH1 0x0 SWAP1 SLOAD SWAP1 PUSH2 0x100 EXP SWAP1 DIV PUSH20 0xFFFFFFFFFFFFFFFFFFFFFFFFFFFFFFFFFFFFFFFF AND SWAP1 POP SWAP3 SWAP2 POP POP JUMP JUMPDEST PUSH3 0x37A PUSH3 0x3FA JUMP JUMPDEST PUSH1 0x0 PUSH20 0xFFFFFFFFFFFFFFFFFFFFFFFFFFFFFFFFFFFFFFFF AND DUP2 PUSH20 0xFFFFFFFFFFFFFFFFFFFFFFFFFFFFFFFFFFFFFFFF AND SUB PUSH3 0x3EC JUMPI PUSH1 0x40 MLOAD PUSH32 0x8C379A000000000000000000000000000000000000000000000000000000000 DUP2 MSTORE PUSH1 0x4 ADD PUSH3 0x3E3 SWAP1 PUSH3 0xA11 JUMP JUMPDEST PUSH1 0x40 MLOAD DUP1 SWAP2 SUB SWAP1 REVERT JUMPDEST PUSH3 0x3F7 DUP2 PUSH3 0x47F JUMP JUMPDEST POP JUMP JUMPDEST PUSH3 0x404 PUSH3 0x543 JUMP JUMPDEST PUSH20 0xFFFFFFFFFFFFFFFFFFFFFFFFFFFFFFFFFFFFFFFF AND PUSH3 0x424 PUSH3 0x2FA JUMP JUMPDEST PUSH20 0xFFFFFFFFFFFFFFFFFFFFFFFFFFFFFFFFFFFFFFFF AND EQ PUSH3 0x47D JUMPI PUSH1 0x40 MLOAD PUSH32 0x8C379A000000000000000000000000000000000000000000000000000000000 DUP2 MSTORE PUSH1 0x4 ADD PUSH3 0x474 SWAP1 PUSH3 0xA83 JUMP JUMPDEST PUSH1 0x40 MLOAD DUP1 SWAP2 SUB SWAP1 REVERT JUMPDEST JUMP JUMPDEST PUSH1 0x0 DUP1 PUSH1 0x0 SWAP1 SLOAD SWAP1 PUSH2 0x100 EXP SWAP1 DIV PUSH20 0xFFFFFFFFFFFFFFFFFFFFFFFFFFFFFFFFFFFFFFFF AND SWAP1 POP DUP2 PUSH1 0x0 DUP1 PUSH2 0x100 EXP DUP2 SLOAD DUP2 PUSH20 0xFFFFFFFFFFFFFFFFFFFFFFFFFFFFFFFFFFFFFFFF MUL NOT AND SWAP1 DUP4 PUSH20 0xFFFFFFFFFFFFFFFFFFFFFFFFFFFFFFFFFFFFFFFF AND MUL OR SWAP1 SSTORE POP DUP2 PUSH20 0xFFFFFFFFFFFFFFFFFFFFFFFFFFFFFFFFFFFFFFFF AND DUP2 PUSH20 0xFFFFFFFFFFFFFFFFFFFFFFFFFFFFFFFFFFFFFFFF AND PUSH32 0x8BE0079C531659141344CD1FD0A4F28419497F9722A3DAAFE3B4186F6B6457E0 PUSH1 0x40 MLOAD PUSH1 0x40 MLOAD DUP1 SWAP2 SUB SWAP1 LOG3 POP POP JUMP JUMPDEST PUSH1 0x0 CALLER SWAP1 POP SWAP1 JUMP JUMPDEST PUSH2 0x17F9 DUP1 PUSH3 0xAA6 DUP4 CODECOPY ADD SWAP1 JUMP JUMPDEST PUSH1 0x0 DUP1 REVERT JUMPDEST PUSH1 0x0 DUP1 REVERT JUMPDEST PUSH1 0x0 DUP1 REVERT JUMPDEST PUSH1 0x0 DUP1 REVERT JUMPDEST PUSH1 0x0 DUP1 REVERT JUMPDEST PUSH1 0x0 DUP1 DUP4 PUSH1 0x1F DUP5 ADD SLT PUSH3 0x58B JUMPI PUSH3 0x58A PUSH3 0x563 JUMP JUMPDEST JUMPDEST DUP3 CALLDATALOAD SWAP1 POP PUSH8 0xFFFFFFFFFFFFFFFF DUP2 GT ISZERO PUSH3 0x5AB JUMPI PUSH3 0x5AA PUSH3 0x568 JUMP JUMPDEST JUMPDEST PUSH1 0x20 DUP4 ADD SWAP2 POP DUP4 PUSH1 0x1 DUP3 MUL DUP4 ADD GT ISZERO PUSH3 0x5CA JUMPI PUSH3 0x5C9 PUSH3 0x56D JUMP JUMPDEST JUMPDEST SWAP3 POP SWAP3 SWAP1 POP JUMP JUMPDEST PUSH1 0x0 DUP1 PUSH1 0x0 DUP1 PUSH1 0x40 DUP6 DUP8 SUB SLT ISZERO PUSH3 0x5EE JUMPI PUSH3 0x5ED PUSH3 0x559 JUMP JUMPDEST JUMPDEST PUSH1 0x0 DUP6 ADD CALLDATALOAD PUSH8 0xFFFFFFFFFFFFFFFF DUP2 GT ISZERO PUSH3 0x60F JUMPI PUSH3 0x60E PUSH3 0x55E JUMP JUMPDEST JUMPDEST PUSH3 0x61D DUP8 DUP3 DUP9 ADD PUSH3 0x572 JUMP JUMPDEST SWAP5 POP SWAP5 POP POP PUSH1 0x20 DUP6 ADD CALLDATALOAD PUSH8 0xFFFFFFFFFFFFFFFF DUP2 GT ISZERO PUSH3 0x643 JUMPI PUSH3 0x642 PUSH3 0x55E JUMP JUMPDEST JUMPDEST PUSH3 0x651 DUP8 DUP3 DUP9 ADD PUSH3 0x572 JUMP JUMPDEST SWAP3 POP SWAP3 POP POP SWAP3 SWAP6 SWAP2 SWAP5 POP SWAP3 POP JUMP JUMPDEST PUSH1 0x0 PUSH20 0xFFFFFFFFFFFFFFFFFFFFFFFFFFFFFFFFFFFFFFFF DUP3 AND SWAP1 POP SWAP2 SWAP1 POP JUMP JUMPDEST PUSH1 0x0 PUSH3 0x68C DUP3 PUSH3 0x65F JUMP JUMPDEST SWAP1 POP SWAP2 SWAP1 POP JUMP JUMPDEST PUSH3 0x69E DUP2 PUSH3 0x67F JUMP JUMPDEST DUP3 MSTORE POP POP JUMP JUMPDEST PUSH1 0x0 PUSH1 0x20 DUP3 ADD SWAP1 POP PUSH3 0x6BB PUSH1 0x0 DUP4 ADD DUP5 PUSH3 0x693 JUMP JUMPDEST SWAP3 SWAP2 POP POP JUMP JUMPDEST PUSH1 0x0 DUP1 PUSH1 0x20 DUP4 DUP6 SUB SLT ISZERO PUSH3 0x6DB JUMPI PUSH3 0x6DA PUSH3 0x559 JUMP JUMPDEST JUMPDEST PUSH1 0x0 DUP4 ADD CALLDATALOAD PUSH8 0xFFFFFFFFFFFFFFFF DUP2 GT ISZERO PUSH3 0x6FC JUMPI PUSH3 0x6FB PUSH3 0x55E JUMP JUMPDEST JUMPDEST PUSH3 0x70A DUP6 DUP3 DUP7 ADD PUSH3 0x572 JUMP JUMPDEST SWAP3 POP SWAP3 POP POP SWAP3 POP SWAP3 SWAP1 POP JUMP JUMPDEST PUSH3 0x721 DUP2 PUSH3 0x67F JUMP JUMPDEST DUP2 EQ PUSH3 0x72D JUMPI PUSH1 0x0 DUP1 REVERT JUMPDEST POP JUMP JUMPDEST PUSH1 0x0 DUP2 CALLDATALOAD SWAP1 POP PUSH3 0x741 DUP2 PUSH3 0x716 JUMP JUMPDEST SWAP3 SWAP2 POP POP JUMP JUMPDEST PUSH1 0x0 PUSH1 0x20 DUP3 DUP5 SUB SLT ISZERO PUSH3 0x760 JUMPI PUSH3 0x75F PUSH3 0x559 JUMP JUMPDEST JUMPDEST PUSH1 0x0 PUSH3 0x770 DUP5 DUP3 DUP6 ADD PUSH3 0x730 JUMP JUMPDEST SWAP2 POP POP SWAP3 SWAP2 POP POP JUMP JUMPDEST PUSH1 0x0 DUP2 SWAP1 POP SWAP3 SWAP2 POP POP JUMP JUMPDEST DUP3 DUP2 DUP4 CALLDATACOPY PUSH1 0x0 DUP4 DUP4 ADD MSTORE POP POP POP JUMP JUMPDEST PUSH1 0x0 PUSH3 0x7A1 DUP4 DUP6 PUSH3 0x779 JUMP JUMPDEST SWAP4 POP PUSH3 0x7B0 DUP4 DUP6 DUP5 PUSH3 0x784 JUMP JUMPDEST DUP3 DUP5 ADD SWAP1 POP SWAP4 SWAP3 POP POP POP JUMP JUMPDEST PUSH1 0x0 PUSH3 0x7CB DUP3 DUP5 DUP7 PUSH3 0x793 JUMP JUMPDEST SWAP2 POP DUP2 SWAP1 POP SWAP4 SWAP3 POP POP POP JUMP JUMPDEST PUSH1 0x0 DUP3 DUP3 MSTORE PUSH1 0x20 DUP3 ADD SWAP1 POP SWAP3 SWAP2 POP POP JUMP JUMPDEST PUSH32 0x546F6B656E466163746F72793A20546F6B656E20616C72656164792065786973 PUSH1 0x0 DUP3 ADD MSTORE PUSH32 0x7473000000000000000000000000000000000000000000000000000000000000 PUSH1 0x20 DUP3 ADD MSTORE POP JUMP JUMPDEST PUSH1 0x0 PUSH3 0x846 PUSH1 0x22 DUP4 PUSH3 0x7D7 JUMP JUMPDEST SWAP2 POP PUSH3 0x853 DUP3 PUSH3 0x7E8 JUMP JUMPDEST PUSH1 0x40 DUP3 ADD SWAP1 POP SWAP2 SWAP1 POP JUMP JUMPDEST PUSH1 0x0 PUSH1 0x20 DUP3 ADD SWAP1 POP DUP2 DUP2 SUB PUSH1 0x0 DUP4 ADD MSTORE PUSH3 0x879 DUP2 PUSH3 0x837 JUMP JUMPDEST SWAP1 POP SWAP2 SWAP1 POP JUMP JUMPDEST PUSH1 0x0 PUSH1 0x1F NOT PUSH1 0x1F DUP4 ADD AND SWAP1 POP SWAP2 SWAP1 POP JUMP JUMPDEST PUSH1 0x0 PUSH3 0x89F DUP4 DUP6 PUSH3 0x7D7 JUMP JUMPDEST SWAP4 POP PUSH3 0x8AE DUP4 DUP6 DUP5 PUSH3 0x784 JUMP JUMPDEST PUSH3 0x8B9 DUP4 PUSH3 0x880 JUMP JUMPDEST DUP5 ADD SWAP1 POP SWAP4 SWAP3 POP POP POP JUMP JUMPDEST PUSH1 0x0 PUSH1 0x40 DUP3 ADD SWAP1 POP DUP2 DUP2 SUB PUSH1 0x0 DUP4 ADD MSTORE PUSH3 0x8E1 DUP2 DUP7 DUP9 PUSH3 0x891 JUMP JUMPDEST SWAP1 POP DUP2 DUP2 SUB PUSH1 0x20 DUP4 ADD MSTORE PUSH3 0x8F8 DUP2 DUP5 DUP7 PUSH3 0x891 JUMP JUMPDEST SWAP1 POP SWAP6 SWAP5 POP POP POP POP POP JUMP JUMPDEST PUSH32 0x546F6B656E466163746F72793A20546F6B656E206465706C6F796D656E742075 PUSH1 0x0 DUP3 ADD MSTORE PUSH32 0x6E7375636365737366756C6C0000000000000000000000000000000000000000 PUSH1 0x20 DUP3 ADD MSTORE POP JUMP JUMPDEST PUSH1 0x0 PUSH3 0x961 PUSH1 0x2C DUP4 PUSH3 0x7D7 JUMP JUMPDEST SWAP2 POP PUSH3 0x96E DUP3 PUSH3 0x903 JUMP JUMPDEST PUSH1 0x40 DUP3 ADD SWAP1 POP SWAP2 SWAP1 POP JUMP JUMPDEST PUSH1 0x0 PUSH1 0x20 DUP3 ADD SWAP1 POP DUP2 DUP2 SUB PUSH1 0x0 DUP4 ADD MSTORE PUSH3 0x994 DUP2 PUSH3 0x952 JUMP JUMPDEST SWAP1 POP SWAP2 SWAP1 POP JUMP JUMPDEST PUSH32 0x4F776E61626C653A206E6577206F776E657220697320746865207A65726F2061 PUSH1 0x0 DUP3 ADD MSTORE PUSH32 0x6464726573730000000000000000000000000000000000000000000000000000 PUSH1 0x20 DUP3 ADD MSTORE POP JUMP JUMPDEST PUSH1 0x0 PUSH3 0x9F9 PUSH1 0x26 DUP4 PUSH3 0x7D7 JUMP JUMPDEST SWAP2 POP PUSH3 0xA06 DUP3 PUSH3 0x99B JUMP JUMPDEST PUSH1 0x40 DUP3 ADD SWAP1 POP SWAP2 SWAP1 POP JUMP JUMPDEST PUSH1 0x0 PUSH1 0x20 DUP3 ADD SWAP1 POP DUP2 DUP2 SUB PUSH1 0x0 DUP4 ADD MSTORE PUSH3 0xA2C DUP2 PUSH3 0x9EA JUMP JUMPDEST SWAP1 POP SWAP2 SWAP1 POP JUMP JUMPDEST PUSH32 0x4F776E61626C653A2063616C6C6572206973206E6F7420746865206F776E6572 PUSH1 0x0 DUP3 ADD MSTORE POP JUMP JUMPDEST PUSH1 0x0 PUSH3 0xA6B PUSH1 0x20 DUP4 PUSH3 0x7D7 JUMP JUMPDEST SWAP2 POP PUSH3 0xA78 DUP3 PUSH3 0xA33 JUMP JUMPDEST PUSH1 0x20 DUP3 ADD SWAP1 POP SWAP2 SWAP1 POP JUMP JUMPDEST PUSH1 0x0 PUSH1 0x20 DUP3 ADD SWAP1 POP DUP2 DUP2 SUB PUSH1 0x0 DUP4 ADD MSTORE PUSH3 0xA9E DUP2 PUSH3 0xA5C JUMP JUMPDEST SWAP1 POP SWAP2 SWAP1 POP JUMP INVALID PUSH1 0x80 PUSH1 0x40 MSTORE CALLVALUE DUP1 ISZERO PUSH3 0x11 JUMPI PUSH1 0x0 DUP1 REVERT JUMPDEST POP PUSH1 0x40 MLOAD PUSH3 0x17F9 CODESIZE SUB DUP1 PUSH3 0x17F9 DUP4 CODECOPY DUP2 DUP2 ADD PUSH1 0x40 MSTORE DUP2 ADD SWAP1 PUSH3 0x37 SWAP2 SWAP1 PUSH3 0x1FA JUMP JUMPDEST DUP2 DUP2 DUP2 PUSH1 0x3 SWAP1 DUP2 PUSH3 0x4A SWAP2 SWAP1 PUSH3 0x4CA JUMP JUMPDEST POP DUP1 PUSH1 0x4 SWAP1 DUP2 PUSH3 0x5C SWAP2 SWAP1 PUSH3 0x4CA JUMP JUMPDEST POP POP POP POP POP PUSH3 0x5B1 JUMP JUMPDEST PUSH1 0x0 PUSH1 0x40 MLOAD SWAP1 POP SWAP1 JUMP JUMPDEST PUSH1 0x0 DUP1 REVERT JUMPDEST PUSH1 0x0 DUP1 REVERT JUMPDEST PUSH1 0x0 DUP1 REVERT JUMPDEST PUSH1 0x0 DUP1 REVERT JUMPDEST PUSH1 0x0 PUSH1 0x1F NOT PUSH1 0x1F DUP4 ADD AND SWAP1 POP SWAP2 SWAP1 POP JUMP JUMPDEST PUSH32 0x4E487B7100000000000000000000000000000000000000000000000000000000 PUSH1 0x0 MSTORE PUSH1 0x41 PUSH1 0x4 MSTORE PUSH1 0x24 PUSH1 0x0 REVERT JUMPDEST PUSH3 0xD0 DUP3 PUSH3 0x85 JUMP JUMPDEST DUP2 ADD DUP2 DUP2 LT PUSH8 0xFFFFFFFFFFFFFFFF DUP3 GT OR ISZERO PUSH3 0xF2 JUMPI PUSH3 0xF1 PUSH3 0x96 JUMP JUMPDEST JUMPDEST DUP1 PUSH1 0x40 MSTORE POP POP POP JUMP JUMPDEST PUSH1 0x0 PUSH3 0x107 PUSH3 0x67 JUMP JUMPDEST SWAP1 POP PUSH3 0x115 DUP3 DUP3 PUSH3 0xC5 JUMP JUMPDEST SWAP2 SWAP1 POP JUMP JUMPDEST PUSH1 0x0 PUSH8 0xFFFFFFFFFFFFFFFF DUP3 GT ISZERO PUSH3 0x138 JUMPI PUSH3 0x137 PUSH3 0x96 JUMP JUMPDEST JUMPDEST PUSH3 0x143 DUP3 PUSH3 0x85 JUMP JUMPDEST SWAP1 POP PUSH1 0x20 DUP2 ADD SWAP1 POP SWAP2 SWAP1 POP JUMP JUMPDEST PUSH1 0x0 JUMPDEST DUP4 DUP2 LT ISZERO PUSH3 0x170 JUMPI DUP1 DUP3 ADD MLOAD DUP2 DUP5 ADD MSTORE PUSH1 0x20 DUP2 ADD SWAP1 POP PUSH3 0x153 JUMP JUMPDEST PUSH1 0x0 DUP5 DUP5 ADD MSTORE POP POP POP POP JUMP JUMPDEST PUSH1 0x0 PUSH3 0x193 PUSH3 0x18D DUP5 PUSH3 0x11A JUMP JUMPDEST PUSH3 0xFB JUMP JUMPDEST SWAP1 POP DUP3 DUP2 MSTORE PUSH1 0x20 DUP2 ADD DUP5 DUP5 DUP5 ADD GT ISZERO PUSH3 0x1B2 JUMPI PUSH3 0x1B1 PUSH3 0x80 JUMP JUMPDEST JUMPDEST PUSH3 0x1BF DUP5 DUP3 DUP6 PUSH3 0x150 JUMP JUMPDEST POP SWAP4 SWAP3 POP POP POP JUMP JUMPDEST PUSH1 0x0 DUP3 PUSH1 0x1F DUP4 ADD SLT PUSH3 0x1DF JUMPI PUSH3 0x1DE PUSH3 0x7B JUMP JUMPDEST JUMPDEST DUP2 MLOAD PUSH3 0x1F1 DUP5 DUP3 PUSH1 0x20 DUP7 ADD PUSH3 0x17C JUMP JUMPDEST SWAP2 POP POP SWAP3 SWAP2 POP POP JUMP JUMPDEST PUSH1 0x0 DUP1 PUSH1 0x40 DUP4 DUP6 SUB SLT ISZERO PUSH3 0x214 JUMPI PUSH3 0x213 PUSH3 0x71 JUMP JUMPDEST JUMPDEST PUSH1 0x0 DUP4 ADD MLOAD PUSH8 0xFFFFFFFFFFFFFFFF DUP2 GT ISZERO PUSH3 0x235 JUMPI PUSH3 0x234 PUSH3 0x76 JUMP JUMPDEST JUMPDEST PUSH3 0x243 DUP6 DUP3 DUP7 ADD PUSH3 0x1C7 JUMP JUMPDEST SWAP3 POP POP PUSH1 0x20 DUP4 ADD MLOAD PUSH8 0xFFFFFFFFFFFFFFFF DUP2 GT ISZERO PUSH3 0x267 JUMPI PUSH3 0x266 PUSH3 0x76 JUMP JUMPDEST JUMPDEST PUSH3 0x275 DUP6 DUP3 DUP7 ADD PUSH3 0x1C7 JUMP JUMPDEST SWAP2 POP POP SWAP3 POP SWAP3 SWAP1 POP JUMP JUMPDEST PUSH1 0x0 DUP2 MLOAD SWAP1 POP SWAP2 SWAP1 POP JUMP JUMPDEST PUSH32 0x4E487B7100000000000000000000000000000000000000000000000000000000 PUSH1 0x0 MSTORE PUSH1 0x22 PUSH1 0x4 MSTORE PUSH1 0x24 PUSH1 0x0 REVERT JUMPDEST PUSH1 0x0 PUSH1 0x2 DUP3 DIV SWAP1 POP PUSH1 0x1 DUP3 AND DUP1 PUSH3 0x2D2 JUMPI PUSH1 0x7F DUP3 AND SWAP2 POP JUMPDEST PUSH1 0x20 DUP3 LT DUP2 SUB PUSH3 0x2E8 JUMPI PUSH3 0x2E7 PUSH3 0x28A JUMP JUMPDEST JUMPDEST POP SWAP2 SWAP1 POP JUMP JUMPDEST PUSH1 0x0 DUP2 SWAP1 POP DUP2 PUSH1 0x0 MSTORE PUSH1 0x20 PUSH1 0x0 KECCAK256 SWAP1 POP SWAP2 SWAP1 POP JUMP JUMPDEST PUSH1 0x0 PUSH1 0x20 PUSH1 0x1F DUP4 ADD DIV SWAP1 POP SWAP2 SWAP1 POP JUMP JUMPDEST PUSH1 0x0 DUP3 DUP3 SHL SWAP1 POP SWAP3 SWAP2 POP POP JUMP JUMPDEST PUSH1 0x0 PUSH1 0x8 DUP4 MUL PUSH3 0x352 PUSH32 0xFFFFFFFFFFFFFFFFFFFFFFFFFFFFFFFFFFFFFFFFFFFFFFFFFFFFFFFFFFFFFFFF DUP3 PUSH3 0x313 JUMP JUMPDEST PUSH3 0x35E DUP7 DUP4 PUSH3 0x313 JUMP JUMPDEST SWAP6 POP DUP1 NOT DUP5 AND SWAP4 POP DUP1 DUP7 AND DUP5 OR SWAP3 POP POP POP SWAP4 SWAP3 POP POP POP JUMP JUMPDEST PUSH1 0x0 DUP2 SWAP1 POP SWAP2 SWAP1 POP JUMP JUMPDEST PUSH1 0x0 DUP2 SWAP1 POP SWAP2 SWAP1 POP JUMP JUMPDEST PUSH1 0x0 PUSH3 0x3AB PUSH3 0x3A5 PUSH3 0x39F DUP5 PUSH3 0x376 JUMP JUMPDEST PUSH3 0x380 JUMP JUMPDEST PUSH3 0x376 JUMP JUMPDEST SWAP1 POP SWAP2 SWAP1 POP JUMP JUMPDEST PUSH1 0x0 DUP2 SWAP1 POP SWAP2 SWAP1 POP JUMP JUMPDEST PUSH3 0x3C7 DUP4 PUSH3 0x38A JUMP JUMPDEST PUSH3 0x3DF PUSH3 0x3D6 DUP3 PUSH3 0x3B2 JUMP JUMPDEST DUP5 DUP5 SLOAD PUSH3 0x320 JUMP JUMPDEST DUP3 SSTORE POP POP POP POP JUMP JUMPDEST PUSH1 0x0 SWAP1 JUMP JUMPDEST PUSH3 0x3F6 PUSH3 0x3E7 JUMP JUMPDEST PUSH3 0x403 DUP2 DUP5 DUP5 PUSH3 0x3BC JUMP JUMPDEST POP POP POP JUMP JUMPDEST JUMPDEST DUP2 DUP2 LT ISZERO PUSH3 0x42B JUMPI PUSH3 0x41F PUSH1 0x0 DUP3 PUSH3 0x3EC JUMP JUMPDEST PUSH1 0x1 DUP2 ADD SWAP1 POP PUSH3 0x409 JUMP JUMPDEST POP POP JUMP JUMPDEST PUSH1 0x1F DUP3 GT ISZERO PUSH3 0x47A JUMPI PUSH3 0x444 DUP2 PUSH3 0x2EE JUMP JUMPDEST PUSH3 0x44F DUP5 PUSH3 0x303 JUMP JUMPDEST DUP2 ADD PUSH1 0x20 DUP6 LT ISZERO PUSH3 0x45F JUMPI DUP2 SWAP1 POP JUMPDEST PUSH3 0x477 PUSH3 0x46E DUP6 PUSH3 0x303 JUMP JUMPDEST DUP4 ADD DUP3 PUSH3 0x408 JUMP JUMPDEST POP POP JUMPDEST POP POP POP JUMP JUMPDEST PUSH1 0x0 DUP3 DUP3 SHR SWAP1 POP SWAP3 SWAP2 POP POP JUMP JUMPDEST PUSH1 0x0 PUSH3 0x49F PUSH1 0x0 NOT DUP5 PUSH1 0x8 MUL PUSH3 0x47F JUMP JUMPDEST NOT DUP1 DUP4 AND SWAP2 POP POP SWAP3 SWAP2 POP POP JUMP JUMPDEST PUSH1 0x0 PUSH3 0x4BA DUP4 DUP4 PUSH3 0x48C JUMP JUMPDEST SWAP2 POP DUP3 PUSH1 0x2 MUL DUP3 OR SWAP1 POP SWAP3 SWAP2 POP POP JUMP JUMPDEST PUSH3 0x4D5 DUP3 PUSH3 0x27F JUMP JUMPDEST PUSH8 0xFFFFFFFFFFFFFFFF DUP2 GT ISZERO PUSH3 0x4F1 JUMPI PUSH3 0x4F0 PUSH3 0x96 JUMP JUMPDEST JUMPDEST PUSH3 0x4FD DUP3 SLOAD PUSH3 0x2B9 JUMP JUMPDEST PUSH3 0x50A DUP3 DUP3 DUP6 PUSH3 0x42F JUMP JUMPDEST PUSH1 0x0 PUSH1 0x20 SWAP1 POP PUSH1 0x1F DUP4 GT PUSH1 0x1 DUP2 EQ PUSH3 0x542 JUMPI PUSH1 0x0 DUP5 ISZERO PUSH3 0x52D JUMPI DUP3 DUP8 ADD MLOAD SWAP1 POP JUMPDEST PUSH3 0x539 DUP6 DUP3 PUSH3 0x4AC JUMP JUMPDEST DUP7 SSTORE POP PUSH3 0x5A9 JUMP JUMPDEST PUSH1 0x1F NOT DUP5 AND PUSH3 0x552 DUP7 PUSH3 0x2EE JUMP JUMPDEST PUSH1 0x0 JUMPDEST DUP3 DUP2 LT ISZERO PUSH3 0x57C JUMPI DUP5 DUP10 ADD MLOAD DUP3 SSTORE PUSH1 0x1 DUP3 ADD SWAP2 POP PUSH1 0x20 DUP6 ADD SWAP5 POP PUSH1 0x20 DUP2 ADD SWAP1 POP PUSH3 0x555 JUMP JUMPDEST DUP7 DUP4 LT ISZERO PUSH3 0x59C JUMPI DUP5 DUP10 ADD MLOAD PUSH3 0x598 PUSH1 0x1F DUP10 AND DUP3 PUSH3 0x48C JUMP JUMPDEST DUP4 SSTORE POP JUMPDEST PUSH1 0x1 PUSH1 0x2 DUP9 MUL ADD DUP9 SSTORE POP POP POP JUMPDEST POP POP POP POP POP POP JUMP JUMPDEST PUSH2 0x1238 DUP1 PUSH3 0x5C1 PUSH1 0x0 CODECOPY PUSH1 0x0 RETURN INVALID PUSH1 0x80 PUSH1 0x40 MSTORE CALLVALUE DUP1 ISZERO PUSH2 0x10 JUMPI PUSH1 0x0 DUP1 REVERT JUMPDEST POP PUSH1 0x4 CALLDATASIZE LT PUSH2 0xA9 JUMPI PUSH1 0x0 CALLDATALOAD PUSH1 0xE0 SHR DUP1 PUSH4 0x39509351 GT PUSH2 0x71 JUMPI DUP1 PUSH4 0x39509351 EQ PUSH2 0x168 JUMPI DUP1 PUSH4 0x70A08231 EQ PUSH2 0x198 JUMPI DUP1 PUSH4 0x95D89B41 EQ PUSH2 0x1C8 JUMPI DUP1 PUSH4 0xA457C2D7 EQ PUSH2 0x1E6 JUMPI DUP1 PUSH4 0xA9059CBB EQ PUSH2 0x216 JUMPI DUP1 PUSH4 0xDD62ED3E EQ PUSH2 0x246 JUMPI PUSH2 0xA9 JUMP JUMPDEST DUP1 PUSH4 0x6FDDE03 EQ PUSH2 0xAE JUMPI DUP1 PUSH4 0x95EA7B3 EQ PUSH2 0xCC JUMPI DUP1 PUSH4 0x18160DDD EQ PUSH2 0xFC JUMPI DUP1 PUSH4 0x23B872DD EQ PUSH2 0x11A JUMPI DUP1 PUSH4 0x313CE567 EQ PUSH2 0x14A JUMPI JUMPDEST PUSH1 0x0 DUP1 REVERT JUMPDEST PUSH2 0xB6 PUSH2 0x276 JUMP JUMPDEST PUSH1 0x40 MLOAD PUSH2 0xC3 SWAP2 SWAP1 PUSH2 0xB15 JUMP JUMPDEST PUSH1 0x40 MLOAD DUP1 SWAP2 SUB SWAP1 RETURN JUMPDEST PUSH2 0xE6 PUSH1 0x4 DUP1 CALLDATASIZE SUB DUP2 ADD SWAP1 PUSH2 0xE1 SWAP2 SWAP1 PUSH2 0xBD0 JUMP JUMPDEST PUSH2 0x308 JUMP JUMPDEST PUSH1 0x40 MLOAD PUSH2 0xF3 SWAP2 SWAP1 PUSH2 0xC2B JUMP JUMPDEST PUSH1 0x40 MLOAD DUP1 SWAP2 SUB SWAP1 RETURN JUMPDEST PUSH2 0x104 PUSH2 0x32B JUMP JUMPDEST PUSH1 0x40 MLOAD PUSH2 0x111 SWAP2 SWAP1 PUSH2 0xC55 JUMP JUMPDEST PUSH1 0x40 MLOAD DUP1 SWAP2 SUB SWAP1 RETURN JUMPDEST PUSH2 0x134 PUSH1 0x4 DUP1 CALLDATASIZE SUB DUP2 ADD SWAP1 PUSH2 0x12F SWAP2 SWAP1 PUSH2 0xC70 JUMP JUMPDEST PUSH2 0x335 JUMP JUMPDEST PUSH1 0x40 MLOAD PUSH2 0x141 SWAP2 SWAP1 PUSH2 0xC2B JUMP JUMPDEST PUSH1 0x40 MLOAD DUP1 SWAP2 SUB SWAP1 RETURN JUMPDEST PUSH2 0x152 PUSH2 0x364 JUMP JUMPDEST PUSH1 0x40 MLOAD PUSH2 0x15F SWAP2 SWAP1 PUSH2 0xCDF JUMP JUMPDEST PUSH1 0x40 MLOAD DUP1 SWAP2 SUB SWAP1 RETURN JUMPDEST PUSH2 0x182 PUSH1 0x4 DUP1 CALLDATASIZE SUB DUP2 ADD SWAP1 PUSH2 0x17D SWAP2 SWAP1 PUSH2 0xBD0 JUMP JUMPDEST PUSH2 0x36D JUMP JUMPDEST PUSH1 0x40 MLOAD PUSH2 0x18F SWAP2 SWAP1 PUSH2 0xC2B JUMP JUMPDEST PUSH1 0x40 MLOAD DUP1 SWAP2 SUB SWAP1 RETURN JUMPDEST PUSH2 0x1B2 PUSH1 0x4 DUP1 CALLDATASIZE SUB DUP2 ADD SWAP1 PUSH2 0x1AD SWAP2 SWAP1 PUSH2 0xCFA JUMP JUMPDEST PUSH2 0x3A4 JUMP JUMPDEST PUSH1 0x40 MLOAD PUSH2 0x1BF SWAP2 SWAP1 PUSH2 0xC55 JUMP JUMPDEST PUSH1 0x40 MLOAD DUP1 SWAP2 SUB SWAP1 RETURN JUMPDEST PUSH2 0x1D0 PUSH2 0x3EC JUMP JUMPDEST PUSH1 0x40 MLOAD PUSH2 0x1DD SWAP2 SWAP1 PUSH2 0xB15 JUMP JUMPDEST PUSH1 0x40 MLOAD DUP1 SWAP2 SUB SWAP1 RETURN JUMPDEST PUSH2 0x200 PUSH1 0x4 DUP1 CALLDATASIZE SUB DUP2 ADD SWAP1 PUSH2 0x1FB SWAP2 SWAP1 PUSH2 0xBD0 JUMP JUMPDEST PUSH2 0x47E JUMP JUMPDEST PUSH1 0x40 MLOAD PUSH2 0x20D SWAP2 SWAP1 PUSH2 0xC2B JUMP JUMPDEST PUSH1 0x40 MLOAD DUP1 SWAP2 SUB SWAP1 RETURN JUMPDEST PUSH2 0x230 PUSH1 0x4 DUP1 CALLDATASIZE SUB DUP2 ADD SWAP1 PUSH2 0x22B SWAP2 SWAP1 PUSH2 0xBD0 JUMP JUMPDEST PUSH2 0x4F5 JUMP JUMPDEST PUSH1 0x40 MLOAD PUSH2 0x23D SWAP2 SWAP1 PUSH2 0xC2B JUMP JUMPDEST PUSH1 0x40 MLOAD DUP1 SWAP2 SUB SWAP1 RETURN JUMPDEST PUSH2 0x260 PUSH1 0x4 DUP1 CALLDATASIZE SUB DUP2 ADD SWAP1 PUSH2 0x25B SWAP2 SWAP1 PUSH2 0xD27 JUMP JUMPDEST PUSH2 0x518 JUMP JUMPDEST PUSH1 0x40 MLOAD PUSH2 0x26D SWAP2 SWAP1 PUSH2 0xC55 JUMP JUMPDEST PUSH1 0x40 MLOAD DUP1 SWAP2 SUB SWAP1 RETURN JUMPDEST PUSH1 0x60 PUSH1 0x3 DUP1 SLOAD PUSH2 0x285 SWAP1 PUSH2 0xD96 JUMP JUMPDEST DUP1 PUSH1 0x1F ADD PUSH1 0x20 DUP1 SWAP2 DIV MUL PUSH1 0x20 ADD PUSH1 0x40 MLOAD SWAP1 DUP2 ADD PUSH1 0x40 MSTORE DUP1 SWAP3 SWAP2 SWAP1 DUP2 DUP2 MSTORE PUSH1 0x20 ADD DUP3 DUP1 SLOAD PUSH2 0x2B1 SWAP1 PUSH2 0xD96 JUMP JUMPDEST DUP1 ISZERO PUSH2 0x2FE JUMPI DUP1 PUSH1 0x1F LT PUSH2 0x2D3 JUMPI PUSH2 0x100 DUP1 DUP4 SLOAD DIV MUL DUP4 MSTORE SWAP2 PUSH1 0x20 ADD SWAP2 PUSH2 0x2FE JUMP JUMPDEST DUP3 ADD SWAP2 SWAP1 PUSH1 0x0 MSTORE PUSH1 0x20 PUSH1 0x0 KECCAK256 SWAP1 JUMPDEST DUP2 SLOAD DUP2 MSTORE SWAP1 PUSH1 0x1 ADD SWAP1 PUSH1 0x20 ADD DUP1 DUP4 GT PUSH2 0x2E1 JUMPI DUP3 SWAP1 SUB PUSH1 0x1F AND DUP3 ADD SWAP2 JUMPDEST POP POP POP POP POP SWAP1 POP SWAP1 JUMP JUMPDEST PUSH1 0x0 DUP1 PUSH2 0x313 PUSH2 0x59F JUMP JUMPDEST SWAP1 POP PUSH2 0x320 DUP2 DUP6 DUP6 PUSH2 0x5A7 JUMP JUMPDEST PUSH1 0x1 SWAP2 POP POP SWAP3 SWAP2 POP POP JUMP JUMPDEST PUSH1 0x0 PUSH1 0x2 SLOAD SWAP1 POP SWAP1 JUMP JUMPDEST PUSH1 0x0 DUP1 PUSH2 0x340 PUSH2 0x59F JUMP JUMPDEST SWAP1 POP PUSH2 0x34D DUP6 DUP3 DUP6 PUSH2 0x770 JUMP JUMPDEST PUSH2 0x358 DUP6 DUP6 DUP6 PUSH2 0x7FC JUMP JUMPDEST PUSH1 0x1 SWAP2 POP POP SWAP4 SWAP3 POP POP POP JUMP JUMPDEST PUSH1 0x0 PUSH1 0x12 SWAP1 POP SWAP1 JUMP JUMPDEST PUSH1 0x0 DUP1 PUSH2 0x378 PUSH2 0x59F JUMP JUMPDEST SWAP1 POP PUSH2 0x399 DUP2 DUP6 DUP6 PUSH2 0x38A DUP6 DUP10 PUSH2 0x518 JUMP JUMPDEST PUSH2 0x394 SWAP2 SWAP1 PUSH2 0xDF6 JUMP JUMPDEST PUSH2 0x5A7 JUMP JUMPDEST PUSH1 0x1 SWAP2 POP POP SWAP3 SWAP2 POP POP JUMP JUMPDEST PUSH1 0x0 DUP1 PUSH1 0x0 DUP4 PUSH20 0xFFFFFFFFFFFFFFFFFFFFFFFFFFFFFFFFFFFFFFFF AND PUSH20 0xFFFFFFFFFFFFFFFFFFFFFFFFFFFFFFFFFFFFFFFF AND DUP2 MSTORE PUSH1 0x20 ADD SWAP1 DUP2 MSTORE PUSH1 0x20 ADD PUSH1 0x0 KECCAK256 SLOAD SWAP1 POP SWAP2 SWAP1 POP JUMP JUMPDEST PUSH1 0x60 PUSH1 0x4 DUP1 SLOAD PUSH2 0x3FB SWAP1 PUSH2 0xD96 JUMP JUMPDEST DUP1 PUSH1 0x1F ADD PUSH1 0x20 DUP1 SWAP2 DIV MUL PUSH1 0x20 ADD PUSH1 0x40 MLOAD SWAP1 DUP2 ADD PUSH1 0x40 MSTORE DUP1 SWAP3 SWAP2 SWAP1 DUP2 DUP2 MSTORE PUSH1 0x20 ADD DUP3 DUP1 SLOAD PUSH2 0x427 SWAP1 PUSH2 0xD96 JUMP JUMPDEST DUP1 ISZERO PUSH2 0x474 JUMPI DUP1 PUSH1 0x1F LT PUSH2 0x449 JUMPI PUSH2 0x100 DUP1 DUP4 SLOAD DIV MUL DUP4 MSTORE SWAP2 PUSH1 0x20 ADD SWAP2 PUSH2 0x474 JUMP JUMPDEST DUP3 ADD SWAP2 SWAP1 PUSH1 0x0 MSTORE PUSH1 0x20 PUSH1 0x0 KECCAK256 SWAP1 JUMPDEST DUP2 SLOAD DUP2 MSTORE SWAP1 PUSH1 0x1 ADD SWAP1 PUSH1 0x20 ADD DUP1 DUP4 GT PUSH2 0x457 JUMPI DUP3 SWAP1 SUB PUSH1 0x1F AND DUP3 ADD SWAP2 JUMPDEST POP POP POP POP POP SWAP1 POP SWAP1 JUMP JUMPDEST PUSH1 0x0 DUP1 PUSH2 0x489 PUSH2 0x59F JUMP JUMPDEST SWAP1 POP PUSH1 0x0 PUSH2 0x497 DUP3 DUP7 PUSH2 0x518 JUMP JUMPDEST SWAP1 POP DUP4 DUP2 LT ISZERO PUSH2 0x4DC JUMPI PUSH1 0x40 MLOAD PUSH32 0x8C379A000000000000000000000000000000000000000000000000000000000 DUP2 MSTORE PUSH1 0x4 ADD PUSH2 0x4D3 SWAP1 PUSH2 0xE9C JUMP JUMPDEST PUSH1 0x40 MLOAD DUP1 SWAP2 SUB SWAP1 REVERT JUMPDEST PUSH2 0x4E9 DUP3 DUP7 DUP7 DUP5 SUB PUSH2 0x5A7 JUMP JUMPDEST PUSH1 0x1 SWAP3 POP POP POP SWAP3 SWAP2 POP POP JUMP JUMPDEST PUSH1 0x0 DUP1 PUSH2 0x500 PUSH2 0x59F JUMP JUMPDEST SWAP1 POP PUSH2 0x50D DUP2 DUP6 DUP6 PUSH2 0x7FC JUMP JUMPDEST PUSH1 0x1 SWAP2 POP POP SWAP3 SWAP2 POP POP JUMP JUMPDEST PUSH1 0x0 PUSH1 0x1 PUSH1 0x0 DUP5 PUSH20 0xFFFFFFFFFFFFFFFFFFFFFFFFFFFFFFFFFFFFFFFF AND PUSH20 0xFFFFFFFFFFFFFFFFFFFFFFFFFFFFFFFFFFFFFFFF AND DUP2 MSTORE PUSH1 0x20 ADD SWAP1 DUP2 MSTORE PUSH1 0x20 ADD PUSH1 0x0 KECCAK256 PUSH1 0x0 DUP4 PUSH20 0xFFFFFFFFFFFFFFFFFFFFFFFFFFFFFFFFFFFFFFFF AND PUSH20 0xFFFFFFFFFFFFFFFFFFFFFFFFFFFFFFFFFFFFFFFF AND DUP2 MSTORE PUSH1 0x20 ADD SWAP1 DUP2 MSTORE PUSH1 0x20 ADD PUSH1 0x0 KECCAK256 SLOAD SWAP1 POP SWAP3 SWAP2 POP POP JUMP JUMPDEST PUSH1 0x0 CALLER SWAP1 POP SWAP1 JUMP JUMPDEST PUSH1 0x0 PUSH20 0xFFFFFFFFFFFFFFFFFFFFFFFFFFFFFFFFFFFFFFFF AND DUP4 PUSH20 0xFFFFFFFFFFFFFFFFFFFFFFFFFFFFFFFFFFFFFFFF AND SUB PUSH2 0x616 JUMPI PUSH1 0x40 MLOAD PUSH32 0x8C379A000000000000000000000000000000000000000000000000000000000 DUP2 MSTORE PUSH1 0x4 ADD PUSH2 0x60D SWAP1 PUSH2 0xF2E JUMP JUMPDEST PUSH1 0x40 MLOAD DUP1 SWAP2 SUB SWAP1 REVERT JUMPDEST PUSH1 0x0 PUSH20 0xFFFFFFFFFFFFFFFFFFFFFFFFFFFFFFFFFFFFFFFF AND DUP3 PUSH20 0xFFFFFFFFFFFFFFFFFFFFFFFFFFFFFFFFFFFFFFFF AND SUB PUSH2 0x685 JUMPI PUSH1 0x40 MLOAD PUSH32 0x8C379A000000000000000000000000000000000000000000000000000000000 DUP2 MSTORE PUSH1 0x4 ADD PUSH2 0x67C SWAP1 PUSH2 0xFC0 JUMP JUMPDEST PUSH1 0x40 MLOAD DUP1 SWAP2 SUB SWAP1 REVERT JUMPDEST DUP1 PUSH1 0x1 PUSH1 0x0 DUP6 PUSH20 0xFFFFFFFFFFFFFFFFFFFFFFFFFFFFFFFFFFFFFFFF AND PUSH20 0xFFFFFFFFFFFFFFFFFFFFFFFFFFFFFFFFFFFFFFFF AND DUP2 MSTORE PUSH1 0x20 ADD SWAP1 DUP2 MSTORE PUSH1 0x20 ADD PUSH1 0x0 KECCAK256 PUSH1 0x0 DUP5 PUSH20 0xFFFFFFFFFFFFFFFFFFFFFFFFFFFFFFFFFFFFFFFF AND PUSH20 0xFFFFFFFFFFFFFFFFFFFFFFFFFFFFFFFFFFFFFFFF AND DUP2 MSTORE PUSH1 0x20 ADD SWAP1 DUP2 MSTORE PUSH1 0x20 ADD PUSH1 0x0 KECCAK256 DUP2 SWAP1 SSTORE POP DUP2 PUSH20 0xFFFFFFFFFFFFFFFFFFFFFFFFFFFFFFFFFFFFFFFF AND DUP4 PUSH20 0xFFFFFFFFFFFFFFFFFFFFFFFFFFFFFFFFFFFFFFFF AND PUSH32 0x8C5BE1E5EBEC7D5BD14F71427D1E84F3DD0314C0F7B2291E5B200AC8C7C3B925 DUP4 PUSH1 0x40 MLOAD PUSH2 0x763 SWAP2 SWAP1 PUSH2 0xC55 JUMP JUMPDEST PUSH1 0x40 MLOAD DUP1 SWAP2 SUB SWAP1 LOG3 POP POP POP JUMP JUMPDEST PUSH1 0x0 PUSH2 0x77C DUP5 DUP5 PUSH2 0x518 JUMP JUMPDEST SWAP1 POP PUSH32 0xFFFFFFFFFFFFFFFFFFFFFFFFFFFFFFFFFFFFFFFFFFFFFFFFFFFFFFFFFFFFFFFF DUP2 EQ PUSH2 0x7F6 JUMPI DUP2 DUP2 LT ISZERO PUSH2 0x7E8 JUMPI PUSH1 0x40 MLOAD PUSH32 0x8C379A000000000000000000000000000000000000000000000000000000000 DUP2 MSTORE PUSH1 0x4 ADD PUSH2 0x7DF SWAP1 PUSH2 0x102C JUMP JUMPDEST PUSH1 0x40 MLOAD DUP1 SWAP2 SUB SWAP1 REVERT JUMPDEST PUSH2 0x7F5 DUP5 DUP5 DUP5 DUP5 SUB PUSH2 0x5A7 JUMP JUMPDEST JUMPDEST POP POP POP POP JUMP JUMPDEST PUSH1 0x0 PUSH20 0xFFFFFFFFFFFFFFFFFFFFFFFFFFFFFFFFFFFFFFFF AND DUP4 PUSH20 0xFFFFFFFFFFFFFFFFFFFFFFFFFFFFFFFFFFFFFFFF AND SUB PUSH2 0x86B JUMPI PUSH1 0x40 MLOAD PUSH32 0x8C379A000000000000000000000000000000000000000000000000000000000 DUP2 MSTORE PUSH1 0x4 ADD PUSH2 0x862 SWAP1 PUSH2 0x10BE JUMP JUMPDEST PUSH1 0x40 MLOAD DUP1 SWAP2 SUB SWAP1 REVERT JUMPDEST PUSH1 0x0 PUSH20 0xFFFFFFFFFFFFFFFFFFFFFFFFFFFFFFFFFFFFFFFF AND DUP3 PUSH20 0xFFFFFFFFFFFFFFFFFFFFFFFFFFFFFFFFFFFFFFFF AND SUB PUSH2 0x8DA JUMPI PUSH1 0x40 MLOAD PUSH32 0x8C379A000000000000000000000000000000000000000000000000000000000 DUP2 MSTORE PUSH1 0x4 ADD PUSH2 0x8D1 SWAP1 PUSH2 0x1150 JUMP JUMPDEST PUSH1 0x40 MLOAD DUP1 SWAP2 SUB SWAP1 REVERT JUMPDEST PUSH2 0x8E5 DUP4 DUP4 DUP4 PUSH2 0xA7B JUMP JUMPDEST PUSH1 0x0 DUP1 PUSH1 0x0 DUP6 PUSH20 0xFFFFFFFFFFFFFFFFFFFFFFFFFFFFFFFFFFFFFFFF AND PUSH20 0xFFFFFFFFFFFFFFFFFFFFFFFFFFFFFFFFFFFFFFFF AND DUP2 MSTORE PUSH1 0x20 ADD SWAP1 DUP2 MSTORE PUSH1 0x20 ADD PUSH1 0x0 KECCAK256 SLOAD SWAP1 POP DUP2 DUP2 LT ISZERO PUSH2 0x96B JUMPI PUSH1 0x40 MLOAD PUSH32 0x8C379A000000000000000000000000000000000000000000000000000000000 DUP2 MSTORE PUSH1 0x4 ADD PUSH2 0x962 SWAP1 PUSH2 0x11E2 JUMP JUMPDEST PUSH1 0x40 MLOAD DUP1 SWAP2 SUB SWAP1 REVERT JUMPDEST DUP2 DUP2 SUB PUSH1 0x0 DUP1 DUP7 PUSH20 0xFFFFFFFFFFFFFFFFFFFFFFFFFFFFFFFFFFFFFFFF AND PUSH20 0xFFFFFFFFFFFFFFFFFFFFFFFFFFFFFFFFFFFFFFFF AND DUP2 MSTORE PUSH1 0x20 ADD SWAP1 DUP2 MSTORE PUSH1 0x20 ADD PUSH1 0x0 KECCAK256 DUP2 SWAP1 SSTORE POP DUP2 PUSH1 0x0 DUP1 DUP6 PUSH20 0xFFFFFFFFFFFFFFFFFFFFFFFFFFFFFFFFFFFFFFFF AND PUSH20 0xFFFFFFFFFFFFFFFFFFFFFFFFFFFFFFFFFFFFFFFF AND DUP2 MSTORE PUSH1 0x20 ADD SWAP1 DUP2 MSTORE PUSH1 0x20 ADD PUSH1 0x0 KECCAK256 PUSH1 0x0 DUP3 DUP3 SLOAD PUSH2 0x9FE SWAP2 SWAP1 PUSH2 0xDF6 JUMP JUMPDEST SWAP3 POP POP DUP2 SWAP1 SSTORE POP DUP3 PUSH20 0xFFFFFFFFFFFFFFFFFFFFFFFFFFFFFFFFFFFFFFFF AND DUP5 PUSH20 0xFFFFFFFFFFFFFFFFFFFFFFFFFFFFFFFFFFFFFFFF AND PUSH32 0xDDF252AD1BE2C89B69C2B068FC378DAA952BA7F163C4A11628F55A4DF523B3EF DUP5 PUSH1 0x40 MLOAD PUSH2 0xA62 SWAP2 SWAP1 PUSH2 0xC55 JUMP JUMPDEST PUSH1 0x40 MLOAD DUP1 SWAP2 SUB SWAP1 LOG3 PUSH2 0xA75 DUP5 DUP5 DUP5 PUSH2 0xA80 JUMP JUMPDEST POP POP POP POP JUMP JUMPDEST POP POP POP JUMP JUMPDEST POP POP POP JUMP JUMPDEST PUSH1 0x0 DUP2 MLOAD SWAP1 POP SWAP2 SWAP1 POP JUMP JUMPDEST PUSH1 0x0 DUP3 DUP3 MSTORE PUSH1 0x20 DUP3 ADD SWAP1 POP SWAP3 SWAP2 POP POP JUMP JUMPDEST PUSH1 0x0 JUMPDEST DUP4 DUP2 LT ISZERO PUSH2 0xABF JUMPI DUP1 DUP3 ADD MLOAD DUP2 DUP5 ADD MSTORE PUSH1 0x20 DUP2 ADD SWAP1 POP PUSH2 0xAA4 JUMP JUMPDEST PUSH1 0x0 DUP5 DUP5 ADD MSTORE POP POP POP POP JUMP JUMPDEST PUSH1 0x0 PUSH1 0x1F NOT PUSH1 0x1F DUP4 ADD AND SWAP1 POP SWAP2 SWAP1 POP JUMP JUMPDEST PUSH1 0x0 PUSH2 0xAE7 DUP3 PUSH2 0xA85 JUMP JUMPDEST PUSH2 0xAF1 DUP2 DUP6 PUSH2 0xA90 JUMP JUMPDEST SWAP4 POP PUSH2 0xB01 DUP2 DUP6 PUSH1 0x20 DUP7 ADD PUSH2 0xAA1 JUMP JUMPDEST PUSH2 0xB0A DUP2 PUSH2 0xACB JUMP JUMPDEST DUP5 ADD SWAP2 POP POP SWAP3 SWAP2 POP POP JUMP JUMPDEST PUSH1 0x0 PUSH1 0x20 DUP3 ADD SWAP1 POP DUP2 DUP2 SUB PUSH1 0x0 DUP4 ADD MSTORE PUSH2 0xB2F DUP2 DUP5 PUSH2 0xADC JUMP JUMPDEST SWAP1 POP SWAP3 SWAP2 POP POP JUMP JUMPDEST PUSH1 0x0 DUP1 REVERT JUMPDEST PUSH1 0x0 PUSH20 0xFFFFFFFFFFFFFFFFFFFFFFFFFFFFFFFFFFFFFFFF DUP3 AND SWAP1 POP SWAP2 SWAP1 POP JUMP JUMPDEST PUSH1 0x0 PUSH2 0xB67 DUP3 PUSH2 0xB3C JUMP JUMPDEST SWAP1 POP SWAP2 SWAP1 POP JUMP JUMPDEST PUSH2 0xB77 DUP2 PUSH2 0xB5C JUMP JUMPDEST DUP2 EQ PUSH2 0xB82 JUMPI PUSH1 0x0 DUP1 REVERT JUMPDEST POP JUMP JUMPDEST PUSH1 0x0 DUP2 CALLDATALOAD SWAP1 POP PUSH2 0xB94 DUP2 PUSH2 0xB6E JUMP JUMPDEST SWAP3 SWAP2 POP POP JUMP JUMPDEST PUSH1 0x0 DUP2 SWAP1 POP SWAP2 SWAP1 POP JUMP JUMPDEST PUSH2 0xBAD DUP2 PUSH2 0xB9A JUMP JUMPDEST DUP2 EQ PUSH2 0xBB8 JUMPI PUSH1 0x0 DUP1 REVERT JUMPDEST POP JUMP JUMPDEST PUSH1 0x0 DUP2 CALLDATALOAD SWAP1 POP PUSH2 0xBCA DUP2 PUSH2 0xBA4 JUMP JUMPDEST SWAP3 SWAP2 POP POP JUMP JUMPDEST PUSH1 0x0 DUP1 PUSH1 0x40 DUP4 DUP6 SUB SLT ISZERO PUSH2 0xBE7 JUMPI PUSH2 0xBE6 PUSH2 0xB37 JUMP JUMPDEST JUMPDEST PUSH1 0x0 PUSH2 0xBF5 DUP6 DUP3 DUP7 ADD PUSH2 0xB85 JUMP JUMPDEST SWAP3 POP POP PUSH1 0x20 PUSH2 0xC06 DUP6 DUP3 DUP7 ADD PUSH2 0xBBB JUMP JUMPDEST SWAP2 POP POP SWAP3 POP SWAP3 SWAP1 POP JUMP JUMPDEST PUSH1 0x0 DUP2 ISZERO ISZERO SWAP1 POP SWAP2 SWAP1 POP JUMP JUMPDEST PUSH2 0xC25 DUP2 PUSH2 0xC10 JUMP JUMPDEST DUP3 MSTORE POP POP JUMP JUMPDEST PUSH1 0x0 PUSH1 0x20 DUP3 ADD SWAP1 POP PUSH2 0xC40 PUSH1 0x0 DUP4 ADD DUP5 PUSH2 0xC1C JUMP JUMPDEST SWAP3 SWAP2 POP POP JUMP JUMPDEST PUSH2 0xC4F DUP2 PUSH2 0xB9A JUMP JUMPDEST DUP3 MSTORE POP POP JUMP JUMPDEST PUSH1 0x0 PUSH1 0x20 DUP3 ADD SWAP1 POP PUSH2 0xC6A PUSH1 0x0 DUP4 ADD DUP5 PUSH2 0xC46 JUMP JUMPDEST SWAP3 SWAP2 POP POP JUMP JUMPDEST PUSH1 0x0 DUP1 PUSH1 0x0 PUSH1 0x60 DUP5 DUP7 SUB SLT ISZERO PUSH2 0xC89 JUMPI PUSH2 0xC88 PUSH2 0xB37 JUMP JUMPDEST JUMPDEST PUSH1 0x0 PUSH2 0xC97 DUP7 DUP3 DUP8 ADD PUSH2 0xB85 JUMP JUMPDEST SWAP4 POP POP PUSH1 0x20 PUSH2 0xCA8 DUP7 DUP3 DUP8 ADD PUSH2 0xB85 JUMP JUMPDEST SWAP3 POP POP PUSH1 0x40 PUSH2 0xCB9 DUP7 DUP3 DUP8 ADD PUSH2 0xBBB JUMP JUMPDEST SWAP2 POP POP SWAP3 POP SWAP3 POP SWAP3 JUMP JUMPDEST PUSH1 0x0 PUSH1 0xFF DUP3 AND SWAP1 POP SWAP2 SWAP1 POP JUMP JUMPDEST PUSH2 0xCD9 DUP2 PUSH2 0xCC3 JUMP JUMPDEST DUP3 MSTORE POP POP JUMP JUMPDEST PUSH1 0x0 PUSH1 0x20 DUP3 ADD SWAP1 POP PUSH2 0xCF4 PUSH1 0x0 DUP4 ADD DUP5 PUSH2 0xCD0 JUMP JUMPDEST SWAP3 SWAP2 POP POP JUMP JUMPDEST PUSH1 0x0 PUSH1 0x20 DUP3 DUP5 SUB SLT ISZERO PUSH2 0xD10 JUMPI PUSH2 0xD0F PUSH2 0xB37 JUMP JUMPDEST JUMPDEST PUSH1 0x0 PUSH2 0xD1E DUP5 DUP3 DUP6 ADD PUSH2 0xB85 JUMP JUMPDEST SWAP2 POP POP SWAP3 SWAP2 POP POP JUMP JUMPDEST PUSH1 0x0 DUP1 PUSH1 0x40 DUP4 DUP6 SUB SLT ISZERO PUSH2 0xD3E JUMPI PUSH2 0xD3D PUSH2 0xB37 JUMP JUMPDEST JUMPDEST PUSH1 0x0 PUSH2 0xD4C DUP6 DUP3 DUP7 ADD PUSH2 0xB85 JUMP JUMPDEST SWAP3 POP POP PUSH1 0x20 PUSH2 0xD5D DUP6 DUP3 DUP7 ADD PUSH2 0xB85 JUMP JUMPDEST SWAP2 POP POP SWAP3 POP SWAP3 SWAP1 POP JUMP JUMPDEST PUSH32 0x4E487B7100000000000000000000000000000000000000000000000000000000 PUSH1 0x0 MSTORE PUSH1 0x22 PUSH1 0x4 MSTORE PUSH1 0x24 PUSH1 0x0 REVERT JUMPDEST PUSH1 0x0 PUSH1 0x2 DUP3 DIV SWAP1 POP PUSH1 0x1 DUP3 AND DUP1 PUSH2 0xDAE JUMPI PUSH1 0x7F DUP3 AND SWAP2 POP JUMPDEST PUSH1 0x20 DUP3 LT DUP2 SUB PUSH2 0xDC1 JUMPI PUSH2 0xDC0 PUSH2 0xD67 JUMP JUMPDEST JUMPDEST POP SWAP2 SWAP1 POP JUMP JUMPDEST PUSH32 0x4E487B7100000000000000000000000000000000000000000000000000000000 PUSH1 0x0 MSTORE PUSH1 0x11 PUSH1 0x4 MSTORE PUSH1 0x24 PUSH1 0x0 REVERT JUMPDEST PUSH1 0x0 PUSH2 0xE01 DUP3 PUSH2 0xB9A JUMP JUMPDEST SWAP2 POP PUSH2 0xE0C DUP4 PUSH2 0xB9A JUMP JUMPDEST SWAP3 POP DUP3 DUP3 ADD SWAP1 POP DUP1 DUP3 GT ISZERO PUSH2 0xE24 JUMPI PUSH2 0xE23 PUSH2 0xDC7 JUMP JUMPDEST JUMPDEST SWAP3 SWAP2 POP POP JUMP JUMPDEST PUSH32 0x45524332303A2064656372656173656420616C6C6F77616E63652062656C6F77 PUSH1 0x0 DUP3 ADD MSTORE PUSH32 0x207A65726F000000000000000000000000000000000000000000000000000000 PUSH1 0x20 DUP3 ADD MSTORE POP JUMP JUMPDEST PUSH1 0x0 PUSH2 0xE86 PUSH1 0x25 DUP4 PUSH2 0xA90 JUMP JUMPDEST SWAP2 POP PUSH2 0xE91 DUP3 PUSH2 0xE2A JUMP JUMPDEST PUSH1 0x40 DUP3 ADD SWAP1 POP SWAP2 SWAP1 POP JUMP JUMPDEST PUSH1 0x0 PUSH1 0x20 DUP3 ADD SWAP1 POP DUP2 DUP2 SUB PUSH1 0x0 DUP4 ADD MSTORE PUSH2 0xEB5 DUP2 PUSH2 0xE79 JUMP JUMPDEST SWAP1 POP SWAP2 SWAP1 POP JUMP JUMPDEST PUSH32 0x45524332303A20617070726F76652066726F6D20746865207A65726F20616464 PUSH1 0x0 DUP3 ADD MSTORE PUSH32 0x7265737300000000000000000000000000000000000000000000000000000000 PUSH1 0x20 DUP3 ADD MSTORE POP JUMP JUMPDEST PUSH1 0x0 PUSH2 0xF18 PUSH1 0x24 DUP4 PUSH2 0xA90 JUMP JUMPDEST SWAP2 POP PUSH2 0xF23 DUP3 PUSH2 0xEBC JUMP JUMPDEST PUSH1 0x40 DUP3 ADD SWAP1 POP SWAP2 SWAP1 POP JUMP JUMPDEST PUSH1 0x0 PUSH1 0x20 DUP3 ADD SWAP1 POP DUP2 DUP2 SUB PUSH1 0x0 DUP4 ADD MSTORE PUSH2 0xF47 DUP2 PUSH2 0xF0B JUMP JUMPDEST SWAP1 POP SWAP2 SWAP1 POP JUMP JUMPDEST PUSH32 0x45524332303A20617070726F766520746F20746865207A65726F206164647265 PUSH1 0x0 DUP3 ADD MSTORE PUSH32 0x7373000000000000000000000000000000000000000000000000000000000000 PUSH1 0x20 DUP3 ADD MSTORE POP JUMP JUMPDEST PUSH1 0x0 PUSH2 0xFAA PUSH1 0x22 DUP4 PUSH2 0xA90 JUMP JUMPDEST SWAP2 POP PUSH2 0xFB5 DUP3 PUSH2 0xF4E JUMP JUMPDEST PUSH1 0x40 DUP3 ADD SWAP1 POP SWAP2 SWAP1 POP JUMP JUMPDEST PUSH1 0x0 PUSH1 0x20 DUP3 ADD SWAP1 POP DUP2 DUP2 SUB PUSH1 0x0 DUP4 ADD MSTORE PUSH2 0xFD9 DUP2 PUSH2 0xF9D JUMP JUMPDEST SWAP1 POP SWAP2 SWAP1 POP JUMP JUMPDEST PUSH32 0x45524332303A20696E73756666696369656E7420616C6C6F77616E6365000000 PUSH1 0x0 DUP3 ADD MSTORE POP JUMP JUMPDEST PUSH1 0x0 PUSH2 0x1016 PUSH1 0x1D DUP4 PUSH2 0xA90 JUMP JUMPDEST SWAP2 POP PUSH2 0x1021 DUP3 PUSH2 0xFE0 JUMP JUMPDEST PUSH1 0x20 DUP3 ADD SWAP1 POP SWAP2 SWAP1 POP JUMP JUMPDEST PUSH1 0x0 PUSH1 0x20 DUP3 ADD SWAP1 POP DUP2 DUP2 SUB PUSH1 0x0 DUP4 ADD MSTORE PUSH2 0x1045 DUP2 PUSH2 0x1009 JUMP JUMPDEST SWAP1 POP SWAP2 SWAP1 POP JUMP JUMPDEST PUSH32 0x45524332303A207472616E736665722066726F6D20746865207A65726F206164 PUSH1 0x0 DUP3 ADD MSTORE PUSH32 0x6472657373000000000000000000000000000000000000000000000000000000 PUSH1 0x20 DUP3 ADD MSTORE POP JUMP JUMPDEST PUSH1 0x0 PUSH2 0x10A8 PUSH1 0x25 DUP4 PUSH2 0xA90 JUMP JUMPDEST SWAP2 POP PUSH2 0x10B3 DUP3 PUSH2 0x104C JUMP JUMPDEST PUSH1 0x40 DUP3 ADD SWAP1 POP SWAP2 SWAP1 POP JUMP JUMPDEST PUSH1 0x0 PUSH1 0x20 DUP3 ADD SWAP1 POP DUP2 DUP2 SUB PUSH1 0x0 DUP4 ADD MSTORE PUSH2 0x10D7 DUP2 PUSH2 0x109B JUMP JUMPDEST SWAP1 POP SWAP2 SWAP1 POP JUMP JUMPDEST PUSH32 0x45524332303A207472616E7366657220746F20746865207A65726F2061646472 PUSH1 0x0 DUP3 ADD MSTORE PUSH32 0x6573730000000000000000000000000000000000000000000000000000000000 PUSH1 0x20 DUP3 ADD MSTORE POP JUMP JUMPDEST PUSH1 0x0 PUSH2 0x113A PUSH1 0x23 DUP4 PUSH2 0xA90 JUMP JUMPDEST SWAP2 POP PUSH2 0x1145 DUP3 PUSH2 0x10DE JUMP JUMPDEST PUSH1 0x40 DUP3 ADD SWAP1 POP SWAP2 SWAP1 POP JUMP JUMPDEST PUSH1 0x0 PUSH1 0x20 DUP3 ADD SWAP1 POP DUP2 DUP2 SUB PUSH1 0x0 DUP4 ADD MSTORE PUSH2 0x1169 DUP2 PUSH2 0x112D JUMP JUMPDEST SWAP1 POP SWAP2 SWAP1 POP JUMP JUMPDEST PUSH32 0x45524332303A207472616E7366657220616D6F756E7420657863656564732062 PUSH1 0x0 DUP3 ADD MSTORE PUSH32 0x616C616E63650000000000000000000000000000000000000000000000000000 PUSH1 0x20 DUP3 ADD MSTORE POP JUMP JUMPDEST PUSH1 0x0 PUSH2 0x11CC PUSH1 0x26 DUP4 PUSH2 0xA90 JUMP JUMPDEST SWAP2 POP PUSH2 0x11D7 DUP3 PUSH2 0x1170 JUMP JUMPDEST PUSH1 0x40 DUP3 ADD SWAP1 POP SWAP2 SWAP1 POP JUMP JUMPDEST PUSH1 0x0 PUSH1 0x20 DUP3 ADD SWAP1 POP DUP2 DUP2 SUB PUSH1 0x0 DUP4 ADD MSTORE PUSH2 0x11FB DUP2 PUSH2 0x11BF JUMP JUMPDEST SWAP1 POP SWAP2 SWAP1 POP JUMP INVALID LOG2 PUSH5 0x6970667358 0x22 SLT KECCAK256 0x23 0x22 0xDF 0xE1 PUSH12 0x8A34B4F4CF3D473F03EAA9F4 0xAA DUP6 SWAP1 0xC3 0xE4 0xD PUSH4 0x6F6343BB MUL ADDRESS PUSH18 0x4664736F6C63430008110033A26469706673 PC 0x22 SLT KECCAK256 SWAP16 0xDA DUP12 AND 0x27 0xF7 SLT PUSH7 0xFB2FE643121AFF DUP6 0xD9 0xA7 PUSH31 0xD6A61C20EA1DA2D4FF6AD3FEF764736F6C6343000811003300000000000000 "
				},
				"gasEstimates": {
					"creation": {
						"codeDepositCost": "1783200",
						"executionCost": "infinite",
						"totalCost": "infinite"
					},
					"external": {
						"createToken(string,string)": "infinite",
						"getToken(string)": "infinite",
						"owner()": "2544",
						"renounceOwnership()": "30398",
						"transferOwnership(address)": "30810"
					}
				},
				"methodIdentifiers": {
					"createToken(string,string)": "2f2f2d56",
					"getToken(string)": "c1733f68",
					"owner()": "8da5cb5b",
					"renounceOwnership()": "715018a6",
					"transferOwnership(address)": "f2fde38b"
				}
			},
			"storageLayout": {
				"storage": [
					{
						"astId": 7,
						"contract": "contracts/TokenFactory.sol:TokenFactory",
						"label": "_owner",
						"offset": 0,
						"slot": "0",
						"type": "t_address"
					},
					{
						"astId": 851,
						"contract": "contracts/TokenFactory.sol:TokenFactory",
						"label": "tokenSymbolToAddress",
						"offset": 0,
						"slot": "1",
						"type": "t_mapping(t_string_memory_ptr,t_address)"
					}
				],
				"types": {
					"t_address": {
						"encoding": "inplace",
						"label": "address",
						"numberOfBytes": "20"
					},
					"t_mapping(t_string_memory_ptr,t_address)": {
						"encoding": "mapping",
						"key": "t_string_memory_ptr",
						"label": "mapping(string => address)",
						"numberOfBytes": "32",
						"value": "t_address"
					},
					"t_string_memory_ptr": {
						"encoding": "bytes",
						"label": "string",
						"numberOfBytes": "32"
					}
				}
			},
			"userdoc": {
				"kind": "user",
				"methods": {},
				"version": 1
			}
		}
	}
}