{
  "_format": "hh-sol-artifact-1",
  "contractName": "RewardPool",
  "sourceName": "contracts/RewardPool.sol",
  "abi": [
    {
      "inputs": [
        {
          "internalType": "address",
          "name": "staker",
          "type": "address"
        },
        {
          "internalType": "string",
          "name": "currency",
          "type": "string"
        }
      ],
      "name": "claimFeeShare",
      "outputs": [],
      "stateMutability": "nonpayable",
      "type": "function"
    }
  ],
  "bytecode": "0x608060405234801561001057600080fd5b50610485806100206000396000f3fe608060405234801561001057600080fd5b506004361061002b5760003560e01c8063581b32c514610030575b600080fd5b61004361003e3660046102f8565b610045565b005b60008060009054906101000a90046001600160a01b03166001600160a01b03166328a237d96040518163ffffffff1660e01b8152600401602060405180830381865afa158015610099573d6000803e3d6000fd5b505050506040513d601f19601f820116820180604052508101906100bd919061037d565b6001600160a01b031663f131ece38585856040518463ffffffff1660e01b81526004016100ec939291906103ca565b602060405180830381865afa158015610109573d6000803e3d6000fd5b505050506040513d601f19601f8201168201806040525081019061012d91906103f8565b9050600081116101835760405162461bcd60e51b815260206004820181905260248201527f526577617264506f6f6c3a204e6f7420656e6f75676820666565207368617265604482015260640160405180910390fd5b60008054906101000a90046001600160a01b03166001600160a01b0316635a58fe4b6040518163ffffffff1660e01b8152600401602060405180830381865afa1580156101d4573d6000803e3d6000fd5b505050506040513d601f19601f820116820180604052508101906101f8919061037d565b6001600160a01b031663c1733f6884846040518363ffffffff1660e01b8152600401610225929190610411565b602060405180830381865afa158015610242573d6000803e3d6000fd5b505050506040513d601f19601f82011682018060405250810190610266919061037d565b60405163a9059cbb60e01b8152336004820152602481018390526001600160a01b03919091169063a9059cbb906044016020604051808303816000875af11580156102b5573d6000803e3d6000fd5b505050506040513d601f19601f820116820180604052508101906102d9919061042d565b5050505050565b6001600160a01b03811681146102f557600080fd5b50565b60008060006040848603121561030d57600080fd5b8335610318816102e0565b9250602084013567ffffffffffffffff8082111561033557600080fd5b818601915086601f83011261034957600080fd5b81358181111561035857600080fd5b87602082850101111561036a57600080fd5b6020830194508093505050509250925092565b60006020828403121561038f57600080fd5b815161039a816102e0565b9392505050565b81835281816020850137506000828201602090810191909152601f909101601f19169091010190565b6001600160a01b03841681526040602082018190526000906103ef90830184866103a1565b95945050505050565b60006020828403121561040a57600080fd5b5051919050565b6020815260006104256020830184866103a1565b949350505050565b60006020828403121561043f57600080fd5b8151801515811461039a57600080fdfea264697066735822122025753f6df03c90f2476e31035a596933d66607754baf2b43e0e67024188345b664736f6c63430008140033",
  "linkReferences": {},
  "deployedLinkReferences": {}
}