{
  "_format": "hh-sol-artifact-1",
  "contractName": "StakingLimit",
  "sourceName": "contracts/StakingLimit.sol",
  "abi": [
    {
      "inputs": [
        {
          "internalType": "address",
          "name": "owner",
          "type": "address"
        }
      ],
      "name": "OwnableInvalidOwner",
      "type": "error"
    },
    {
      "inputs": [
        {
          "internalType": "address",
          "name": "account",
          "type": "address"
        }
      ],
      "name": "OwnableUnauthorizedAccount",
      "type": "error"
    },
    {
      "anonymous": false,
      "inputs": [
        {
          "indexed": true,
          "internalType": "address",
          "name": "bank",
          "type": "address"
        },
        {
          "indexed": true,
          "internalType": "string",
          "name": "currency",
          "type": "string"
        },
        {
          "indexed": false,
          "internalType": "uint256",
          "name": "amount",
          "type": "uint256"
        }
      ],
      "name": "AppliedForLimit",
      "type": "event"
    },
    {
      "anonymous": false,
      "inputs": [
        {
          "indexed": true,
          "internalType": "address",
          "name": "previousOwner",
          "type": "address"
        },
        {
          "indexed": true,
          "internalType": "address",
          "name": "newOwner",
          "type": "address"
        }
      ],
      "name": "OwnershipTransferred",
      "type": "event"
    },
    {
      "anonymous": false,
      "inputs": [
        {
          "indexed": true,
          "internalType": "address",
          "name": "bank",
          "type": "address"
        },
        {
          "indexed": true,
          "internalType": "uint256",
          "name": "time",
          "type": "uint256"
        },
        {
          "indexed": true,
          "internalType": "bytes32",
          "name": "bankName",
          "type": "bytes32"
        }
      ],
      "name": "Registered",
      "type": "event"
    },
    {
      "anonymous": false,
      "inputs": [
        {
          "indexed": true,
          "internalType": "address",
          "name": "bank",
          "type": "address"
        },
        {
          "indexed": true,
          "internalType": "address",
          "name": "staker",
          "type": "address"
        },
        {
          "indexed": true,
          "internalType": "string",
          "name": "currency",
          "type": "string"
        },
        {
          "indexed": false,
          "internalType": "uint256",
          "name": "amount",
          "type": "uint256"
        }
      ],
      "name": "Staked",
      "type": "event"
    },
    {
      "anonymous": false,
      "inputs": [
        {
          "indexed": true,
          "internalType": "address",
          "name": "bank",
          "type": "address"
        },
        {
          "indexed": true,
          "internalType": "address",
          "name": "staker",
          "type": "address"
        },
        {
          "indexed": true,
          "internalType": "string",
          "name": "currecncy",
          "type": "string"
        },
        {
          "indexed": false,
          "internalType": "uint256",
          "name": "amount",
          "type": "uint256"
        }
      ],
      "name": "Unstaked",
      "type": "event"
    },
    {
      "anonymous": false,
      "inputs": [
        {
          "indexed": true,
          "internalType": "address",
          "name": "bank",
          "type": "address"
        },
        {
          "indexed": true,
          "internalType": "uint256",
          "name": "time",
          "type": "uint256"
        },
        {
          "indexed": true,
          "internalType": "bytes32",
          "name": "bankName",
          "type": "bytes32"
        }
      ],
      "name": "Verified",
      "type": "event"
    },
    {
      "inputs": [
        {
          "internalType": "string",
          "name": "currency",
          "type": "string"
        },
        {
          "internalType": "address",
          "name": "stablecoin",
          "type": "address"
        }
      ],
      "name": "addStablecoin",
      "outputs": [],
      "stateMutability": "nonpayable",
      "type": "function"
    },
    {
      "inputs": [
        {
          "internalType": "string",
          "name": "currency",
          "type": "string"
        },
        {
          "internalType": "uint256",
          "name": "amount",
          "type": "uint256"
        }
      ],
      "name": "applyForLimit",
      "outputs": [],
      "stateMutability": "nonpayable",
      "type": "function"
    },
    {
      "inputs": [
        {
          "internalType": "address",
          "name": "bankAddress",
          "type": "address"
        },
        {
          "internalType": "string",
          "name": "currency",
          "type": "string"
        }
      ],
      "name": "getBankAppliedLimit",
      "outputs": [
        {
          "internalType": "uint256",
          "name": "",
          "type": "uint256"
        }
      ],
      "stateMutability": "view",
      "type": "function"
    },
    {
      "inputs": [
        {
          "internalType": "address",
          "name": "bankAddress",
          "type": "address"
        },
        {
          "internalType": "string",
          "name": "currency",
          "type": "string"
        }
      ],
      "name": "getBankGrantedLimit",
      "outputs": [
        {
          "internalType": "uint256",
          "name": "",
          "type": "uint256"
        }
      ],
      "stateMutability": "view",
      "type": "function"
    },
    {
      "inputs": [
        {
          "internalType": "address",
          "name": "bankAddress",
          "type": "address"
        }
      ],
      "name": "getBankInfo",
      "outputs": [
        {
          "internalType": "bytes32",
          "name": "",
          "type": "bytes32"
        },
        {
          "internalType": "bytes32",
          "name": "",
          "type": "bytes32"
        },
        {
          "internalType": "bytes",
          "name": "",
          "type": "bytes"
        },
        {
          "internalType": "bytes",
          "name": "",
          "type": "bytes"
        }
      ],
      "stateMutability": "view",
      "type": "function"
    },
    {
      "inputs": [
        {
          "internalType": "address",
          "name": "bankAddress",
          "type": "address"
        }
      ],
      "name": "getBankVerificationStatus",
      "outputs": [
        {
          "internalType": "bool",
          "name": "",
          "type": "bool"
        }
      ],
      "stateMutability": "view",
      "type": "function"
    },
    {
      "inputs": [
        {
          "internalType": "address",
          "name": "staker",
          "type": "address"
        },
        {
          "internalType": "string",
          "name": "currency",
          "type": "string"
        }
      ],
      "name": "getStakerShareInCurrency",
      "outputs": [
        {
          "internalType": "uint256",
          "name": "",
          "type": "uint256"
        }
      ],
      "stateMutability": "view",
      "type": "function"
    },
    {
      "inputs": [
        {
          "internalType": "string",
          "name": "name",
          "type": "string"
        }
      ],
      "name": "getSupportedStablecoins",
      "outputs": [
        {
          "internalType": "address",
          "name": "",
          "type": "address"
        }
      ],
      "stateMutability": "view",
      "type": "function"
    },
    {
      "inputs": [
        {
          "internalType": "address",
          "name": "_contractRegistry",
          "type": "address"
        }
      ],
      "name": "initialize",
      "outputs": [],
      "stateMutability": "nonpayable",
      "type": "function"
    },
    {
      "inputs": [],
      "name": "owner",
      "outputs": [
        {
          "internalType": "address",
          "name": "",
          "type": "address"
        }
      ],
      "stateMutability": "view",
      "type": "function"
    },
    {
      "inputs": [
        {
          "internalType": "bytes32",
          "name": "bankName",
          "type": "bytes32"
        },
        {
          "internalType": "bytes32",
          "name": "routingNumber",
          "type": "bytes32"
        },
        {
          "internalType": "bytes",
          "name": "bankAddress",
          "type": "bytes"
        },
        {
          "internalType": "bytes",
          "name": "url",
          "type": "bytes"
        }
      ],
      "name": "register",
      "outputs": [],
      "stateMutability": "nonpayable",
      "type": "function"
    },
    {
      "inputs": [],
      "name": "renounceOwnership",
      "outputs": [],
      "stateMutability": "nonpayable",
      "type": "function"
    },
    {
      "inputs": [
        {
          "internalType": "address",
          "name": "bank",
          "type": "address"
        },
        {
          "internalType": "string",
          "name": "currency",
          "type": "string"
        },
        {
          "internalType": "uint256",
          "name": "amount",
          "type": "uint256"
        }
      ],
      "name": "stakeForBank",
      "outputs": [],
      "stateMutability": "nonpayable",
      "type": "function"
    },
    {
      "inputs": [
        {
          "internalType": "address",
          "name": "newOwner",
          "type": "address"
        }
      ],
      "name": "transferOwnership",
      "outputs": [],
      "stateMutability": "nonpayable",
      "type": "function"
    },
    {
      "inputs": [
        {
          "internalType": "address",
          "name": "bank",
          "type": "address"
        },
        {
          "internalType": "string",
          "name": "currency",
          "type": "string"
        },
        {
          "internalType": "uint256",
          "name": "amount",
          "type": "uint256"
        }
      ],
      "name": "unstakeFromBank",
      "outputs": [],
      "stateMutability": "nonpayable",
      "type": "function"
    },
    {
      "inputs": [
        {
          "internalType": "address",
          "name": "bank",
          "type": "address"
        }
      ],
      "name": "verifyBank",
      "outputs": [],
      "stateMutability": "nonpayable",
      "type": "function"
    }
  ],
  "bytecode": "0x60a06040526305f5e10060805234801561001857600080fd5b50338061003f57604051631e4fbdf760e01b81526000600482015260240160405180910390fd5b6100488161004e565b5061009e565b600080546001600160a01b038381166001600160a01b0319831681178455604051919092169283917f8be0079c531659141344cd1fd0a4f28419497f9722a3daafe3b4186f6b6457e09190a35050565b6080516118836100b960003960006111a401526118836000f3fe608060405234801561001057600080fd5b50600436106101005760003560e01c80638da5cb5b11610097578063eb8f7e5811610066578063eb8f7e5814610215578063ed31506f14610228578063f131ece31461026c578063f2fde38b1461027f57600080fd5b80638da5cb5b146101b7578063c4d66de8146101dc578063c8f26d70146101ef578063cd80d9db1461020257600080fd5b80636da04e64116100d35780636da04e6414610166578063715018a614610179578063770db4f4146101815780637b79413a1461019457600080fd5b80630deba21b146101055780632fe3e0341461011a57806342fb11331461012d5780634d2f9d2914610153575b600080fd5b6101186101133660046112e2565b610292565b005b61011861012836600461137a565b610367565b61014061013b3660046113d6565b61064b565b6040519081526020015b60405180910390f35b61011861016136600461137a565b610691565b61011861017436600461142b565b610b6b565b610118610cae565b61014061018f3660046113d6565b610cc2565b6101a76101a236600461142b565b610cf0565b60405161014a9493929190611495565b6000546001600160a01b03165b6040516001600160a01b03909116815260200161014a565b6101186101ea36600461142b565b610e4c565b6101186101fd3660046114c6565b610e76565b6101c461021036600461151d565b610ec5565b61011861022336600461155f565b610efb565b61025c61023636600461142b565b6001600160a01b0316600090815260036020526040902060020154610100900460ff1690565b604051901515815260200161014a565b61014061027a3660046113d6565b611011565b61011861028d36600461142b565b6111de565b3360009081526003602052604090206002015460ff16156103085760405162461bcd60e51b815260206004820152602560248201527f5374616b696e674c696d69743a2042616e6b20616c72656164792072656769736044820152641d195c995960da1b60648201526084015b60405180910390fd5b33600090815260036020819052604090912087815560028101805460ff19166001908117909155810187905501610340848683611646565b5033600090815260036020526040902060040161035e828483611646565b50505050505050565b3360009081526004602090815260408083206001600160a01b03881684526001019091529081902090518291906103a19086908690611706565b90815260200160405180910390205410156104245760405162461bcd60e51b815260206004820152603d60248201527f5374616b696e674c696d69743a205374616b656420616d6f756e74206973206c60448201527f657373207468616e207468652073706563696669656420616d6f756e7400000060648201526084016102ff565b3360009081526004602090815260408083206001600160a01b038816845260020190915290819020905142919061045e9086908690611706565b90815260200160405180910390205411156104bb5760405162461bcd60e51b815260206004820152601d60248201527f5374616b696e674c696d69743a204173736574206973206c6f636b656400000060448201526064016102ff565b336000908152600460205260409081902090518291906104de9086908690611706565b908152602001604051809103902060008282546104fb919061172c565b90915550503360009081526004602090815260408083206001600160a01b038816845260010190915290819020905182919061053a9086908690611706565b90815260200160405180910390206000828254610557919061172c565b90915550506001600160a01b03841660009081526003602052604090819020905182916006019061058b9086908690611706565b908152602001604051809103902060008282546105a8919061172c565b925050819055506000600284846040516105c3929190611706565b9081526040519081900360200181205463a9059cbb60e01b8252336004830152602482018490526001600160a01b03169150819063a9059cbb906044016020604051808303816000875af115801561061f573d6000803e3d6000fd5b505050506040513d601f19601f82011682018060405250810190610643919061173f565b505050505050565b6001600160a01b03831660009081526003602052604080822090516006909101906106799085908590611706565b90815260200160405180910390205490509392505050565b60006001600160a01b0316600284846040516106ae929190611706565b908152604051908190036020019020546001600160a01b03160361072b5760405162461bcd60e51b815260206004820152602e60248201527f5374616b696e674c696d69743a205468697320537461626c65636f696e20697360448201526d081b9bdd081cdd5c1c1bdc9d195960921b60648201526084016102ff565b6001600160a01b038416600090815260036020526040902060020154610100900460ff1661079b5760405162461bcd60e51b815260206004820152601f60248201527f5374616b696e674c696d69743a2042616e6b206e6f742076657269666965640060448201526064016102ff565b60036000856001600160a01b03166001600160a01b0316815260200190815260200160002060050183836040516107d3929190611706565b9081526020016040518091039020548160036000876001600160a01b03166001600160a01b03168152602001908152602001600020600601858560405161081b929190611706565b9081526020016040518091039020546108349190611761565b11156108a85760405162461bcd60e51b815260206004820152603960248201527f5374616b696e674c696d69743a205374616b656420616d6f756e742063616e2760448201527f742063726f737320746865206170706c696564206c696d69740000000000000060648201526084016102ff565b6000600284846040516108bc929190611706565b908152604051908190036020018120546323b872dd60e01b8252336004830152306024830152604482018490526001600160a01b0316915081906323b872dd906064016020604051808303816000875af115801561091e573d6000803e3d6000fd5b505050506040513d601f19601f82011682018060405250810190610942919061173f565b50336000908152600460205260409081902090518391906109669087908790611706565b908152602001604051809103902060008282546109839190611761565b90915550503360009081526004602090815260408083206001600160a01b03891684526001019091529081902090518391906109c29087908790611706565b908152602001604051809103902060008282546109df9190611761565b909155506109f290504262278d00611761565b3360009081526004602090815260408083206001600160a01b038a168452600201909152908190209051610a299087908790611706565b9081526020016040518091039020819055508160036000876001600160a01b03166001600160a01b031681526020019081526020016000206006018585604051610a74929190611706565b90815260200160405180910390206000828254610a919190611761565b90915550506001546040805163860a551f60e01b815290516001600160a01b039092169163860a551f916004808201926020929091908290030181865afa158015610ae0573d6000803e3d6000fd5b505050506040513d601f19601f82011682018060405250810190610b049190611774565b6001600160a01b031663920e3c968660046040518363ffffffff1660e01b8152600401610b32929190611791565b600060405180830381600087803b158015610b4c57600080fd5b505af1158015610b60573d6000803e3d6000fd5b505050505050505050565b6001600160a01b038116600090815260036020526040902054610bbf5760405162461bcd60e51b815260206004820152600c60248201526b496e76616c69642062616e6b60a01b60448201526064016102ff565b6001600160a01b03808216600090815260036020908152604091829020600201805461ff001916610100179055600154825163860a551f60e01b8152925193169263860a551f9260048082019392918290030181865afa158015610c27573d6000803e3d6000fd5b505050506040513d601f19601f82011682018060405250810190610c4b9190611774565b6001600160a01b031663920e3c968260026040518363ffffffff1660e01b8152600401610c79929190611791565b600060405180830381600087803b158015610c9357600080fd5b505af1158015610ca7573d6000803e3d6000fd5b5050505050565b610cb661121c565b610cc06000611249565b565b6001600160a01b03831660009081526003602052604080822090516005909101906106799085908590611706565b6001600160a01b03811660009081526003602081905260408220805460018201549282018054859460609485949391926004909101908290610d31906115c1565b80601f0160208091040260200160405190810160405280929190818152602001828054610d5d906115c1565b8015610daa5780601f10610d7f57610100808354040283529160200191610daa565b820191906000526020600020905b815481529060010190602001808311610d8d57829003601f168201915b50505050509150808054610dbd906115c1565b80601f0160208091040260200160405190810160405280929190818152602001828054610de9906115c1565b8015610e365780601f10610e0b57610100808354040283529160200191610e36565b820191906000526020600020905b815481529060010190602001808311610e1957829003601f168201915b5050505050905093509350935093509193509193565b610e5461121c565b600180546001600160a01b0319166001600160a01b0392909216919091179055565b610e7e61121c565b8060028484604051610e91929190611706565b90815260405190819003602001902080546001600160a01b03929092166001600160a01b0319909216919091179055505050565b600060028383604051610ed9929190611706565b908152604051908190036020019020546001600160a01b031690505b92915050565b33600090815260036020526040902060020154610100900460ff16610f785760405162461bcd60e51b815260206004820152602d60248201527f5374616b696e674c696d69743a2043616c6c6572206e6f742062616e6b206f7260448201526c081b9bdd081d995c9a599a5959609a1b60648201526084016102ff565b33600090815260036020526040908190209051829160050190610f9e9086908690611706565b90815260200160405180910390206000828254610fbb9190611761565b9091555050604051610fd09084908490611706565b6040519081900381208282529033907f669c674412650f9294bd337d08a9ac476b0e2ec2bb89c690d3dfb1029a94d3859060200160405180910390a3505050565b600080600160009054906101000a90046001600160a01b03166001600160a01b0316635a58fe4b6040518163ffffffff1660e01b8152600401602060405180830381865afa158015611067573d6000803e3d6000fd5b505050506040513d601f19601f8201168201806040525081019061108b9190611774565b6001600160a01b031663c1733f6885856040518363ffffffff1660e01b81526004016110b89291906117cc565b602060405180830381865afa1580156110d5573d6000803e3d6000fd5b505050506040513d601f19601f820116820180604052508101906110f99190611774565b90506000816001600160a01b03166318160ddd6040518163ffffffff1660e01b8152600401602060405180830381865afa15801561113b573d6000803e3d6000fd5b505050506040513d601f19601f8201168201806040525081019061115f91906117fb565b6001600160a01b0387166000908152600460205260408082209051929350909161118c9088908890611706565b908152604051908190036020019020549050816111c97f000000000000000000000000000000000000000000000000000000000000000083611814565b6111d3919061182b565b979650505050505050565b6111e661121c565b6001600160a01b03811661121057604051631e4fbdf760e01b8152600060048201526024016102ff565b61121981611249565b50565b6000546001600160a01b03163314610cc05760405163118cdaa760e01b81523360048201526024016102ff565b600080546001600160a01b038381166001600160a01b0319831681178455604051919092169283917f8be0079c531659141344cd1fd0a4f28419497f9722a3daafe3b4186f6b6457e09190a35050565b60008083601f8401126112ab57600080fd5b50813567ffffffffffffffff8111156112c357600080fd5b6020830191508360208285010111156112db57600080fd5b9250929050565b600080600080600080608087890312156112fb57600080fd5b8635955060208701359450604087013567ffffffffffffffff8082111561132157600080fd5b61132d8a838b01611299565b9096509450606089013591508082111561134657600080fd5b5061135389828a01611299565b979a9699509497509295939492505050565b6001600160a01b038116811461121957600080fd5b6000806000806060858703121561139057600080fd5b843561139b81611365565b9350602085013567ffffffffffffffff8111156113b757600080fd5b6113c387828801611299565b9598909750949560400135949350505050565b6000806000604084860312156113eb57600080fd5b83356113f681611365565b9250602084013567ffffffffffffffff81111561141257600080fd5b61141e86828701611299565b9497909650939450505050565b60006020828403121561143d57600080fd5b813561144881611365565b9392505050565b6000815180845260005b8181101561147557602081850181015186830182015201611459565b506000602082860101526020601f19601f83011685010191505092915050565b8481528360208201526080604082015260006114b4608083018561144f565b82810360608401526111d3818561144f565b6000806000604084860312156114db57600080fd5b833567ffffffffffffffff8111156114f257600080fd5b6114fe86828701611299565b909450925050602084013561151281611365565b809150509250925092565b6000806020838503121561153057600080fd5b823567ffffffffffffffff81111561154757600080fd5b61155385828601611299565b90969095509350505050565b60008060006040848603121561157457600080fd5b833567ffffffffffffffff81111561158b57600080fd5b61159786828701611299565b909790965060209590950135949350505050565b634e487b7160e01b600052604160045260246000fd5b600181811c908216806115d557607f821691505b6020821081036115f557634e487b7160e01b600052602260045260246000fd5b50919050565b601f82111561164157600081815260208120601f850160051c810160208610156116225750805b601f850160051c820191505b818110156106435782815560010161162e565b505050565b67ffffffffffffffff83111561165e5761165e6115ab565b6116728361166c83546115c1565b836115fb565b6000601f8411600181146116a6576000851561168e5750838201355b600019600387901b1c1916600186901b178355610ca7565b600083815260209020601f19861690835b828110156116d757868501358255602094850194600190920191016116b7565b50868210156116f45760001960f88860031b161c19848701351681555b505060018560011b0183555050505050565b8183823760009101908152919050565b634e487b7160e01b600052601160045260246000fd5b81810381811115610ef557610ef5611716565b60006020828403121561175157600080fd5b8151801515811461144857600080fd5b80820180821115610ef557610ef5611716565b60006020828403121561178657600080fd5b815161144881611365565b6001600160a01b038316815260408101600583106117bf57634e487b7160e01b600052602160045260246000fd5b8260208301529392505050565b60208152816020820152818360408301376000818301604090810191909152601f909201601f19160101919050565b60006020828403121561180d57600080fd5b5051919050565b8082028115828204841417610ef557610ef5611716565b60008261184857634e487b7160e01b600052601260045260246000fd5b50049056fea2646970667358221220c06d595061b6c276b84bdc0db2153c0f891dfff497f0f6c840e68ca3a904d04764736f6c63430008140033",
  "linkReferences": {},
  "deployedLinkReferences": {}
}